:020000040800F2
:1000000080D300244104000823570008215200082F
:1000100021570008D10900086967000800000000A6
:100020000000000000000000000000008103000844
:10003000DD0E000800000000DD030008FD59000887
:100040005B0400085B0400085B0400085B04000814
:100050005B0400085B0400085B0400085B04000804
:100060005B0400085B0400085B040008D509000875
:10007000E1090008ED090008F9090008050A00086F
:10008000110A00081D0A00085B0400085B04000850
:100090005B0400085B0400085B0400085B040008C4
:1000A0005B0400085B0400085B0400085B040008B4
:1000B0005B0400085B040008ED5B00085B040008BB
:1000C0005B0400085B0400085B0400085B04000894
:1000D0005B0400082D6700084167000855670008A9
:1000E0005B0400085B040008000000005B040008DB
:1000F0005B0400085B0400085B040008290A000890
:100100005B0400085B0400085B0400085B04000853
:10011000B95D0008C55D0008015C00085B040008CB
:10012000350A0008410A00085B0400085B04000867
:100130005B0400085B0400085B0400085B04000823
:1001400000000000000000000000000000000000AF
:100150005B0400085B0400085B0400085B04000803
:100160005B0400085B0400085B0400085B040008F3
:100170005B0400085B0400085B040008000000004A
:100180005B0400085B0400085B0400085B040008D3
:100190005B0400085B0400085B0400085B040008C3
:1001A0005B0400085B0400085B0400085B040008B3
:1001B0005B0400085B0400085B0400085B040008A3
:1001C0005B0400085B0400085B0400085B04000893
:1001D0005B0400085B0400085B0400085B04000883
:1001E0005B0400085B0400085B0400085B04000873
:1001F0005B0400085B0400085B0400085B04000863
:100200005B0400085B0400085B0400085B04000852
:100210005B0400085B040008E15B00085B04000865
:100220005B0400085B0400085B0400080000000099
:100230005B0400085B040008000000005B04000889
:100240005B0400085B0400085B0400085B04000812
:100250005B0400085B0400085B0400085B04000802
:100260005B0400085B0400085B0400085B040008F2
:100270005B0400085B0400085B0400080000000049
:100280005B0400085B0400085B0400080000000039
:10029000000000005B04000800F002F800F061F8C4
:1002A0000AA090E8000C82448344AAF10107DA45D1
:1002B00001D100F056F8AFF2090EBAE80F0013F0C2
:1002C000010F18BFFB1A43F00103184728780000FC
:1002D000487800000A444FF0000C10F8013B13F07E
:1002E000070408BF10F8014B1D1108BF10F8015B8F
:1002F000641E05D010F8016B641E01F8016BF9D182
:1003000013F0080F1EBF10F8014BAD1C0C1B09D1D8
:100310006D1E58BF01F801CBFAD505E014F8016B4A
:1003200001F8016B6D1EF9D59142D6D370470000DC
:100330000023002400250026103A28BF78C1FBD8EE
:10034000520728BF30C148BF0B607047642900F0D6
:100350004F81002070471FB507F032FB1FBD10B55D
:1003600010BD00F069FA1146FFF7F5FF06F038FD01
:1003700000F087FA03B4FFF7F2FF03BC06F022FD9A
:100380002C4B19680868B0E8F04F80F30988BFF378
:100390006F8F4FF0000080F311887047000000005D
:1003A00008480068006880F308884FF0000080F378
:1003B000148862B661B6BFF34F8FBFF36F8F00DF53
:1003C00000BF00BF08ED00E0DFF80C00016841F459
:1003D00070010160704700BF88ED00E0EFF3098015
:1003E000BFF36F8F134B1A681EF0100F08BF20ED7C
:1003F000108A20E9F04F106009B44FF0500080F3EC
:100400001188BFF34F8FBFF36F8F07F001F94FF0E3
:10041000000080F3118809BC19680868B0E8F04F43
:100420001EF0100F08BFB0EC108A80F30988BFF3EC
:100430006F8F70472C000024EFF305807047000099
:100440000948804709480047FEE7FEE7FEE7FEE768
:10045000FEE7FEE7FEE7FEE7FEE7FEE704480549A4
:10046000054A064B70470000055B0008990200082A
:1004700080CD002480D3002480CF002480CF0024AE
:10048000704753EA020C00F069802DE9F04B4FF001
:100490000006002B1FBFB3FA83F503FA05F424FA14
:1004A00005F65E4012BF1643B2FA82F502FA05F471
:1004B000C5F120051EBF22FA05FC44EA0C042035D4
:1004C00056EA044C4FEA144418BF641C4FF000086D
:1004D0004FF00009904271EB030C39D3002919BF8A
:1004E000B1FA81F701FA07F6B0FA80F700FA07F6D9
:1004F000C7F120071EBF20FA07FC46EA0C0620378A
:10050000B6FBF4FCA7EB0507103F07F01F0BCBF180
:1005100020060CFA0BFB2CFA06F644BFB346002665
:10052000202FA4BF5E464FF0000B5BEA060C08BF0D
:100530004FF0010B19EB0B09ABFB027C48EB0608F3
:10054000C01B06FB02CC0BFB03CC71EB0C01C1E71B
:100550000B46024641464846BDE8F08B13B54FF0C6
:1005600000004FF00001AFF30080BDE81C40704771
:100570000FB4044910B503AA029800F02BF910BC7F
:100580005DF814FBCC1900242DE9F0410E46044619
:10059000002020622046E168884730B3252805D036
:1005A000D4E901219047206A401CF2E7E168204627
:1005B00000278847050018D0A5F14100192802D866
:1005C00020354FF400673246294620462760FFF762
:1005D000BDFE40B1012804D0F61D26F007060836FE
:1005E000D8E7361DD6E72846DAE7206ABDE8F0816D
:1005F0002DE9F0410646002410687529314616A5FC
:1006000010D0AFF30080002802DA404213A507E0C3
:1006100031688A0701D512A502E0490704D511A562
:10062000012401E0AFF3008000210A2206F1240733
:1006300009E0B0FBF2FCB0FBF2F302FB1C0030302F
:1006400078541846491C0028F3D123462A463046E0
:10065000BDE8F04100F065B8000000002D0000008A
:100660002B0000002000000010B5203AC0F00B80E5
:10067000B1E81850203AA0E81850B1E81850A0E8A6
:100680001850BFF4F5AF5FEA027C24BFB1E8185000
:10069000A0E8185044BF18C918C0BDE810405FEA70
:1006A000827C24BF51F8043B40F8043B08BF7047EC
:1006B000D20728BF31F8023B48BF11F8012B28BFF1
:1006C00020F8023B48BF00F8012B70474FF00002B2
:1006D00000B5134694469646203922BFA0E80C5038
:1006E000A0E80C50B1F12001BFF4F7AF090728BF13
:1006F000A0E80C5048BF0CC05DF804EB890028BF8F
:1007000040F8042B08BF704748BF20F8022B11F0B7
:10071000804F18BF00F8012B704770477047704733
:1007200070472DE9F0470D4699469246044600F180
:1007300024080168880604D5E06921F010012160D1
:1007400000E00120A84201DD471B00E00027A1696D
:100750007A1902EB0900081AA0612078C00602D4B9
:100760002046AFF30080002608E0D4E901211AF802
:1007700006009047206A401C761C20624E45F4DB40
:100780002078C0060AD52046AFF3008006E0D4E901
:10079000012130209047206A401C2062381EA7F1BA
:1007A0000107F4DC07E0D4E9012118F805009047BF
:1007B000206A401C2062281EA5F10105F3DC2046BA
:1007C000AFF300802078000602D50220BDE8F08754
:1007D0000120FBE7074B70B50D467B4400F011F894
:1007E0000446284600F020F810B14FF0FF3070BDED
:1007F000204670BDEB65000001694A1C0261087863
:10080000704700B58FB0CDE9013100210591054950
:100810007944CDE9031011466846FFF7B5FE0FB0E5
:1008200000BD0000E5FFFFFF007B00F08000704787
:10083000004870471CCD00247546FFF7F9FFAE460F
:1008400005006946534620F00700854618B020B5DC
:10085000FFF704FEBDE820404FF000064FF0000710
:100860004FF000084FF0000B21F00701AC46ACE858
:10087000C009ACE8C009ACE8C009ACE8C0098D46C5
:10088000704710B50446AFF300802046BDE8104025
:10089000FFF770BD704700002DE9F0410025154FAE
:1008A00015A02946FFF764FE1CA0FFF761FE1CA0FF
:1008B000FFF75EFE002407EB451606EB4400B0F997
:1008C00004101CA0FFF754FE641C0D2CF5DBB6F9D8
:1008D0001E101AA0FFF74CFE19A0FFF749FE1FA03B
:1008E000FFF746FE6D1C232DDADBBDE8F0411D4805
:1008F000FFF73EBE40C00024092E616374696F6E2D
:10090000735B25645D203D2028536572766F4163DB
:1009100074696F6E53746570297B00000D0A0000C6
:100920002E736572766F416E676C6573203D207B18
:100930000000000025642C20000000002564200039
:100940007D2C0D0A092E737465704475726174698B
:100950006F6E203D20320D0A000000007D2C0D0A34
:1009600000000000A47A0008154814490160154AE7
:10097000426000F1C802826000F65452C26000F585
:10098000CF52026102F68C42426102F68C428261D1
:1009900002F68C42C261A1F68C4282620A4A8263EC
:1009A0000020088081F8840C01F540609FED070A63
:1009B00080ED220A2320A1F8860C704740C0002455
:1009C000A4670024AC000024380D002400409C459E
:1009D000FEE70000014800F067BE0000042200248A
:1009E000014800F061BE00007C220024014800F0B4
:1009F0005BBE0000F4220024014800F055BE000058
:100A00006C230024014800F04FBE0000E4230024C2
:100A1000014800F049BE00005C240024014800F0B9
:100A200043BE000024200024014800F03DBE000029
:100A30009C200024014800F037BE0000142100244F
:100A4000014800F031BE00008C21002410B52C4A72
:100A5000016891423AD02A4A1832914236D0284A47
:100A60003032914232D0264A483291422ED0244A26
:100A7000603291422AD0224A7832914226D0204ACE
:100A80009032914222D01E4AA83291421ED01D4A75
:100A900091421BD01B4A1832914217D0194A30326A
:100AA000914213D0174A483291420FD0154A603212
:100AB00091420BD0134A7832914207D0114A9032BA
:100AC000914203D00F4AA832914214D1CAB2103ACF
:100AD0001823B2FBF3F20C4C02F00703E35CC3658E
:100AE000032A04D96FF30901091D816506E06FF33C
:100AF0000901816502E021F0FF018165806D10BD73
:100B000010000240100402403C7A000810B5016851
:100B10000123224CCAB2A1421BD0204C1434A14262
:100B200017D01E4C2834A14213D01C4C3C34A14297
:100B30000FD01A4C5034A1420BD0184C6434A1424F
:100B400007D0164C7834A14203D0144C8C34A14207
:100B50000FD1083A1421B2FBF1F1114A02EB8102E4
:100B600002660F4A8032426601F01F018B408366A5
:100B700010BD103A1824B2FBF4F20A4C2144A82903
:100B800000D80832084901EB82010166064980312C
:100B9000416602F01F018B40836610BD0854025865
:100BA00000580258F0FBFDBF000802400279521EB7
:100BB000072A31D8194B016899421BD0174B1433BF
:100BC000994217D0154B2833994213D0134B3C331D
:100BD00099420FD0114B503399420BD00F4B6433D5
:100BE000994207D00D4B7833994203D00B4B8C338D
:100BF000994207D10A4901EB8201C1660849403197
:100C0000016706E0074901EB8201C16605494031F1
:100C10000167012191404167704700000854025864
:100C20000059025800090240014610B500208B69A6
:100C30004FF0C0748A6A002B0ED0B3F5005F1AD053
:100C400062B3012A2AD0022A28D0032A03D1C96A12
:100C5000C90100D5012010BD1AB1012A06D0022A0F
:100C6000F9D1C96AC901F6D5012010BDC96AA142EE
:100C7000FBD1012010BD52B1012A0AD0022A06D0B0
:100C8000032AF7D1C96AA142F4D1012010BD012085
:100C900010BDC96AC901FBD5012010BD012010BDDE
:100CA0002DE9F04F856D8A4E894FDFF824C2A836B2
:100CB000DFF81C82DFF818920CF1180CDFF810A294
:100CC00008F13008DFF808B209F1480904680AF1B0
:100CD000600A0BF1780BBC426DD064456BD0444583
:100CE00069D04C4567D0544565D05C4563D0DFF88A
:100CF000E0E10EF1900E74455DD0B4425BD0DFF8B8
:100D0000D4E1744557D0DFF8CCE10EF1180E7445EC
:100D100051D0DFF8C0E10EF1300E74454BD0DFF852
:100D2000B4E10EF1480E744545D0DFF8A8E10EF1AC
:100D3000600E74453FD0DFF89CE10EF1780E7445EB
:100D400039D0DFF890E10EF1900E744533D0DFF822
:100D500084E10EF1A80E74452DD0DFF87CE17445D6
:100D600029D0DFF874E10EF1140E744523D0DFF8BA
:100D700068E10EF1280E74451DD0DFF85CE10EF13C
:100D80003C0E744517D0DFF850E10EF1500E74455B
:100D900011D0DFF844E10EF1640E74450BD0DFF89A
:100DA00038E10EF1780E744505D0DFF82CE10EF134
:100DB0008C0E744509D1D0E919E4CEF80440C46E14
:100DC0001CB1D0E91CE4CEF804400468BC422ED02B
:100DD00064452CD044452AD04C4528D0544526D0D3
:100DE0005C4524D03A4F9037BC4220D0B4421ED04C
:100DF000384EB4421BD0374E1836B44217D0354E59
:100E00003036B44213D0334E4836B4420FD0314E50
:100E10006036B4420BD02F4E7836B44207D02D4EF8
:100E20009036B44203D02B4EA836B4421BD190F872
:100E30005C4004F01F063F24B440AC6004682568A1
:100E400025F480252560046863608368402B05D005
:100E5000036899600068C260BDE8F08F03689A601B
:100E60000068C160F8E71C4EB4421BD01A4E14361D
:100E7000B44217D0184E2836B44213D0164E3C3622
:100E8000B4420FD0144E5036B4420BD0124E6436DA
:100E9000B44207D0104E7836B44203D00E4E8C3692
:100EA000B442D9D190F85C4004F01F060124B4404C
:100EB0006C60046863608368402B04D003689960A9
:100EC0000068C260C8E703689A600068C160C3E751
:100ED000100002401004024008540258704772B6D5
:100EE000FEE70000F0B40C460025012802D00228DD
:100EF00004D101E0424901E041499839FF2601F857
:100F0000086F4E70FE268E702726CE7083260E71D7
:100F10002A264E7106268E7100EB8000061FCE71C8
:100F200026780E722688360A4E7216788E721688C9
:100F3000360ACE721E780E731E88360A4E73C61E8F
:100F40008E73A678CE736688360A0E7496784E74C1
:100F50005688360A8E749E78CE745E88360A0E7570
:100F6000861E4E7526798E75A688360ACE75167938
:100F70000E769688360A4E761E798E769E88360ACA
:100F8000CE76461E0E77A6794E77E688360A8E779D
:100F90009679CE77D688360A81F820609E7981F8D6
:100FA0002160DE88360A81F8226081F82300207AE9
:100FB00081F824002089000A81F82500107A81F840
:100FC00026001089000A81F82700187A81F8280085
:100FD0001889000A81F82900083902200A18127AB3
:100FE0002A44D5B2401CC0B22928F7D9E84381F879
:100FF000320051F8080BF0BC2B2204F0BDB8000001
:101000000865002400220D2813D2DFE800F0120743
:10101000070709090C0C0C0E0E111100134908E00A
:101020001249983105E0124903E01149983100E076
:101030001049FF230B724B7288720420C872022081
:101040000873382048730820887302200B181B7A15
:101050001A44D2B2401CC0B20628F7D9D043C87394
:1010600051F8080B082204F087B800001062002431
:1010700040630024A06500242DE9F84F044601F0E8
:1010800093FB00905CB194F83500022809D08020D1
:101090006065002084F834000120BDE8F88F01204D
:1010A000FBE7D14ED04FD0491836DFF83C833037BC
:1010B000DFF83493DFF830A308F14808DFF828B3ED
:1010C00009F1600920680AF1780A0BF1900B884257
:1010D0002ED0B0422CD0B8422AD0404528D0484526
:1010E00026D0504524D0584522D0BF4AA83290423D
:1010F0001ED0BE4A90421BD0BC4A1832904217D034
:10110000BA4A3032904213D0B84A483290420FD097
:10111000B64A603290420BD0B44A7832904207D03F
:10112000B24A9032904203D0B04AA83290420AD1DB
:10113000026822F01E0202602068426922F08002EA
:101140004261256804E0026822F00E020260256810
:10115000206888424DD0B0424BD0B84249D040457B
:1011600047D0484545D0504543D0584541D09E4A88
:10117000A83290423DD09D4A90423AD09B4A1832C4
:10118000904236D0994A3032904232D0974A483213
:1011900090422ED0954A603290422AD0934A7832BB
:1011A000904226D0914A9032904222D08F4AA83263
:1011B00090421ED08E4A90421BD08D4A14329042EB
:1011C00017D08B4A2832904213D0894A3C32904241
:1011D0000FD0874A503290420BD0854A64329042F9
:1011E00007D0834A7832904203D0814A8C329042B1
:1011F00004D1206E026822F4807202607A4920686D
:1012000088422ED0B0422CD0B8422AD0404528D0B7
:10121000484526D0504524D0584522D07249A8319F
:1012200088421ED0714988421BD0704918318842CB
:1012300017D06E493031884213D06C49483188420A
:101240000FD06A49603188420BD0684978318842B2
:1012500007D066499031884203D06449A83188425A
:1012600004D1016821F00101016013E0016821F05F
:10127000010101600EE001F097FA0099401A05287B
:1012800008D92020343420620320607000202070B0
:10129000012002E72868C007EDD1534A01212068E8
:1012A00090422ED0B0422CD0B8422AD0404528D00F
:1012B000484526D0504524D0584522D04A4BA83323
:1012C00098421ED0494B98421BD0484B1833984245
:1012D00017D0464B3033984213D0444B4833984292
:1012E0000FD0424B603398420BD0404B783398423A
:1012F00007D03E4B9033984203D03C4BA8339842E2
:1013000008D1A06D94F85C3003F01F053F23AB407B
:10131000836007E0A06D94F85C3003F01F0301FACE
:1013200003F34360206890424DD0B0424BD0B842A6
:1013300049D0404547D0484545D0504543D0584511
:1013400041D0294AA83290423DD0284A90423AD012
:10135000264A1832904236D0244A3032904232D057
:10136000224A483290422ED0204A603290422AD0FF
:101370001E4A7832904226D01C4A9032904222D0A7
:101380001A4AA83290421ED0194A90421BD0184ADD
:101390001432904217D0164A2832904213D0144A81
:1013A0003C3290420FD0124A503290420BD0104A39
:1013B0006432904207D00E4A7832904203D00C4AF1
:1013C0008C3290420BD1D4E919205060E06E30B1DC
:1013D000026822F480720260D4E91C205060343428
:1013E00061700020207058E6100002401004024096
:1013F000085402582DE9F05F002808D090F8351005
:10140000022906D0802141650120BDE8F09F01201E
:10141000FBE7A14AA04BA04C18329F4D30339E4EA3
:101420004834DFF874B26035DFF870C27836DFF820
:101430006C82DFF868920CF1300CDFF860A208F1E2
:101440006008016809F17809944F0AF1900A59453A
:1014500031D091422FD099422DD0A1422BD0A94218
:1014600029D0B14227D0DFF830E20EF1900E71455D
:1014700021D0DFF824E20EF1A80E71451BD0DFF871
:101480001CE2AEF1180E714515D0B94213D0DFF849
:101490000CE20EF1180E71450DD061450BD0DFF84E
:1014A000FCE10EF1480E714505D0414503D0494598
:1014B00001D0514537D14FF0040E80F835E0594541
:1014C00027D0914225D0994223D0A14221D0A942D0
:1014D0001FD0B1421DD070489030814219D06E4863
:1014E000A830814215D06D481838814211D0B942D8
:1014F0000FD06A48183081420BD0614509D0674847
:101500004830814205D0414503D0494501D051457D
:1015100004D1086820F001000860BAE0086820F0F3
:1015200001000860B5E0D1F800E02EF00E0EC1F821
:1015300000E00168DE46594531D091422FD09942F2
:101540002DD0A1422BD0A94229D0B14227D0DFF81B
:1015500048B10BF1900B594521D0DFF83CB10BF1AC
:10156000A80B59451BD0DFF834B1ABF1180B594526
:1015700015D0B94213D0DFF824B10BF1180B59453F
:101580000DD061450BD0DFF814B10BF1480B594574
:1015900005D0414503D0494501D0514506D1D1F888
:1015A00000B02BF0010BC1F800B005E0D1F800B09D
:1015B0002BF0010BC1F800B001684FF0010B714531
:1015C00046D0914244D0994242D0A14240D0A94253
:1015D0003ED0B1423CD0304A9032914238D02E4A6F
:1015E000A832914234D02D4A183A914230D0B942B3
:1015F0002ED02A4A183291422AD0614528D0274A53
:101600004832914224D0414522D0494520D051450D
:101610001ED0234A91421BD0214A1432914217D046
:101620001F4A2832914213D01D4A3C3291420FD0BA
:101630001B4A503291420BD0194A6432914207D072
:10164000174A7832914203D0154A8C32914218D110
:10165000016E0A6822F480720A60816D90F85C2045
:1016600002F01F020BFA02F24A60D0E91921516020
:10167000C16E31B10A6822F480720A60D0E91C217F
:10168000516080F835B0002180F83410016D01B14F
:1016900088470020B9E600001000024028040240FC
:1016A00008540258406D70472DE9FF5F0446002042
:1016B00001904FF41651FD480068B0FBF1F0009026
:1016C000A56D2E682968FA4FDFF8E4B3DFF8E083F0
:1016D000DFF8DC930BF1180BDFF8D4A308F1300826
:1016E000206809F148090AF1600AB8423BD05A461D
:1016F000904238D0404536D0484534D0504532D05D
:10170000EB4A783290422ED0E94A903290422AD069
:10171000E74AA832904226D0E64A904223D0E54AD2
:10172000183290421FD0E34B303398421BD0E14B2C
:101730004833984217D0DFF87CC30CF1600C604549
:1017400011D0DFF870C30CF1780C60450BD0DFF8D6
:1017500064C30CF1900C604505D0DFF858E30EF13E
:10176000A80E70457ED194F85C10082301F01F018B
:1017700003FA01F232424BD0B84232D0584530D051
:1017800040452ED048452CD050452AD0C849783104
:10179000884226D0C6499031884222D0C449A83117
:1017A00088421ED0C34988421BD0C24918318842A2
:1017B00017D0C0493031884213D0BE4948318842E1
:1017C0000FD0BC49603188420BD0BA497831884289
:1017D00007D0B8499031884203D0B649A831884231
:1017E00003D1016801F0040102E0016801F0080181
:1017F00071B1016821F00401016094F85C0000F00F
:101800001F0003FA00F2AA60606D40F001006065FD
:1018100094F85C00012100F01F008140314240D06B
:101820002068B84234D0584532D0404530D0484581
:101830002ED050452CD09E4A7832904228D09C4AD7
:101840009032904224D09A4AA832904220D0994AAD
:1018500090421DD0974A1832904219D0954A3032A2
:10186000904200E0D2E113D0924A483290420FD029
:10187000904A603290420BD08E4A7832904207D024
:101880008C4A9032904203D08A4AA83290427DD14D
:10189000406910F0800F04D0A960606D40F0020034
:1018A000606594F85C00042100F01F008140314223
:1018B0003ED02068B84232D0584530D040452ED076
:1018C00048452CD050452AD0794A7832904226D0CB
:1018D000774A9032904222D0754AA83290421ED068
:1018E000744A90421BD0734A1832904217D0714A02
:1018F0003032904213D06F4A483290420FD06D4A36
:10190000603290420BD06B4A7832904207D0694ADD
:101910009032904203D0674AA83290424ED100687C
:1019200010F0020F04D0A960606D40F00400606503
:1019300094F85C00102100F01F008140314260D01B
:101940002068B84234D0584532D0404530D0484560
:101950002ED050452CD0564A7832904228D0544A46
:101960009032904224D0524AA832904220D0514A1C
:1019700090421DD04F4A1832904219D04D4A303211
:10198000904215D04B4A4832904200E014E00FD00C
:10199000484A603290420BD0464A7832904207D093
:1019A000444A9032904203D0424AA832904207D132
:1019B000006800F0080006E0006872E70068B7E71A
:1019C000006800F0040058B1A9602068016849036C
:1019D0000CD50068000304D4216C09B12046884767
:1019E0000FE0A16C69B1204688470AE00168C9058B
:1019F00003D4016821F008010160216C09B120467F
:101A0000884794F85C00202100F01F00814031429B
:101A10007BD02068B84232D0584530D040452ED0D7
:101A200048452CD050452AD0214A7832904226D0C1
:101A30001F4A9032904222D01D4AA83290421ED0B6
:101A40001C4A90421BD01B4A1832904217D0194AA8
:101A50003032904213D0174A483290420FD0154A84
:101A6000603290420BD0134A7832904207D0114A2C
:101A70009032904203D00F4AA832904203D10068BE
:101A800000F0100002E0006800F00200E8B3A96076
:101A900094F83500042812D02068016849033DD528
:101AA0000068000335D4616C79B305E0240000249C
:101AB0001000024010040240204688473FE02068A2
:101AC000016821F0160101602068416921F0800160
:101AD0004161206C08B9A06C20B12068016821F038
:101AE0000801016094F85C0000F01F013F2088406D
:101AF000A860012084F83500002084F83400216DAE
:101B0000002974D004B0204600E018E0BDE8F05F82
:101B10000847E16B99B12046884710E00168C90584
:101B200009D4016821F010010160012084F835001A
:101B3000002084F83400E16B09B120468847606DCD
:101B4000002854D0606DC00758D0042084F83500B8
:101B50002068B84231D058452FD040452DD0484557
:101B60002BD0504529D0B749884226D0B5491831E5
:101B7000884222D0B349303188421ED0B2498842CF
:101B80001BD0B1491831884217D0AF493031884253
:101B900013D0AD49483188420FD0AB4960318842FB
:101BA0000BD0A9497831884207D0A74990318842A3
:101BB00003D0A549A831884204D1016821F0010170
:101BC000016003E0016821F00101016021680198D2
:101BD000009A401C0190904202D80868C007F6D1D4
:101BE0000868C00704D0032084F8350003E087E0CC
:101BF000012084F83500002084F83400E16C0029CD
:101C00007ED004B02046BDE8F05F08478F4EB0425A
:101C10001BD08E4E1436B04217D08C4E2836B042B0
:101C200013D08A4E3C36B0420FD0884E5036B04268
:101C30000BD0864E6436B04207D0844E7836B04220
:101C400003D0824E8C36B0425AD106684FF0040E53
:101C500094F85CB00BF01F0B0EFA0BFE1EEA010F9E
:101C6000CDF80CE05ED05FEA467E5BD503986860F5
:101C7000300411D5F00307D4A16C002940D004B082
:101C80002046BDE8F05F0847216C002938D004B039
:101C90002046BDE8F05F0847B0063BD42068B84254
:101CA0002DD068496039884229D0404527D0484521
:101CB00025D0504523D06349884220D0614918314E
:101CC00088421CD05F493031884218D05E49884232
:101CD00015D0904213D05C49303188420FD09842E1
:101CE0000DD059496031884209D05749783188422E
:101CF00005D0604503D05449A831884206D100E0A0
:101D00007CE0016821F00801016003E0016821F036
:101D100004010160216C002970D004B02046BDE8A8
:101D2000F05F08474FF0020E0EFA0BFE1EEA010F9D
:101D3000CDF808E063D05FEA867E60D502986860DF
:101D4000300411D5F00307D4616C002978D004B0B9
:101D50002046BDE8F05F0847E16B002970D004B071
:101D60002046BDE8F05F0847B0063FD42068B8427F
:101D70002DD034496039884229D0404527D0484584
:101D800025D0504523D02F49884220D02D491831E5
:101D900088421CD02B493031884218D02A498842C9
:101DA00015D0904213D02849303188420FD0984244
:101DB0000DD025496031884209D0234978318842C5
:101DC00005D0604503D02049A831884204D101687C
:101DD00021F01401016003E0016821F00A010160B3
:101DE000012084F83500002084F83400E16B0029DC
:101DF00026D004B02046BDE8F05F084720E0082266
:101E000002FA0BF20A421BD0310719D5016821F002
:101E10000E01016094F85C0000F01F01012000FA3F
:101E200001F16960606584F83500002084F83400B1
:101E3000E16C002904D004B02046BDE8F05F0847FB
:101E4000BDE8FF9F88000240100402400854025879
:101E50002DE9F05F044600F0A7FC0646002C7DD07B
:101E6000F44F0222DFF8CC830025DFF8C893DFF8B7
:101E7000C4A308F13008DFF8BCB309F148092068B1
:101E80000AF1600A0BF1780BB84232D0E9491831F7
:101E900088422ED040452CD048452AD0504528D0E5
:101EA000584526D0E3499031884222D0E149A831F3
:101EB00088421ED0E04988421BD0DF491831884251
:101EC00017D0DD493031884213D0DB494831884290
:101ED0000FD0D949603188420BD0D7497831884238
:101EE00007D0D5499031884203D0D349A8318842E0
:101EF0007ED184F8352084F83450B84234D0CD49AE
:101F00001831884230D040452ED048452CD050451D
:101F10002AD0584528D0C7499031884224D0C54995
:101F2000A831884220D0C44988421DD0C249183106
:101F3000884219D0C0493031884215D0BE49483155
:101F4000884211D0BC49603188420DD0BA497831FD
:101F5000884209D0B8499031884200E009E003D0B6
:101F6000B549A831884207D1016821F0010101601B
:101F700013E00120BDE8F09F016821F0010101603C
:101F80000BE000F011FC801B052806D920206065BD
:101F9000032084F835000120ECE720680068C007C2
:101FA000EFD122681168A5480140D4E90203184323
:101FB000D4E9043633431843A3691843E36918434B
:101FC000236A18430843616A042903D1D4E90B1337
:101FD000194308439A4909686FF30F01B1F1005F93
:101FE00011D36168A1F12903052B0AD9163B00E042
:101FF0002EE0032B05D9083B012B02D94F390329C9
:1020000001D840F4801010602068406920F007017A
:10201000606A40EA010604280DD1A06A0643E06A1E
:1020200048B12046FEF700FE28B14020606501203F
:1020300084F835009EE7206846612046FEF706FDDD
:1020400094F85C1001F01F023F219140816066E02E
:102050007C4988421BD07B4B1433984217D0794B74
:102060002833984213D0774B3C3398420FD0754BAE
:10207000503398420BD0734B6433984207D0714B66
:102080007833984203D06F4B8C3398427ED188428C
:1020900011D06C49143188420DD06A4928318842E8
:1020A00009D068493C31884205D0664950318842A0
:1020B00001D06449643184F8352084F834500268D2
:1020C00061490A40A16840297ED080297DD0002145
:1020D000E36841EAD301236941EAD301636941EA34
:1020E000D301A36941EAD301E36941EAD301236A39
:1020F00041EA1311114301605249206849420844E2
:102100001421B0FBF1F08000E0652046FEF79EFC54
:1021100094F85C1001F01F02012191404160206899
:10212000B84256D043491831884252D0404550D029
:1021300048454ED050454CD058454AD03D49903145
:10214000884246D03B49A831884242D03A49884229
:102150003FD03949183188423BD037493031884225
:1021600037D035494831884233D0334960318842CD
:102170002FD03149783188422BD02F499031884275
:1021800027D02D49A831884223D000E02DE02D49E9
:1021900088421ED02B49143188421AD0294928314F
:1021A000884216D027493C31884212D02549503107
:1021B00088420ED02349643188420AD021497831BF
:1021C000884206D01F4901E00AE00BE08C318842CA
:1021D00029D12046FEF79AFCA06880280CD00CE09C
:1021E000102175E74FF4804172E7402060650320BD
:1021F00084F835000120BDE66560216E2079086015
:10220000D4E9191048606068401E072808D82046A5
:10221000FEF7CCFCE06E0560D4E91C10486002E0DB
:10222000E566256765676565012084F8350000204F
:10223000A0E6000010000240100402403F8010FEA3
:102240000010005C085402580F00FEFF2DE9F84F03
:10225000044600200090002C15D094F8340001288A
:1022600013D0012084F8340094F835500020012D5B
:102270000DD04FF40061616584F8340001200090B6
:102280000098BDE8F88F0120FBE70220F9E702255E
:1022900084F835506065A54DA44EA44F1835DFF87D
:1022A0008CC23036DFF884824837DFF88092DFF85E
:1022B0007CA208F16008DFF874B209F1780920689F
:1022C0000AF1900A0BF1A80B60453BD0A84239D027
:1022D000B04237D0B84235D0404533D0484531D0F0
:1022E00050452FD058452DD0DFF844C2604529D045
:1022F000DFF83CC20CF1180C604523D0DFF830C287
:102300000CF1300C60451DD0DFF824C20CF1480CF4
:10231000604517D0DFF818C20CF1600C604511D091
:10232000DFF80CC20CF1780C60450BD0DFF800C26E
:102330000CF1900C604505D0DFF8F4C10CF1A80C4D
:10234000604506D1D0F800C02CF0010CC0F800C0E8
:1023500005E0D0F800C02CF0010CC0F800C0204609
:10236000FEF79EFC7149206888422CD0A8422AD0F2
:10237000B04228D0B84226D0404524D0484522D08B
:10238000504520D058451ED0694A90421BD0684A1B
:102390001832904217D0664A3032904213D0644AC5
:1023A000483290420FD0624A603290420BD0604A6D
:1023B0007832904207D05E4A9032904203D05C4A15
:1023C000A83290420DD1026822F01E0242F016029D
:1023D0000260206C90B12068026842F0080202603E
:1023E0000CE0026822F00E0242F00A020260206C49
:1023F00020B12068026842F004020260206888422E
:102400004BD0A84249D0B04247D0B84245D0404511
:1024100043D0484541D050453FD058453DD0444A2F
:1024200090423AD0424A1832904236D0404A303236
:10243000904232D03E4A483290422ED03C4A6032DE
:1024400090422AD03A4A7832904226D0384A903286
:10245000904222D0364AA83290421ED0354A90424D
:102460001BD0344A1432904217D0324A283290425C
:1024700013D0304A3C3290420FD02E4A5032904214
:102480000BD02C4A6432904207D02A4A78329042CC
:1024900003D0284A8C3290420DD1206E0268D203BC
:1024A00003D5026842F480720260E06E18B10268DF
:1024B00042F480720260206888422CD0A8422AD060
:1024C000B04228D0B84226D0404524D0484522D03A
:1024D000504520D058451ED0154988421BD014497C
:1024E0001831884217D012493031884213D0104930
:1024F000483188420FD00E49603188420BD00C49D8
:102500007831884207D00A499031884203D008497F
:10251000A831884204D1016841F001010160AFE6B1
:10252000016841F001010160AAE6000010000240CC
:10253000100402400854025870B5044600F034F903
:102540000546601C02D004480078044400F02CF9D1
:10255000401BA042FAD370BD180000242DE9F84FAB
:1025600000227B4D03264FF001080F274FF0B04C9F
:10257000E6E008FA02F31C409A46002C7ED00B7964
:1025800003F00303012B01D0022B1BD1D0F80890DC
:10259000530006FA03FB29EA0B09D1F80CB00BFA39
:1025A00003FB4BEA090BC0F808B0436823EA0A03AF
:1025B00091F80490C9F3001909FA02F949EA0309EC
:1025C000C0F804900B79DB439B070ED0D0F80C9039
:1025D000530006FA03FA29EA0A09D1F808A00AFA10
:1025E00003FA4AEA090AC0F80CA00B7903F00303C6
:1025F000022B14D1D30800EB8303D3F820A04FEAB9
:1026000042794FEAD96907FA09FB2AEA0B0AD1F89D
:1026100010B00BFA09FB4BEA0A0BC3F820B0D0F854
:102620000090530006FA03FA29EA0A0991F804A077
:102630000AF0030A0AFA03FA4AEA090AC0F800A0F3
:102640004B6813F4403F7AD0424BD3F8009049F0E6
:102650000209C3F800901B6803F00203009322F004
:10266000030909F1B049D9F808B493074FEA137A7E
:1026700007FA0AF32BEA030B374B00E05FE09842BE
:1026800001D100232DE0354B984201D1012328E0F0
:10269000334B984201D1022323E0324B984201D1BF
:1026A00003231EE0304B984201D1042319E02F4B45
:1026B000984201D1052314E02D4B984201D1062305
:1026C0000FE02C4B984201D107230AE02A4B984295
:1026D00001D1082305E0294B984201D1092300E0EC
:1026E0000A2303FA0AF343EA0B03C9F80834DCF8B7
:1026F0000030A343D1F804905FEAC92900D52343F1
:10270000CCF80030DCF80430A343D1F804905FEA41
:10271000892900D52343CCF804306B68A343D1F852
:1027200004905FEA893900D523436B602B68A3438B
:10273000D1F804905FEAC93900D523432B60521CBD
:102740000C6834FA02F37FF414AFBDE8F88F000090
:1027500080000058F4440258000002580004025857
:1027600000080258000C02580010025800140258C9
:1027700000180258001C0258002002580024025879
:102780000069084201D00120704700207047002AEC
:1027900001D0816170470904816170470148006878
:1027A000000C70470010005C014880687047000012
:1027B0001800002410B50446002C03D0D4F884007F
:1027C00010B107E0012010BD002084F880002046F1
:1027D00002F03AFA2420C4F884002068016821F04D
:1027E00001010160204603F0A7FC01281DD0A06A6A
:1027F00010B1204603F010FB2068416821F490419D
:1028000041602068816821F0220181602068816830
:1028100041F0080181602068016841F00101016018
:102820002046BDE8104003F05BBB012010BD000056
:1028300002488168027811448160704718000024C2
:1028400010B5032000F0AEF801F004F90F490A6852
:10285000C2F303230E4AD35C03F01F03D840096878
:1028600001F00F01515C0B4A01F01F0120FA01F148
:102870001160094908600F2000F010F808B101202C
:1028800010BD00F04FF8002010BD000018440258A1
:102890006C7A0008280000242400002410B58AB0B7
:1028A0000446102C2DD200222146762000F05AF842
:1028B000762000F049F8164804601648016841F493
:1028C00080210160006800F48020009001A902A826
:1028D00001F04AF801F0ACF840000F49B0FBF1F10B
:1028E000491E0F480D4A026040F2E732C260416063
:1028F00000210161816001F0F9FC20B101200AB0E2
:1029000010BD0120FBE7064801F04CFDF7E7000091
:102910001C000024F044025840420F0000480140CF
:10292000D424002482B00748016841F0020101600C
:10293000006800F00200019000220F21901E02B0FA
:1029400000F010B8F4440258002809DB012100F01F
:102950001F0291404009800000F1E020C0F8001102
:1029600070470000F0B40D460D4B1B68C3F3022303
:10297000C3F10704042C00D90424191D072901D22E
:10298000002300E0DB1E012606FA04F1491E29405F
:1029900099409E40761E16403143F0BC04F002BAC6
:1029A0000CED00E000F00701054A10684FF6FF0348
:1029B000184040EA012003490843106070470000B6
:1029C0000CED00E00000FA0570B514490A68D24326
:1029D000520708D5096801F00701814201D00120A2
:1029E00070BD002070BD0A6822F0070202430A6031
:1029F000FFF7DAFE0446094D4FF47A76083D06E00B
:102A0000FFF7D2FE001BB04201D9012070BD28683B
:102A1000C0438004F4D4002070BD00000C4802586C
:102A200010B500F0D1FF05490968054AC1F302114C
:102A3000515C01F01F01C84010BD00002044025845
:102A40006C7A000810B569490A6802F00302096847
:102A5000C1F30531654B1B1D1B68C3F30013634CA9
:102A600014342468C4F3CC0414FB03F300EE103ACE
:102A7000B8EE400A002971D09FED5D1A5B4BF7EE6E
:102A8000000A1033F2B39FED5B2A012A7FD0022A9D
:102A90007CD001EE901A1968F8EE611AC2EE212A74
:102AA000C1F3080101EE901AF8EE611A40EE011A26
:102AB00031EEA00A22EE800A1968C1F3462101EE28
:102AC000101AB8EE411A31EE201AC0EE011ABCEE0F
:102AD000E11A80ED001A1968C1F3064101EE101ADF
:102AE000B8EE411A31EE201AC0EE011ABCEEE11A1E
:102AF00080ED011A1968C1F3066101EE101AB8EEF3
:102B0000411A00E008E071EE200A80EE201ABCEEC7
:102B1000C10A80ED020A10BD344A283A1468A4069E
:102B20001ED51268C2F3C104334AE24001EE902A76
:102B3000F8EE612A01EE901A1968F8EE611A82EE39
:102B4000A12AC1F3080101EE901AF8EE611A40EED5
:102B5000011A31EEA00A22EE000AADE741E016E0CC
:102B600001EE901ADFED252A1968F8EE611A82EE5F
:102B7000A12AC1F3080101EE901AF8EE611A40EEA5
:102B8000011A31EEA00A22EE000A95E713E001EEE9
:102B9000901A1968F8EE611AC2EE212AC1F30801F1
:102BA00001EE901AF8EE611A40EE011A31EEA00A19
:102BB00022EE800A80E701EE901ADFED112A1968F3
:102BC000F8EE611A82EEA12AC1F3080101EE901A13
:102BD000F8EE611A40EE011A31EEA00A22EE000A68
:102BE0006AE7002101604160816010BD28440258FD
:102BF000000000390024744A0090D0030024744C73
:102C000020BCBE4B10B569490A6802F0030209688E
:102C1000C1F30551654B1B1D1B68C3F30023634CB7
:102C20001C342468C4F3CC0414FB03F300EE103A04
:102C3000B8EE400A002971D09FED5D1A5B4BF7EEAC
:102C4000000A1833F2B39FED5B2A012A7FD0022AD3
:102C50007CD001EE901A1968F8EE611AC2EE212AB2
:102C6000C1F3080101EE901AF8EE611A40EE011A64
:102C700031EEA00A22EE800A1968C1F3462101EE66
:102C8000101AB8EE411A31EE201AC0EE011ABCEE4D
:102C9000E11A80ED001A1968C1F3064101EE101A1D
:102CA000B8EE411A31EE201AC0EE011ABCEEE11A5C
:102CB00080ED011A1968C1F3066101EE101AB8EE31
:102CC000411A00E008E071EE200A80EE201ABCEE06
:102CD000C10A80ED020A10BD344A283A1468A406DD
:102CE0001ED51268C2F3C104334AE24001EE902AB5
:102CF000F8EE612A01EE901A1968F8EE611A82EE78
:102D0000A12AC1F3080101EE901AF8EE611A40EE13
:102D1000011A31EEA00A22EE000AADE741E016E00A
:102D200001EE901ADFED252A1968F8EE611A82EE9D
:102D3000A12AC1F3080101EE901AF8EE611A40EEE3
:102D4000011A31EEA00A22EE000A95E713E001EE27
:102D5000901A1968F8EE611AC2EE212AC1F308012F
:102D600001EE901AF8EE611A40EE011A31EEA00A57
:102D700022EE800A80E701EE901ADFED112A196831
:102D8000F8EE611A82EEA12AC1F3080101EE901A51
:102D9000F8EE611A40EE011A31EEA00A22EE000AA6
:102DA0006AE7002101604160816010BD284402583B
:102DB000000000390024744A0090D0030024744CB1
:102DC00020BCBE4B2DE9F84F044600250026FB4FE2
:102DD0002068DFF8EC83010104F1240000900DD598
:102DE000606EB0B1B0F5801F18D0B0F5001F1BD0D9
:102DF000B0F5401F00D00125E5B12E462088C00562
:102E000035D5606D05282FD2DFE800F01D22282F70
:102E10002F00386840F400303860EDE70221201DB3
:102E200002F080FC0546E7E70098022102F00CFD65
:102E30000546E1E7D8F80000616E20F44010084331
:102E4000C8F80000DAE7386840F4003038600CE079
:102E50000021201D02F066FC054606E000980021D6
:102E600002F0F2FC054600E001255DB12E46208807
:102E7000800518D5A06D802830D00CDC18B3402810
:102E80000ED125E0D8F80000616D20F0070008435E
:102E9000C8F80000EBE7C02803D0B0F5807F00D071
:102EA00001250DB32E462088DFF8189340052DD557
:102EB000D4F8A400B0F5800F42D01EDCA0B3B0F56A
:102EC000001F20D136E0386840F400303860E8E771
:102ED0000021201D02F026FC0546E2E700980021B3
:102EE00002F0B2FC0546DCE7D8F80000A16D20F442
:102EF000E0700843C8F80000D5E7B0F5C00F03D074
:102F0000B0F5000F00D0012505B32E46208800053E
:102F10002FD5D4F8A800B0F1007F52D020DCE8B360
:102F2000B0F1807F22D146E0FFE7386840F40030FE
:102F30003860E9E70021201D02F0F4FB0546E3E7D5
:102F40000098002102F080FC0546DDE7D9F800007A
:102F5000D4F8A41020F460000843C9F80000D5E7B5
:102F6000B0F1407F03D0B0F1806F00D0012575B380
:102F70002E46206880010AD5A06C30B1102831D0CF
:102F8000202835D0302800D0012585B32E46208852
:102F9000C00446D5E06DB0F5005F00E006E05BD010
:102FA00036DCA0B3B0F5805F38D14FE0386840F42C
:102FB00000303860DBE70021201D02F0B3FB05463E
:102FC000D5E70098002102F03FFC0546CFE7FFE778
:102FD000D9F80000D4F8A81020F0E0600843C9F840
:102FE0000000C6E7386840F400303860CDE705E0FF
:102FF0000221201D02F096FB0546C6E77048001F1F
:103000000168A26C21F0300111430160BFE718E0B4
:10301000B0F5405F03D0B0F5804F00D001250DB36F
:103020002E46208880042FD5206EB0F5403F29D051
:1030300021DC38B3B0F5803F37D0B0F5003F20D168
:1030400039E0386840F400303860E8E70021201D9E
:1030500002F068FB0546E2E70098002102F0F4FB6D
:103060000546DCE7D8F80000E16D20F4E0400843B5
:10307000C8F80000D5E7B0F5802F03D0B0F5A02F39
:1030800000D00125EDB12E46208840042BD5D4F880
:10309000AC00B0F1405F24D01CDC10B3B0F1805F15
:1030A0004BD0B0F1005F1BD14EE00121201D02F09A
:1030B00039FB0546E6E70098012102F0C5FB05460D
:1030C000E0E7D8F80000216E20F4E0200843C8F8BB
:1030D0000000D9E7B0F1804F03D0B0F1A04F00D08D
:1030E000012585B32E46208800040AD5E06E30B154
:1030F000B0F1805F39D0B0F1005F3BD001259DB3C6
:103100002E462068C0010AD5606C30B1012841D03C
:10311000022844D0032800D001258DB32E46206814
:10312000DFF8A4B0400261D52848016841F48071FD
:103130000160FFF739FB824652E00121201D02F0B9
:10314000F1FA0546CDE705E00098012102F07CFB8D
:103150000546C6E7D9F80000D4F8AC1020F0E040EE
:103160000843C9F80000BEE70BE0386840F40030BF
:103170003860C4E70121201D02F0D4FA0546BEE7FD
:1031800013E0D8F80000E16E20F040500843C8F882
:103190000000B6E7386840F400303860BDE702212F
:1031A000201D02F0BFFA0546B7E70548001F016879
:1031B000626C21F0030111430160B0E72C44025816
:1031C00050440258584402581044025800480258CB
:1031D000FFF7EAFAA0EB0A00642801D9032503E00F
:1031E000FE480068C005F3D57DB12E462078DFF893
:1031F000F0A3C00766D0A06F182861D05BDC80B355
:1032000008286AD010285AD16DE0F5481C300068B3
:10321000B4F8B01000F4407001F4407188420DD051
:10322000EF481C30016821F44071026842F480329A
:103230000260026822F4803202600160D4F8B000BB
:10324000B0F5807F13D1FFF7AFFA82460AE0FFF7AF
:10325000ABFAA0EB0A0141F28830814202D9032582
:1032600005E02DE0DE481C3000688007EFD50DB189
:103270002E46BBE7D4F8B000C0F3012103290FD0DC
:10328000DBF8000020F47C50CBF80000D4481C3060
:103290000168B4F8B020C2F30B0211430160A5E746
:1032A000DBF80010CF4A21F47C51104041EA1010A5
:1032B000CBF80000EAE7202802D0282800D001251A
:1032C000BDB12E46207880072BD5606F062825D209
:1032D000DFE800F025181E2525250121201D02F01C
:1032E00021FA0546ECE70098012102F0ADFA054607
:1032F000E6E7DAF80000A16F20F038000843CAF8CA
:103300000000DFE70121201D02F00CFA054606E06F
:103310000098012102F098FA054600E0012565B108
:103320002E462078400720D5D4F89000062819D2E0
:10333000DFE800F0190C12191919DAF80000616FB2
:1033400020F007000843CAF80000EAE70121201D29
:1033500002F0E8F9054606E00098012102F074FA4F
:10336000054600E001258DB12E462078800620D547
:10337000D4F88C00B0F1405F19D011DCB8B1B0F1D5
:10338000805F27D0B0F1005F10D129E0D9F80000AC
:10339000D4F8901020F007000843C9F80000E4E7D3
:1033A000B0F1804F03D0B0F1A04F00D00125EDB1B6
:1033B0002E46207840062CD5D4F89800B0F5406F02
:1033C00025D01DDC18B3B0F5806F33D0B0F5006F99
:1033D0001CD135E00021201D02F0A4F90546E6E7E6
:1033E0000098022102F030FA0546E0E7DAF8000022
:1033F000D4F88C1020F0E0400843CAF80000D8E769
:10340000B0F5805F03D0B0F5A05F00D00125EDB12D
:103410002E46207800062CD5D4F89C00B0F5C04F7D
:1034200025D01DDC18B3B0F5005F2BD0B0F5804F70
:103430001CD12DE00021201D02F074F90546E6E7BD
:103440000098022102F000FA0546E0E7D9F80000F2
:10345000D4F8981020F4E0500843C9F80000D8E7E9
:10346000B0F5004F03D0B0F5204F00D00125ADB12D
:103470002E46207800072AD5D4F88000B0F5805F6A
:1034800016D01BE00021201D02F04CF90546EEE7A6
:103490000098022102F0D8F90546E8E7D9F80000C3
:1034A000D4F89C1020F460400843C9F80000E0E71D
:1034B0000098022102F0C8F900B10126DAF80000F4
:1034C000D4F8801020F440500843CAF80000207857
:1034D000C00613D5D4F89400B0F5807F05D10098CC
:1034E000022102F0B1F900B10126D9F80000D4F8A8
:1034F000941020F440700843C9F8000020680003CD
:103500000BD5D4F8A000E8B3B0F5803F6DD0B0F58E
:10351000003F00D00125B5B32E46206840030DD5ED
:10352000D4F88400B0F5801F7DD0B0F5001F7BD0AB
:10353000B0F5401F00D0012535B32E462068C003EA
:1035400007D5E06CF0B3B0F5803F6ED00125D5B360
:103550002E462068800005D50098022102F074F9FB
:1035600000B101262068800311D5E06F48B1B0F5A5
:10357000807F6ED0B0F5007F03D0B0F5407F00D0E3
:10358000012502E05FE06BE07FE06DB32E4620682E
:10359000C00207D5D8F80000216F20F00040084392
:1035A000C8F800002068C00008D5DBF80000D4F897
:1035B000B41020F480400843CBF80000206880025B
:1035C0000AD501E06CE076E0D8F80000A16E20F0AA
:1035D00080700843C8F80000206807E000480258DF
:1035E00054440258FFFCFF0F72E033E040000CD55A
:1035F000DBF8000020F40040CBF80000DBF800000E
:10360000D4F8B8100843CBF800002068002806DA88
:1036100035480168226D21F0405111430160206856
:1036200000020CD502E025E029E03EE0DAF80000D7
:10363000D4F8881020F440000843CAF8000076B39C
:103640000120BDE8F88F0021201D02F06BF805462F
:1036500061E738E00098022102F0F6F805465AE7E3
:10366000D9F80000D4F8A01020F440300843C9F87D
:10367000000052E7386840F4003038605CE700989A
:10368000012102F0E1F8054656E7DAF80000D4F827
:10369000841020F440100843CAF800004EE720E0F0
:1036A000386840F40030386051E70221201D02F0F4
:1036B00039F805464BE70C480168E26C21F480318B
:1036C0001143016045E7386840F40030386058E73E
:1036D000DAF80000E16F20F440700843CAF80000F7
:1036E00055E70020ADE700004C4402582DE9F05F9B
:1036F00004460D46002C17D0DFF84C82D8F80000A5
:1037000000F00F00A84211D2D8F8000020F00F00FE
:103710002843C8F80000D8F8000000F00F00A842C5
:1037200004D00120BDE8F09F0120FBE72078874E00
:1037300040070AD52069316801F07001884204D938
:10374000316821F07001014331602078804F00071B
:103750000AD56069396801F07001884204D9396876
:1037600021F07001014339602078C0060AD5A069B4
:10377000396801F4E061884204D9396821F4E061D4
:10378000014339602078DFF8CC9180060DD5E069DF
:10379000D9F8001001F07001884206D9D9F800105C
:1037A00021F070010143C9F80010207880070AD584
:1037B000E068316801F00F01884204D9316821F0D6
:1037C0000F01014331602078C00743D03068A16801
:1037D00020F47060084330605C4960681839022842
:1037E00008D003280BD001280ED00968490710D44F
:1037F000012097E7096889030BD4012092E7096843
:10380000890106D401208DE70968C90501D401208A
:1038100088E7DFF838A1AAF1080ADAF8001021F0E9
:1038200007010143CAF80010FEF7BEFF834609E016
:10383000FEF7BAFFA0EB0B0141F28830814201D9BB
:1038400003206FE7DAF80000616800F03800B0EBA1
:10385000C10FEDD1207880070AD5E068316801F00A
:103860000F01884204D2316821F00F010143316019
:10387000D8F8000000F00F00A8420ED9D8F80000D8
:1038800020F00F002843C8F80000D8F8000000F02E
:103890000F00A84201D0012044E7207840070AD554
:1038A0002069316801F07001884204D2316821F04A
:1038B000700101433160207800070AD560693968DA
:1038C00001F07001884204D2396821F0700101438F
:1038D00039602078C0060AD5A069396801F4E06132
:1038E000884204D2396821F4E061014339602078CC
:1038F00080060DD5E069D9F8001001F0700188420A
:1039000006D2D9F8001021F070010143C9F8001067
:1039100000F0A0F83168C1F303220F498A5C02F07D
:103920001F02D040326802F00F02895C0B4A01F09E
:103930001F0120FA01F11160094908600948006877
:10394000BDE8F05FFEF7AABF0020005218440258FD
:103950001C440258204402586C7A000828000024B5
:10396000240000241C0000243F220260144A126834
:1039700002F007024260124A0832136803F47063CF
:103980008360136803F00F03C360126802F07002D3
:1039900002610B4A0C32136803F070034361126832
:1039A00002F4E0628261064A1032126802F070028C
:1039B000C2610448006800F00F0008607047000012
:1039C000104402580020005200B500F043F80B49A3
:1039D0000A68C2F303230A4AD35C03F01F03D840EA
:1039E000096801F00F01515C064A01F01F0120FA3D
:1039F00001F11160044A1060084600BD18440258E5
:103A00006C7A0008280000242400002400B5FFF789
:103A1000DBFF05490968054AC1F30211515C01F059
:103A20001F01C84000BD00001C4402586C7A000809
:103A300000B5FFF7C9FF05490968054AC1F302212E
:103A4000515C01F01F01C84000BD00001C44025839
:103A50006C7A000830B564480068654C10F0380195
:103A6000624808D0021108290DD010290DD018295C
:103A70000DD0104630BD21688906FBD52168C1F301
:103A8000C101C84030BD104630BD5A4830BD56490E
:103A900018310A6802F003020968C1F30511524B9C
:103AA0001C331B6803F001034F4D24352D68C5F30B
:103AB000CC0515FB03F300EE103AB8EE400A0029DE
:103AC00077D0DFED4D0A484BB7EE001A20333AB3FA
:103AD0009FED4A2A012A58D0022A6CD001EE901A92
:103AE0001868F8EE611AC2EE212AC0F3080001EE50
:103AF000900AF8EE611A40EE201A31EE810A22EEA9
:103B0000800A1868C0F34620401C00EE900AF8EEC8
:103B1000600A80EE201ABCEEC10A10EE100A30BD19
:103B2000226892061BD52268C2F3C102D04001EE82
:103B3000900A1868F8EE612A01EE901AF8EE611A00
:103B400082EEA12AC0F3080001EE900AF8EE611A95
:103B500040EE201A31EE810A22EE000AD1E701EE92
:103B6000901ADFED272A1868F8EE611A82EEA12A72
:103B7000C0F3080001EE900AF8EE611A40EE201A38
:103B800031EE810A22EE000ABBE701EE901A1868B6
:103B9000F8EE611AC2EE212AC0F3080001EE900A85
:103BA000F8EE611A40EE201A31EE810A22EE800A08
:103BB000A7E716E0FFE701EE901ADFED122A18687A
:103BC000F8EE611A82EEA12AC0F3080001EE900A15
:103BD000F8EE611A40EE201A31EE810A22EE000A58
:103BE0008FE7002030BD0000104402580090D00341
:103BF0000044025840787D01000000390024744AD6
:103C00000024744C20BCBE4B2DE9F05F0446002C10
:103C100010D02078DFF8F883FE4FFF4DC0075DD04D
:103C2000D8F8000000F03800396810281FD0182894
:103C300003D006E00120BDE8F09F01F00300022858
:103C400015D06068B0F5803F18D0E0B1B0F5A02F76
:103C500022D0286820F480302860286820F4802052
:103C60002860606860B3FEF79FFD064624E0286880
:103C7000800333D5606810BB0120DCE7286840F47E
:103C800080302860EDE7286820F4803028602868BC
:103C900020F480202860E4E7286840F48020286031
:103CA000286840F480302860DBE7FEF77DFD801B4C
:103CB000642801D90320BEE728688003F5D50DE00C
:103CC000FEF772FD064606E0FEF76EFD801B6428D7
:103CD00001D90320AFE728688003F5D4207841F2AA
:103CE000030ACE4E80073DD5D8F8000000F038001A
:103CF000396870B1182801D188070AD0E06890B3FC
:103D0000296821F0190101432960FEF74DFD814624
:103D100041E02868400701D5E06848B12868E168BB
:103D200020F0190008432860FEF73EFD814609E0B7
:103D3000012080E7FEF738FDA0EB0900022801D939
:103D4000032078E728684007F4D5FEF727FD5045A3
:103D500011D82069402807D0316821F47C3141EA2C
:103D6000003030604AE036E0306820F47C3040F4C7
:103D70000030306042E03068217C20F0FE4040EAB4
:103D8000016030603AE0FEF70FFDA0EB0900022869
:103D900001D903204FE728684007F4D5FEF7FEFC61
:103DA000504510D82069402806D0316821F47C3174
:103DB00041EA0030306021E0306820F47C3040F48B
:103DC000003030601AE03068217C20F0FE4040EA8C
:103DD0000160306012E0286820F001002860FEF7E2
:103DE000E3FC814607E0FEF7DFFCA0EB09000228B8
:103DF00001D903201FE728684007F4D42078C006C3
:103E00002FD5D8F8000000F038003968DFF800B28C
:103E10000828ABF1040B0FD0182803D101F00300E0
:103E2000012809D0E06978B3286840F08000286054
:103E3000FEF7BAFC814630E02868C00504D5E06989
:103E4000802801D00120F6E6FEF7A8FC504510D8E6
:103E5000206A202806D0316821F0F84141EA8060CC
:103E600030604FE0306820F0F84040F08040306033
:103E700048E0DBF8000094F8201020F07C5040EA85
:103E80000160CBF800003DE02AE0FEF78DFCA0EBDE
:103E90000900022801D90320CDE62868C005F4D521
:103EA000FEF77CFC504510D8206A202806D03168E7
:103EB00021F0F84141EA8060306023E0306820F072
:103EC000F84040F0804030601CE0DBF8000094F8DF
:103ED000201020F07C5040EA0160CBF8000011E097
:103EE000286820F080002860FEF75EFC064606E0A9
:103EF000FEF75AFC801B022801D903209BE62868A4
:103F0000C005F5D42078000730D5DFF80891606946
:103F100009F14C09A8B1D9F8000040F00100C9F836
:103F20000000FEF741FC064606E0FEF73DFC801B64
:103F3000022801D903207EE6D9F800008007F4D5D5
:103F400014E0D9F8000020F00100C9F80000FEF7E5
:103F50002BFC064606E0FEF727FC801B022801D951
:103F6000032068E6D9F800008007F4D420788006A2
:103F700026D5A06990B1286840F480502860FEF7EB
:103F800013FC064606E0FEF70FFC801B022801D951
:103F9000032050E628688004F5D511E0286820F455
:103FA00080502860FEF700FC064606E0FEF7FCFBAA
:103FB000801B022801D903203DE628688004F5D43F
:103FC0002078400779D5164E306840F48070306014
:103FD000FEF7EAFB814607E0FEF7E6FBA0EB0900EF
:103FE000642801D9032026E63068C005F4D5DFF83F
:103FF0002490A06809F14809012821D038B3052888
:1040000032D0D9F8000020F00100C9F8000009E022
:1040100010440258284402580044025804440258EC
:1040200000480258D9F8000020F00400C9F8000048
:10403000A06841F2883A80B3FEF7B6FB064627E057
:10404000D9F8000040F00100C9F80000F0E7D9F805
:10405000000020F00100C9F80000D9F8000020F0AD
:104060000400C9F80000E3E7D9F8000040F00400BC
:10407000C9F80000D9F8000040F00100C9F80000BC
:10408000D6E7FEF791FB801B504501D90320D2E50E
:10409000D9F800008007F4D50FE0FFE7FEF784FBB6
:1040A000064606E0FEF780FB801B504501D9032041
:1040B000C1E5D9F800008007F4D4616AE9B3D8F803
:1040C0000000DFF87C81C0F3C200032876D002290B
:1040D00007D0286820F080702860FEF765FB044652
:1040E0007FE0286820F080702860FEF75DFB0646C0
:1040F00006E0FEF759FB801B022801D903209AE550
:1041000028688001F5D4386840F2F3318843E16AC9
:1041100040EA0110A16A08433860208E4FF6FF7212
:10412000616B401E491EC0F3080002EA41210843AA
:10413000218F4FF4FE02491E00E07FE002EA0141B8
:10414000084394F83C10491E120202EA0161084338
:10415000C8F800003A48001F016821F00101016021
:104160003749091D0A684FF6F8739A43A36C42EA6F
:10417000C3020A600168226C21F00C011143016046
:104180000168626C21F0020111430160016841F491
:1041900080310160016841F400310160016841F43F
:1041A00080210160016841F001010160286840F050
:1041B00080702860FEF7F8FA044607E015E0FEF785
:1041C000F3FA001B022801D9032034E52868800196
:1041D000F5D533E0FEF7E8FA001B022801D90320E9
:1041E00029E528688001F5D428E03A68D8F800006D
:1041F000012921D0A36A02F0030199421CD1E16A8E
:10420000C2F30512914217D1216BC0F30802491E77
:104210008A4211D1616BC0F34622491E91420BD1F3
:10422000A16BC0F30642491E914205D1E16BC0F378
:104230000660491E814201D00120FCE40020FAE41E
:10424000304402587047704770470000F0B590F84E
:104250003C20012A3AD0012680F83C60022280F8F6
:104260003D2003685A689C68194FDFF868C0BB425C
:1042700001D0634503D122F470054A682A4322F035
:1042800070020D6815435D600268BA4213D0B2F146
:10429000804F10D0104B9A420DD0104B9A420AD04A
:1042A0000F4B9A4207D0624505D00E4B9A4202D07E
:1042B0000D4B9A4204D124F0800389681943916020
:1042C0003C304670002101700020F0BD0220F0BD9E
:1042D00000000140000401400004004000080040CC
:1042E000000C0040001800400040014010B504469A
:1042F000002C03D094F83D0010B107E0012010BD60
:10430000002084F83C00204600F018F8022084F8D1
:104310003D002068211D01F07DFC01203D34E0724C
:104320006070A070E07020716071A071E071207207
:104330006072A0722070002010BD000008B50068F7
:10434000154A1649904211D1086840F004000860EF
:10435000086800F004000090002205211E20FEF7EE
:1043600001FBBDE808401E20FEF7EEBA0C4A904261
:1043700011D1086840F010000860086800F01000D3
:104380000090002205213620FEF7ECFABDE8084037
:104390003620FEF7D9BA08BD00080040E8440258AC
:1043A0000010004090F83D10012901D00120704715
:1043B000022180F83D100168CA6842F00102CA601B
:1043C00000681549884214D0B0F1804F11D01349CC
:1043D00088420ED0124988420BD01249884208D038
:1043E0001149884205D01149884202D010498842BB
:1043F0000CD181680F4A114006290BD0B1F5803FDE
:1044000008D0016841F00101016003E0016841F05A
:1044100001010160002070470000014000040040DD
:1044200000080040000C004000040140001800405B
:10443000004001400700010070B50446002594F8D3
:104440003C00012815D0012684F83C60022084F845
:104450003D0020688268394B1A4022F47F42826016
:104460000868702802462ED010DC10F00F0F03D021
:1044700022E04FF0020070BD4FEA201007281BD247
:10448000DFE800F0575757574D394300B0F1101F80
:104490004FD009DCB0F5805F0FD0B0F5005F1ED0C3
:1044A000B0F5801F08D144E0A0F58010203840D03E
:1044B00010283ED020283CD001253C3466700020D6
:1044C0002070284670BDCB682068D1E9012101F039
:1044D00001FC2068816841F077018160EDE7CB68DD
:1044E0002068D1E9012101F0F5FB2068816841F4E1
:1044F00080418160E1E7CA684968206801F0FEFBFD
:104500002068502101F0F0FBD7E7CA6849682068AD
:1045100001F005FC2068602101F0E6FBCDE7CA68E8
:104520004968206801F0EAFB2068402101F0DCFBCB
:10453000C3E72068114601F0D7FBBEE788FFCEFF36
:10454000704770B50446206801694FF00005C94303
:10455000890716D4C168C943890712D4E91E0161CD
:104560000120207720688069800703D02046FFF76C
:10457000E7FF05E0204600F0AAF8204600F0A8F882
:10458000257720680169C943490718D4C168C94320
:10459000490714D46FF004010161022020772068DC
:1045A000806910F4407F03D02046FFF7C9FF05E083
:1045B000204600F08CF8204600F08AF82577206825
:1045C0000169C943090717D4C168C943090713D44E
:1045D0006FF008010161042020772068C06980071E
:1045E00003D02046FFF7ACFF05E0204600F06FF84F
:1045F000204600F06DF8257720680169C943C90697
:1046000018D4C168C943C90614D46FF01001016100
:10461000082020772068C06910F4407F03D020462E
:10462000FFF78EFF05E0204600F051F8204600F02D
:104630004FF8257720680169C943C90708D1C168C7
:10464000C943C90704D1891E0161204600F042F820
:1046500020680169C943090609D4C168C94309062C
:1046600005D46FF0800101612046FFF7ECFD206862
:104670000169C943C90509D4C168C943090605D4FC
:104680006FF4807101612046FFF7DCFD206801694D
:10469000C943490609D4C168C943490605D46FF026
:1046A00040010161204600F01FF820680169C943FC
:1046B00089060BD4C168C943890607D46FF020016D
:1046C00001612046BDE87040FFF7BEBD70BD704778
:1046D0007047000000680349884201D1FEF7A8B87E
:1046E0007047000000480140704790F88010012991
:1046F00017D00121643001772421016250F8641C35
:104700000A680B6823F001030B6022F000510022BD
:10471000026050F8643C1960202101620277002099
:104720007047022070477047704770B5044694F890
:10473000800001281DD0012084F880002420C4F8C6
:10474000840020680568026822F001020260206887
:10475000826822F060620A438260204601F038FBE2
:10476000206805602020C4F88400002084F88000C0
:1047700070BD022070BD70B5044694F88000012819
:104780001DD0012084F880002420C4F88400206813
:104790000568026822F0010202602068826822F047
:1047A00060420A438260204601F012FB20680560E7
:1047B0002020C4F88400002084F8800070BD02200E
:1047C00070BD7047704770B50446D4F88400D4F8C3
:1047D0008860216889684FF01005090618D52128DE
:1047E00016D12068083050E8001F21F0800140E811
:1047F0000012002AF5D1A06F38B1FCF73DFC20B1C2
:10480000A06FFCF74FFF202809D0204601F07CFC68
:104810002068806840061DD5222E04D01AE0C4F816
:104820008C50032070BD2068083050E8001F21F034
:10483000400140E80012002AF5D1E06F38B1FCF7E2
:104840001BFC20B1E06FFCF72DFF202804D0204690
:1048500001F01EFC002070BDC4F88C50032070BD18
:10486000704700002DE9F04104462368D8691968B3
:104870009A6840F60F0500EA0506002E0ED185065F
:104880000CD501F0200502F080573D4306D0216F82
:1048900000297DD02046BDE8F04108470025002EC4
:1048A00077D0C84EC84F16400F40374371D0C70766
:1048B00009D0CF0507D501271F62D4F88C3043F00B
:1048C0000103C4F88C3083070AD5D30708D02768C2
:1048D00002233B62D4F88C3043F00403C4F88C30DC
:1048E00043070AD5D30708D0276804233B62D4F8CE
:1048F0008C3043F00203C4F88C3003070CD501F070
:104900002003334308D0266808233362D4F88C3060
:1049100043F00803C4F88C3003050BD54B0109D5CF
:1049200026684FF400633362D4F88C3043F02003E0
:10493000C4F88C30D4F88C30002B39D0800609D5DF
:1049400001F0200002F08051084303D0216F09B12B
:1049500020468847D4F88C0021688968490602D42B
:1049600010F0280F2AD0204601F092FB20688068C2
:1049700040061FD52068083050E8001F21F0400194
:1049800040E80012002AF5D1E06F70B18F4901E0D4
:104990000EE019E00165E06FFCF72CFD002807D060
:1049A000E06F016DBDE8F04108472046FFF758FF72
:1049B000BDE8F0812046FFF753FFF9E72046FFF7F7
:1049C0004FFFC4F88C50F3E7E66E012E7DD1C6068A
:1049D0007BD5CE0679D510201862206880684FF00C
:1049E0002003400672D5E16F794A086890423AD0B8
:1049F000774A1832904236D0754A3032904232D0DF
:104A0000734A483290422ED0714A603290422AD086
:104A10006F4A7832904226D06D4A9032904222D02E
:104A20006B4AA83290421ED06A4A90421BD0694A13
:104A30001832904217D0674A3032904213D0654AFC
:104A4000483290420FD0634A603290420BD0614AA4
:104A50007832904207D05F4A9032904203D05D4A4C
:104A6000A832904201D1406800E0406880B200283E
:104A70009ED0B4F85C2082429AD9A4F85E00C8693E
:104A8000B0F5807F2ED0206850E8001F21F480719F
:104A900040E80012002AF6D12068083050E8001FD4
:104AA00021F0010140E80012002AF5D12068083009
:104AB00050E8001F21F0400140E80012002AF5D123
:104AC000C4F88830E566206801E045E014E050E86D
:104AD000001F21F0100140E80012002AF3D1E06F1E
:104AE000FCF7CAFAB4F85C00B4F85E10401A81B260
:104AF0002046FFF718FE5BE734F85C0F6188401A28
:104B000081B260885C3C0028F5D00029F3D0206891
:104B100050E8002F22F4907240E80026002EF6D1D3
:104B2000284EF6432068083050E8002F324040E815
:104B30000027002FF6D1C4F88830E5662567206885
:104B400050E8002F22F0100240E80023002BF6D19D
:104B50002046FFF7E8FD2BE7C50209D5550207D52A
:104B60004FF4801018622046BDE8F041FFF72ABEDE
:104B700003060CD501F0800302F40002134306D0B3
:104B8000616F0029B7D02046BDE8F04108474206D2
:104B900006D54A0604D52046BDE8F04101F0A2BA88
:104BA000020206D54A0004D52046BDE8F041FFF7D1
:104BB00008BEC0019FD500299DDA2046BDE8F0411E
:104BC000FFF7B2BD0100001020010004415F0008A2
:104BD000100002401004024010B50446002C03D01F
:104BE000D4F8840010B107E0012010BD002084F843
:104BF0008000204600F028F82420C4F884002068B3
:104C0000016821F001010160204601F095FA0128B8
:104C100018D0A06A10B1204601F0FEF82068416863
:104C200021F4904141602068816821F02A0181606F
:104C30002068016841F0010101602046BDE8104094
:104C400001F04EB9012010BD2DE9F04FB5B004467A
:104C5000142130A8FBF73AFDBC2101A8FBF736FD73
:104C6000FE4D0221FC4B00202268083DFB4E4F0206
:104C70009A424FF0030A4FF4807B4FF040094FF007
:104C800001086DD101911E9001A8FEF79BF808B1B3
:104C9000FCF725F9306840F400203060306800F4FB
:104CA00000200090286840F001002860286800F08B
:104CB00001000090CDF8C08002253195CDF8C88064
:104CC000CDF8CCA04FF00808CDF8D08030A9DFF89F
:104CD00090A35046FDF742FC309531950026329660
:104CE0003396CDF8D08030A95046FDF737FCDE4D25
:104CF000DC4828603F206860AE60EE602F616E6126
:104D0000AE61C5F81CB02E626E622846FDF7A0F8B1
:104D100008B1FCF7E4F8E567AC63D248D24D18302F
:104D200078352860C5F80490C5F80890EE602F61CA
:104D30006E61AE61EE612E626E622846FDF788F804
:104D400008B1FCF7CCF8A567AC630022052134203C
:104D5000FDF708FE3420FDF7F7FD35B0BDE8F08F14
:104D6000C24B9A425FD1019100201E9001A8FEF72C
:104D700029F808B1FCF7B3F8306840F480103060CF
:104D8000306800F480100090286840F0020028602D
:104D9000286800F0020000904FF40050309012207C
:104DA0003190CDF8C880CDF8CCA00E20349030A939
:104DB000AF48FDF7D3FBAC4DAE48F035286041203D
:104DC00068600026AE60EE602F616E61AE61C5F86E
:104DD0001CB02E626E622846FDF73AF808B1FCF767
:104DE0007EF8E567AC63A44DA248183028604220E5
:104DF0006860C5F80890EE602F616E61AE61EE618B
:104E00002E626E622846FDF723F808B1FCF767F8BA
:104E1000A567AC63002205213520FDF7A3FD3520F1
:104E2000FDF792FD99E7954B9A4227D10F460191E4
:104E300004461E9001A8FDF7C5FF010001D0FCF754
:104E40004EF8306840F080403060306800F08040BC
:104E50000090286840F010002860286800F01000DA
:104E600000904FF4C0703090319732943394072003
:104E7000349030A98248FDF771FB6EE7814B9A426E
:104E800063D1CDF8048006461F9001A8FDF79AFF74
:104E900008B1FCF724F871480830016841F01001AE
:104EA0000160006800F010000090286840F00200E7
:104EB0002860286800F0020000904FF48040309095
:104EC00012203190CDF8C880CDF8CCA004203490C9
:104ED00030A96748FDF742FB6248674D9038783546
:104EE000286029206860AE60EE602F616E61AE615F
:104EF000C5F81CB02E626E622846FCF7A9FF08B107
:104F0000FBF7EDFFE567AC6356485B4D7838F0354D
:104F100028602A206860C5F80890EE602F616E61F5
:104F2000AE61EE612E626E622846FCF791FF08B119
:104F3000FBF7D5FFA567AC63002205212520FDF70F
:104F400011FD2520FDF700FD07E74F4B9A425FD189
:104F5000019100201E9001A8FDF734FF08B1FBF776
:104F6000BEFF306840F400303060306800F400303C
:104F70000090286840F001002860286800F00100D7
:104F800000900420309012203190CDF8C880CDF8E8
:104F9000CCA00720349030A93148FDF7DFFA3B4D13
:104FA0003048603828602B2068600026AE60EE60D4
:104FB0002F616E61AE61C5F81CB02E626E6228462C
:104FC000FCF746FF08B1FBF78AFFE567AC632548AD
:104FD0002E4D4838783528602C206860C5F8089038
:104FE000EE602F616E61AE61EE612E626E622846E8
:104FF000FCF72EFF08B1FBF772FFA567AC63002238
:1050000005212620FDF7AEFC2620FDF79DFCA4E639
:105010001F4B9A4298D1019100201E9001A8FDF7E4
:10502000D1FE08B1FBF75BFF306840F480203060B0
:10503000306800F480200090286840F0020028606A
:10504000286800F002000090309712203190CDF8CF
:10505000C880CDF8CCA01DE0004C0040E8440258C8
:1050600000000258A000024024200024005000400C
:1050700000040258100402408C21002400780040F3
:10508000001002580010014000440040F4220024A7
:1050900000480040072034901D4830A9FDF75EFA13
:1050A0001D4D1C4828602D2068600026AE60EE6013
:1050B0002F616E61AE61C5F81CB02E626E6228462B
:1050C000FCF7C6FE08B1FBF70AFFE567AC631148C1
:1050D000114D1830783528602E206860C5F808908A
:1050E000EE602F616E61AE61EE612E626E622846E7
:1050F000FCF7AEFE08B1FBF7F2FEA567AC63002239
:1051000005212720FDF72EFC2720FDF71DFC24E6B6
:105110000004025870000240E423002430B4D0F8A8
:105120008830202B02D0022030BC7047E1B1DAB1C8
:1051300090F88030012B19D0012380F880300023B3
:10514000C3660B4C0368A3420BD05B681B0208D5F7
:10515000036853E8004F44F0806443E80045002DA5
:10516000F6D130BC01F030BA0120DDE70220DBE7E8
:10517000000C00587047704770B50446D4F884009E
:10518000202801D0022070BD69B362B394F880007A
:1051900001282AD00120503484F830002160A280F8
:1051A000E2800025E56321206063A06A503CF0B1F5
:1051B0001749C163A16F17480864A16F1648C864F6
:1051C000A06F056513462668216D2836A06F32460C
:1051D000FDF73CF858B110208034E06025702020A5
:1051E0006060012070BD012070BD022070BD21688B
:1051F0004020086284F880502068083050E8001F82
:1052000041F0800140E80012002AF5D1002070BD75
:105210004360000885600008555F000870477047CC
:10522000FEE7000008B53148016841F00101016066
:10523000016801F001010091016841F00201016083
:10524000006800F002000090002205210B20FDF70D
:1052500089FB0B20FDF778FB002205210C20FDF7D0
:1052600081FB0C20FDF770FB002205210D20FDF7CE
:1052700079FB0D20FDF768FB002205210E20FDF7CC
:1052800071FB0E20FDF760FB002205210F20FDF7CA
:1052900069FB0F20FDF758FB002205211020FDF7C8
:1052A00061FB1020FDF750FB002205211120FDF7C6
:1052B00059FB1120FDF748FB002205212F20FDF7A7
:1052C00051FB2F20FDF740FB002205213820FDF780
:1052D00049FB3820FDF738FB002205213920FDF776
:1052E00041FBBDE808403920FDF72EBBD8440258E9
:1052F00010B59CB01C22164915A8FBF7B5F9002182
:1053000015A801F0DEFD134C20601C2210491C3151
:105310000EA8FBF7A9F900210EA801F0D2FD6060EC
:105320001C220B49383107A8FBF79EF9002107A87A
:1053300001F0C7FDA0601C22054954316846FBF707
:1053400093F90021684601F0BCFDE0601CB010BD7F
:10535000CC7900080800002430B587B0142102A8D9
:10536000FBF7B4F92248016841F08001016001684F
:1053700001F080010191016841F0010101600168C3
:1053800001F001010191016841F010010160016823
:1053900001F010010191016841F002010160016812
:1053A00001F002010191016841F00801016000680B
:1053B00000F0080001900F4D4FF488740022214640
:1053C0002846FDF7E4F90294012403940494022191
:1053D000059102A92846FDF7C1F86102029100205B
:1053E0000390049402A92846FDF7B8F807B030BD31
:1053F000E0440258000C025810B588B00024049410
:105400000594069407940194029403941448134954
:105410000160EF214160846040F2E731C1600461C6
:1054200080218161FEF762FF08B1FBF758FD4FF460
:10543000805004900A4804A9FEF7FEFF08B1FBF76C
:105440004EFD0194039401A90548FEF7FFFE0028D4
:1054500001D0FBF744FD08B010BD0000000800407B
:105460002C1C00243EB500240094019402940F48A3
:105470000D49016040F65F114160846044F61F6190
:10548000C16080218161FEF731FF08B1FBF727FD84
:105490000094029469460548FEF7D8FE002801D022
:1054A000FBF71DFD3EBD000000100040781C0024ED
:1054B00010B51848164901604FF4E13141600021F0
:1054C0008160C16001610C2242618161C161016240
:1054D00041628162FFF780FB08B1FBF700FD0D48D8
:1054E0000021FFF748F908B1FBF7F9FC0948002152
:1054F000FFF71BF908B1FBF7F2FC0648FFF7F5F8D8
:10550000002803D0BDE81040FBF7E9BC10BD000047
:10551000004C0040C41C002410B517481549016018
:105520001649416000218160C16001610C22426125
:105530008161C161016241628162FDF73BF908B19D
:10554000FBF7CDFC0C480021FFF715F908B1FBF77C
:10555000C6FC09480021FFF7E8F808B1FBF7BFFCDB
:105560000548FFF7C2F8002803D0BDE81040FBF75C
:10557000B6BC10BD00500040541D002420A10700FF
:1055800010B51848164901604FF4E131416000211F
:105590008160C16001610C2242618161C16101626F
:1055A00041628162FFF718FB08B1FBF798FC0D48D8
:1055B0000021FFF7E0F808B1FBF791FC0948002152
:1055C000FFF7B3F808B1FBF78AFC0648FFF78DF840
:1055D000002803D0BDE81040FBF781BC10BD0000DF
:1055E00000780040E41D002410B5174815490160FB
:1055F0001649416000218160C16001610C22426155
:105600008161C161016241628162FDF7D3F808B135
:10561000FBF765FC0C480021FFF7ADF808B1FBF77C
:105620005EFC09480021FFF780F808B1FBF757FC42
:105630000548FFF75AF8002803D0BDE81040FBF7F3
:105640004EBC10BD00100140741E002420A10700B4
:1056500010B5174815490160164941600021816065
:10566000C16001610C2242618161C16101624162DC
:105670008162FDF79FF808B1FBF731FC0C4800216F
:10568000FFF779F808B1FBF72AFC09480021FFF77A
:105690004CF808B1FBF723FC0548FFF726F8002873
:1056A00003D0BDE81040FBF71ABC10BD0044004019
:1056B000041F002420A1070010B5174815490160F8
:1056C0001649416000218160C16001610C22426184
:1056D0008161C161016241628162FDF76BF808B1CD
:1056E000FBF7FDFB0C480021FFF745F808B1FBF77D
:1056F000F6FB09480021FFF718F808B1FBF7EFFBAC
:105700000548FEF7F2FF002803D0BDE81040FBF784
:10571000E6BB10BD00480040941F002420A10700F4
:10572000FEE7FEE72DE9F047044688460027DFF84C
:105730001491D9F80000C043800709D0414D283D9D
:10574000286820F080602860FDF72EF8064609E002
:105750000120BDE8F087FDF727F8801B022801D95A
:105760000320F6E728680001F5D4D9F80000216885
:1057700020F47C3040EA0130C9F80000A0884FF6E0
:10578000FF72A168401E491EC0F3080002EA4121D1
:105790000843A1894FF4FE02491E02EA0141084371
:1057A000217C1202491E02EA016108432549103199
:1057B00008602448001D0168626921F0C00111439E
:1057C00001600168A26921F02001114301600168B4
:1057D00021F0100101601B4914310A684FF6F8737B
:1057E0009A43E36942EAC3020A60016841F010018A
:1057F0000160B8F1000F0ED0B8F1010F10D00168B0
:1058000041F400110160286840F080602860FCF7D6
:10581000CBFF044610E0016841F400210160F2E78B
:10582000016841F480110160EDE7FCF7BDFF001B4A
:10583000022801D903208CE728680001F5D53846F5
:1058400087E70000284402582DE9F04704468846BF
:105850000027DFF81491D9F80000C043800709D071
:10586000414D283D286820F080502860FCF79CFFBF
:10587000064609E00120BDE8F087FCF795FF801B94
:10588000022801D90320F6E728688000F5D4D9F86A
:105890000000218820F07C7040EA0150C9F8000027
:1058A000A0884FF6FF72A168401E491EC0F3080091
:1058B00002EA41210843A1894FF4FE02491E02EA8F
:1058C00001410843217C1202491E02EA016108439A
:1058D0002549183108602448001D0168626921F4D7
:1058E0004061114301600168A26921F40071114314
:1058F0000160016821F4807101601B491C310A6854
:105900004FF6F8739A43E36942EAC3020A600168FA
:1059100041F480710160B8F1000F0ED0B8F1010FB1
:1059200010D0016841F080710160286840F080501B
:105930002860FCF739FF044610E0016841F480015B
:105940000160F2E7016841F400010160EDE7FCF756
:105950002BFF001B022801D903208CE72868800058
:10596000F5D5384687E700002844025810B50120D5
:1059700001F09AFAFBE700F0F9FE012001F094FA39
:10598000FBE7142001F090FAFBE70000164F174CDC
:10599000174D184EDFF860803868012803D0B078C2
:1059A000012803D004E000F0CDF901E0FAF772FF1E
:1059B000012104EB0110808825F81100491C0C29F5
:1059C000F7DDF078012808D0002240461021FCF7CE
:1059D000DEFE0A2001F068FADEE7012240461021CF
:1059E000FCF7D5FEF5E70000A80000243866002487
:1059F000FECC0024D0190024000C025810B5502011
:105A000080F31188BFF34F8FBFF36F8F01F00AFF50
:105A100018B104494FF080500860002080F31188CD
:105A200010BD000004ED00E030B59DB04C210AA887
:105A3000FAF74CFE202102A8FAF748FE0220FCF7F4
:105A4000C3FF00242C4A106820F001001060106889
:105A50002A48016841F440410160016801F4404175
:105A6000019101688904FCD525490B6843F00203C4
:105A70000B60096801F002010191016841F44041A5
:105A800001600168116841F001011160116801F0C5
:105A90000101019101688904FCD501200A900004EC
:105AA0000B9002201390149005211591C02116919E
:105AB00017901890199008251A951B941C940AA801
:105AC000FEF7A2F808B1FBF70AFA3F200290032084
:105AD00003900494059540200690079001010891D9
