:020000040800F2
:1000000080AF012425040008F9B0000801A700080A
:1000100071AE000861170008F9CF00080000000069
:1000200000000000000000000000000081B5000892
:10003000892200080000000071B1000891B6000894
:100040003F0400083F0400083F0400083F04000884
:100050003F0400083F0400083F0400083F04000874
:100060003F0400083F0400083F0400086917000827
:10007000791700088917000899170008A9170008C0
:10008000B9170008C91700083F0400083F0400081A
:100090003F0400083F0400083F0400083F04000834
:1000A0003F0400083F0400083F0400083F04000824
:1000B0003F0400083F04000899B900083F04000805
:1000C0003F0400083F0400083F0400083F04000804
:1000D0003F040008B1CF0008C9CF0008E1CF0008F5
:1000E0003F0400083F040008000000003F0400082F
:1000F0003F0400083F0400083F040008D917000827
:100100003F0400083F0400083F0400083F040008C3
:1001100059BD000869BD0008B1B900083F040008D6
:10012000E9170008F91700083F0400083F04000819
:100130003F0400083F0400083F0400083F04000893
:1001400000000000000000000000000000000000AF
:100150003F0400083F0400083F0400083F04000873
:100160003F0400083F0400083F0400083F04000863
:100170003F0400083F0400083F040008000000009E
:100180003F0400083F0400083F0400083F04000843
:100190003F0400083F0400083F0400083F04000833
:1001A0003F0400083F0400083F0400083F04000823
:1001B0003F0400083F0400083F0400083F04000813
:1001C0003F0400083F0400083F0400083F04000803
:1001D0003F0400083F0400083F0400083F040008F3
:1001E0003F0400083F0400083F0400083F040008E3
:1001F0003F0400083F0400083F0400083F040008D3
:100200003F0400083F0400083F0400083F040008C2
:100210003F0400083F04000889B900083F040008B3
:100220003F0400083F0400083F04000800000000ED
:100230003F0400083F040008000000003F040008DD
:100240003F0400083F0400083F0400083F04000882
:100250003F0400083F0400083F0400083F04000872
:100260003F0400083F0400083F0400083F04000862
:100270003F0400083F0400083F040008000000009D
:100280003F0400083F0400083F040008000000008D
:10029000000000003F04000800F002F800F0B2F88F
:1002A0000AA090E8000C82448344AAF10107DA45D1
:1002B00001D100F0A7F8AFF2090EBAE80F0013F071
:1002C000010F18BFFB1A43F00103184758CD020075
:1002D00078CD02000A444FF0000C10F8013B13F0F7
:1002E000070408BF10F8014B1D1108BF10F8015B8F
:1002F000641E05D010F8016B641E01F8016BF9D182
:1003000013F0080F1EBF10F8014BAD1C0C1B09D1D8
:100310006D1E58BF01F801CBFAD505E014F8016B4A
:1003200001F8016B6D1EF9D59142D6D370470000DC
:100330000023002400250026103A28BF78C1FBD8EE
:10034000520728BF30C148BF0B6070476E2900F0CC
:10035000D581702900F00B83662911F0A6836529E9
:1003600011F0A383672911F0A083612911F09F8305
:1003700003681B0A28BF41F08001692900F08281CF
:10038000642900F07F81752900F07C816F2900F0DD
:100390009982782900F0D782E92900F03382E42994
:1003A00000F03082F52900F02D82EF2900F09682CE
:1003B000F82900F0D6820368DB0928BF41F08001EC
:1003C000632900F0EF87732900F0F487E32900F038
:1003D000FF87F32901F00480002070471FB511F05A
:1003E00057FB01F05BF804000020002111F03AFBFC
:1003F000401C60600020002111F01EFBE0601FBD6A
:1004000010B510BD01F01CF81146FFF7E7FF0EF024
:1004100023F801F0F9F803B4FFF7F2FF03BC0DF085
:10042000FFFF00000948804709480047FEE7FEE754
:10043000FEE7FEE7FEE7FEE7FEE7FEE7FEE7FEE794
:1004400004480549054A064B7047000029B80008D2
:100450009902000880A9012480AF012480AB012407
:1004600080AB012453EA020C00F069802DE9F04BC7
:100470004FF00006002B1FBFB3FA83F503FA05F413
:1004800024FA05F65E4012BF1643B2FA82F502FA6C
:1004900005F4C5F120051EBF22FA05FC44EA0C0450
:1004A000203556EA044C4FEA144418BF641C4FF040
:1004B00000084FF00009904271EB030C39D300297A
:1004C00019BFB1FA81F701FA07F6B0FA80F700FA1E
:1004D00007F6C7F120071EBF20FA07FC46EA0C0604
:1004E0002037B6FBF4FCA7EB0507103F07F01F0B06
:1004F000CBF120062CFA06F60CFA0BFB44BFB346F0
:100500000026202FA4BF5E464FF0000B5BEA060CCE
:1005100008BF4FF0010B19EB0B0948EB0608ABFBCA
:10052000027C06FB02CC0BFB03CCC01B71EB0C0165
:10053000C1E70B46024641464846BDE8F08B13B57D
:10054000084318BF4FF0FF300146AFF30080BDE80D
:100550001C4070470FB4044910B503AA029800F07C
:10056000E1F810BC5DF814FBF05F01244FF00002CD
:1005700000B5134694469646203922BFA0E80C5099
:10058000A0E80C50B1F12001BFF4F7AF090728BF74
:10059000A0E80C5048BF0CC05DF804EB890028BFF0
:1005A00040F8042B08BF704748BF20F8022B11F019
:1005B000804F18BF00F8012B704770477047704795
:1005C00070B5044685690068C10601D5302600E093
:1005D0002026C00707D070BDD4E9012130469047DE
:1005E000206A401C20626D1EF6D570BD70B50446B1
:1005F00085690078C00707D170BDD4E901212020AA
:100600009047206A401C20626D1EF6D570BD0968B7
:100610004A0501D540B27047C905FCD500B2704704
:1006200009684A0501D5C0B27047C905FCD580B23A
:10063000704770B50C460546012A05D0287880061B
:1006400000D5EA69002302E0012305E05B1C934228
:1006500002D2E05C0028F9D1A869E618C01AA861A6
:10066000286A184428622846FFF7AAFF04E0D5E963
:10067000012114F8010B9047B442F8D32846FFF744
:10068000B5FF70BD2DE9F0410646002410687529BC
:10069000314616A510D0FFF7BAFF002802DA404213
:1006A00013A507E031688A0701D512A502E04907C2
:1006B00004D511A5012401E0FFF7B2FF00210A22B1
:1006C00006F1240709E0B0FBF2FCB0FBF2F302FBF9
:1006D0001C00303078541846491C0028F3D12346BA
:1006E0002A463046BDE8F04100F055BA000000004F
:1006F0002D0000002B00000020000000116802689F
:10070000006A530501D508700AE0D30501D50880B9
:1007100006E0130603D5C217C1E9000200E0086035
:1007200001207047074B70B50D467B4400F01DFE5D
:100730000446284600F058FE10B14FF0FF3070BD5F
:10074000204670BDFBDC00002DE9FF5F15468A46A0
:100750000446DFF8AC80F8440027D8E900103E4694
:10076000CDE9001010E03AF816106A4602A800F031
:100770003FFE411C07D02178890603D5E26939186C
:1007800091420DD80744761C2078800602D5E06996
:10079000B84205DDAE42E6DB3AF816000028E2D1A9
:1007A000A069C01BA0612046FFF70AFFD8E900102E
:1007B000CDE90010002017E03AF818106A4602A8A8
:1007C00000F016FEB0F1FF3F81460BD000250DF181
:1007D000080B05E0D4E901211BF8050090476D1CCA
:1007E0004D45F7D308F10100B0428046E4DB206AB2
:1007F000384420622046FFF7F9FEBDE8FF9F000065
:100800005A1301002DE9F0418046D21D22F0070263
:100810000025D2E90002F52915A614D0011E72F1B7
:10082000000106DA0023D0EB030063EB020211A6FD
:1008300008E0D8F800108B0701D50FA602E04907A1
:1008400001D50EA601251146002408F1240704E075
:1008500000F05CF930323A55641C50EA0102F7D1DD
:100860002B46324621464046BDE8F04100F093B9A0
:10087000000000002D0000002B0000002000000000
:1008800030B4002100F1240408E002F00705D2088A
:10089000303542EA4372DB086554491C52EA0305CD
:1008A000F3D10468002310A2250708D504F0200422
:1008B0000C4304D0C46901230CA2641EC46130BC83
:1008C00000F069B910B5044621461068FFF7A8FE8C
:1008D00002462046BDE810400023D1E7D21D22F099
:1008E0000701D1E90023CBE7000000003000000041
:1008F000F0B40D460188090502D5214C7C4402E084
:100900001F4C7C440E34002100F1240608E002F064
:100910000F071209E75D42EA03721B097754491C6D
:1009200052EA0307F3D102780023120704D5702D91
:1009300006D009B1022311342246F0BC00F02BB9D5
:1009400001231034F8E770B504460D4621461068BF
:10095000FFF766FE024629462046BDE870400023A8
:10096000C6E7D21D22F00703D3E90023C0E70368DE
:10097000126843F0200303600823C3610023B7E734
:10098000BC1101002DE9F05F894604464FF0000AD2
:10099000DFF874B1FB44C0F820A02046E168884726
:1009A000002874D0252806D0D4E901219047206A78
:1009B000401C2062F1E700265F462046E168884738
:1009C0002028054607DB312D05D2781910F8200CB8
:1009D00008B10643F1E7B00701D526F00406C4F8D4
:1009E0001CA00027C4F818A02A2D09D0284611F011
:1009F0001BF838B304EB8708303DC8F8185019E0ED
:100A000059F8041B204604EB87029161E16888478E
:100A1000012F054618D1E069002820DA26F02006CB
:100A20001DE0D8F8180000EB800005EB40003038DE
:100A3000C8F818002046E1688847054610F0F4FF22
:100A40000028EED1012F0AD02E2D08D12046E168D2
:100A500088477F1C0546022F46F02006C4DBA069AC
:100A6000002803DA404246F00106A061F00701D0F9
:100A700026F010066C2D0BD0682D09D04C2D39D0E6
:100A80006A2D35D0742D35D07A2D33D016E038E06C
:100A9000E1682F4620468847B842054609D16C2FA9
:100AA00026D04FF48060E16806432046884705461B
:100AB00004E06C2F1AD04FF4807006430DB3A5F1FB
:100AC0004100192802D8203546F400664A462946D6
:100AD000204626604E46FFF739FC80B101280BD036
:100AE000F61D26F0070000F1080956E74020E4E76C
:100AF0008020D8E70020D6E706F104094DE7284614
:100B000052E7206ABDE8F09F4C11010030B5B0F10A
:100B10000A0271F100034FEA900E4EEA817EB0EBBB
:100B20000E0061EB91014FEA101E4EEA017E10EBC0
:100B30000E0041EB11114FEA102E4EEA016E10EB40
:100B40000E0041EB11214FEA104E4EEA014E10EB20
:100B50000E0041EB1141401841F100014FEAD00075
:100B600040EA41704FEAD1014FEA810444EA9074AF
:100B700010EB800544EB01046D1944EB0404521B97
:100B8000A3414FF0000348BF0A3200D530BD401CDE
:100B900041F1000130BD2DE9F0470D4699469246DE
:100BA000044600F124080168880604D5E06921F0B4
:100BB0001001216000E00120A84201DD471B00E098
:100BC0000027A1697A1902EB0900081AA0612078B0
:100BD000C00602D42046FFF7F3FC002608E0D4E963
:100BE00001211AF806009047206A401C761C2062FA
:100BF0004E45F4DB2078C0060AD52046FFF7E0FC1E
:100C000006E0D4E9012130209047206A401C206290
:100C1000381EA7F10107F4DC07E0D4E9012118F838
:100C200005009047206A401C2062281EA5F101059E
:100C3000F3DC2046FFF7DAFC2078000602D502201C
:100C4000BDE8F0870120FBE72DE9FF4F0C461E466B
:100C50004FF0FF378BB0D2E90001DDF860800A90D9
:100C60008A46C1F30A5505B93D46002108464FF0B2
:100C70000000BAF1000F00F4400005DA00EB80003C
:100C80004FF4400101EA50004FEA9059B9F1010FC9
:100C900000DDB9460A9850EA4A000ED044F61050DA
:100CA000A5F2FF3545432F14B8F1000F1ED0754251
:100CB000291E1EDDC9F100021CE0B8F1010F4FF042
:100CC000000001D0302103E0F24305E02154401C34
:100CD000B042FBDB30460022002121540B99C1F8C1
:100CE0000880C1E900200FB0BDE8F08FBD1B6D1C6E
:100CF000DEE74A4600DA694206A800F013FC06ABBC
:100D000093E8070003AB83E8070050460A9910F008
:100D1000ABFA8DE80700A0F500501F38009003984B
:100D2000002D0ADD42F21F014A460844002303A9B0
:100D30000390684610F014FD09E0A0F500504A4603
:100D40001F38002303A90390684610F01EFD8DE8AC
:100D500007000004000C03D04FF0FF30410800E012
:100D60001046B8F1000F03D00022009215461EE095
:100D7000751E05D4FFF7CAFE303262556D1EF9D5D7
:100D8000B3460122084302D000227F1C04E02078F1
:100D9000302801D100227F1E002A099784D01DE04F
:100DA000112D07DAFFF7B2FE303262556D1C50EAA2
:100DB0000102F5D1084302D00098C8B10EE000212D
:100DC000681E05E0235C625C63542254401E491C8B
:100DD0008142F7DBAB46A81B401E0990002004F8B7
:100DE0000B000B98099AC0F80880C0E9002B7AE73D
:100DF00011264FF0000857E72DE9F04F88460446CA
:100E0000D21D22F0070191B0D1E90001CDE90A011C
:100E100010F0F2FD02460B98C00F01D02D2007E024
:100E20002068810701D52B2002E0202101EAC000C3
:100E3000032A099001D0072A05DB034641462046D4
:100E400000F030FB0BE12078800601D5E06900E07E
:100E50000620B8F1650F814606D0B8F1660F18D0AC
:100E6000B8F1670F70D131E00020B9F1110F009097
:100E700001DB112301E009F101030AAA01A90CA871
:100E8000FFF7E2FEDDE90C70002609F1010583465B
:100E900047E001204B4600904FF000470AAA01A905
:100EA0000CA8FFF7D1FEDDE90DB00C995D460026D8
:100EB00010B909F101000D18B9EB050003D4C0F118
:100EC000FF3609F10105A5EB09002BE0B9F1010F8F
:100ED00001DA4FF001090020B9F1110F00904846E6
:100EE00001DD112300E003460AAA01A90CA8FFF7BF
:100EF000ABFEDDE90C704D460026834620780007E6
:100F00000AD4AB4500DA5D4601A8012D04DD411984
:100F100011F8011C302907D04F4502DA17F1040FF0
:100F200004DA012082460FE06D1EEEE7002F02DC9E
:100F3000ED1B3E4403E0781CA84200DD7D1CB81B7D
:100F400000F1010A4FF000472078000703D4AA45BA
:100F500001DB4FF0FF3A0021B7F1004F0DF14308DC
:100F60008DF8431024D002202B23002F01DA7F427A
:100F70002D230A21021EA0F1010000DC5FB197FBC6
:100F8000F1FC97FBF1F201FB1C7C17460CF1300CD5
:100F900008F801CDEEE7A8F10100037021880905EA
:100FA00001D5452100E06521A0F1010800F8011CF0
:100FB00009980FA9A1EB0807FF1D00B101204119F5
:100FC00001EBEA70A1693844081A401EA06120783C
:100FD000C00602D42046FFF7F3FA099828B1D4E9F5
:100FE00001219047206A401C20622078C00622D54B
:100FF0002046FFF7E5FA1EE0002E04DBB34502DDD4
:1010000001A8805D00E03020D4E901219047206AEA
:10101000401C2062761CAAF101005FEA000A0AD196
:1010200000F03CFAC0680168405CD4E901219047B7
:10103000206A401C2062281EA5F10105DCDC07E0C7
:10104000D4E9012118F8010B9047206A401C206266
:10105000381EA7F10107F3DC2046FFF7C7FA03208B
:1010600011B041E62DE9F04F04460D46D21D22F0A5
:10107000070089B0D0E900974846394610F0BCFC1B
:101080000246F80F01D02D2307E02068810701D523
:101090002B2302E0202101EAC0038DF820300BB1A0
:1010A000012000E00020032A824601D0072A04DB49
:1010B0002946204600F0F6F93FE12078800601D469
:1010C0000D2500E0E569C7F30A560D2D49DA002128
:1010D0004FEA175B08464FF00000002F00F4400075
:1010E00007DA00EB80004FF4400100EBD07001EA1A
:1010F00060008115012901DD4FF0FF3100224FEA28
:10110000850CBCF1180F06D31346ACF118004FF054
:101110008052C24003E04FF4801323FA0CF30CF129
:101120000C0CBCF1200F04D3ACF1200C09FA0CF02C
:1011300001E007FA0CF000294FF0004801DD18B972
:101140000FE00ED140450CD319EB02095F4121B9E4
:10115000404502D19F4329EA0209BBEB175F00D04B
:10116000761C2088000502D57B48784402E07A4846
:101170007844193808AA302302F80A30037C0AF1AF
:101180000101002E0AF1020A53546A4602DC4FF0B4
:10119000300101E04FF031014FF001088DF80010EF
:1011A00002D0A6F2FF3603E059EA470100D06B4EA9
:1011B000002D02DC2178090704D54FF002082E210A
:1011C0008DF80110C44600210BE0C7F303433F0133
:1011D000C35C491C6D1E02F80830052908F101089E
:1011E00001DA002DF1DC00210CE000EB1973491C41
:1011F0001B786D1E082902F808304FEA091908F11A
:10120000010801DA002DF0DC21688B0602D516E01A
:10121000A8F10108E04505DD02EB080313F8013CE5
:10122000302BF5D0B8F1000F09DD02EB080313F8FD
:10123000013C2E2B03D1090701D4A8F10108002D90
:1012400005DD3E2102F808106D1E08F10108407C02
:10125000002E02F8080008F1010804DA2D20764279
:1012600002F8080002E02B2002F808000A214FF4DF
:101270007A70864208F101080BDB96FBF0F33033FD
:1012800002F8083096FBF0F308F1010800FB136642
:1012900001E0642E0CDB642096FBF0F3303302F89F
:1012A000083096FBF0F308F1010800FB136601E03B
:1012B0000A2E06DB96FBF1F0303002F8080008F148
:1012C000010896FBF1F001FB1060303002F80800D5
:1012D000A16908F1010808EB050202EB0A00081AEF
:1012E000A0612078C00602D42046FFF769F9216A80
:1012F00008AE01EB0A00206204E0D4E9012116F8EF
:10130000010B9047BAF1010AF7D22078C00602D546
:101310002046FFF755F96E4609E016F8010B3E2806
:101320000FD0D4E901219047206A401C2062B8F117
:101330000108F2D22046FFF759F909B00320BDE8B1
:10134000F08F206A2844206203E0D4E90121302094
:1013500090476D1EEBD3F8E79A09010002FCFFFFEE
:1013600001694A1C02610878704700B58FB0CDE969
:1013700001310021059105497944CDE90310114659
:101380006846FFF7FFFA0FB000BD0000E5FFFFFF62
:1013900010B5436913B1AFF3008001E0FFF749F9DD
:1013A000012010BD127800F124010A7000224A7059
:1013B0000122EDE711684FF0FF32E9E710B543690C
:1013C00013B1AFF3008001E0FFF7BEF9012010BDBB
:1013D000128800F1240182840022C2840122EDE7F8
:1013E00011684FF0FF32E9E7007B00F080007047A2
:1013F0002DE9F04116460C46054600F047F8036813
:1014000093F80101012807D0FF2C12D8185D80B194
:1014100001202C70BDE8F081D3F807013246214647
:1014200003F20713C7182846BC46BDE8F041002365
:1014300060474FF0FF30EDE700487047C059012486
:101440007546FFF7F9FFAE4605006946534620F0A2
:101450000700854618B020B5FEF7F2FFBDE8204032
:101460004FF000064FF000074FF000084FF0000B60
:10147000AC46ACE8C009ACE8C009ACE8C009ACE8CF
:10148000C00921F007018D467047000010B500F03B
:1014900005F8001D10BD00BFCD05010000487047D4
:1014A000E05901242DE9F0411F4604460326016856
:1014B000072A01F4006004DB08B116A505E016A5B3
:1014C00003E008B115A500E015A521F0100020608B
:1014D000A069C01EA0610FB1401EA0612046FFF7A9
:1014E0006FF84FB1D4E9012138469047206A401C7B
:1014F0002062C01C206206E0206AFAE7D4E90121DC
:1015000015F8010B9047761EF8D22046FFF76EF8CB
:10151000BDE8F0814E414E006E616E00494E4600BE
:10152000696E66002DE9F047814616468AB0354857
:1015300078440DC88DE80D0032487844801C03AC17
:101540000DC884E80D0041F69B300844372190FB1C
:10155000F1F290FBF1F5A5F1800501FB12041B3CB3
:1015600002D56442012000E00020DFF898A0804608
:101570000027FA44AAF1BE0A0EE0E0070AD032467C
:10158000684607EB470101230AEB810110F0FDF8E3
:101590008DE8070064107F1C002CEED1194F7F44AA
:1015A000AE3F19E0E80715D007EB04100DF1180A5B
:1015B00090E80E008AE80E00C068F04201D1981948
:1015C00008903246012306A903A810F0DEF803AB09
:1015D00083E807006D10641C002DE3D14FF0010378
:1015E00032466946B8F1000F03A802D010F0B8F8EF
:1015F00001E010F0CAF8C9E90001C9F808200AB0F2
:10160000BDE8F0876406010010B50446AFF3008022
:101610002046BDE81040FEF7FEBE000000000000BE
:1016200030B44FF0013C50F8042BCCFA52F451F88E
:10163000043BD51A20D1FCB950F8042BCCFA52F453
:1016400051F8043BD51A17D1B4B950F8042BCCFA91
:1016500052F451F8043BD51A0ED16CB950F8042B52
:10166000CCFA52F451F8043BD51A05D1002CDAD04B
:1016700030BC4FF00000704729BAB1FA81F111F087
:101680001801D1F120008440F2D1CA40CB4012F0C1
:10169000FF0213F0FF0330BCD01A704700000000B7
:1016A00080B582B04AF6D010C0F60200FEF752FFB5
:1016B00000200190FFE70198222842DCFFE74AF66C
:1016C000E110C0F60200FEF745FF00200090FFE7A2
:1016D00000980C2819DCFFE70198C0EBC00142F626
:1016E0003800C2F2014000EB8100009900EB41009C
:1016F000B0F902104AF6D810C0F60200FEF72AFF31
:10170000FFE7009801300090E2E70198C0EBC001CC
:1017100042F63800C2F2014000EB8100B0F91C1023
:101720004AF6DD10C0F60200FEF714FF4AF6CA10B2
:10173000C0F60200FEF70EFFFFE7019801300190AE
:10174000B9E74AF6D410C0F60200FEF703FF02B074
:1017500080BD000000000000704700000000000095
:10176000FFE7FEE70000000080B546F28C20C2F2E1
:10177000014001F0D1FF80BD80B546F20430C2F2D5
:10178000014001F0C9FF80BD80B546F27C30C2F255
:10179000014001F0C1FF80BD80B546F2F430C2F2D5
:1017A000014001F0B9FF80BD80B546F26C40C2F245
:1017B000014001F0B1FF80BD80B546F2E440C2F2C5
:1017C000014001F0A9FF80BD80B546F2AC00C2F235
:1017D000014001F0A1FF80BD80B546F22410C2F2A5
:1017E000014001F099FF80BD80B546F29C10C2F225
:1017F000014001F091FF80BD80B546F21420C2F295
:10180000014001F089FF80BD83B002900298016819
:1018100001201022C4F202029142009000F0A38045
:10182000FFE70298016801202822C4F202029142D7
:10183000009000F09880FFE70298016801204022A4
:10184000C4F202029142009000F08D80FFE70298FE
:10185000016801205822C4F202029142009000F077
:101860008280FFE70298016801207022C4F2020220
:101870009142009077D0FFE702980168012088220A
:10188000C4F20202914200906DD0FFE70298016815
:101890000120A022C4F202029142009063D0FFE72F
:1018A000029801680120B822C4F20202914200901D
:1018B00059D0FFE702980168012040F21042C4F2BB
:1018C0000202914200904ED0FFE702980168012089
:1018D00040F22842C4F202029142009043D0FFE756
:1018E00002980168012040F24042C4F20202914293
:1018F000009038D0FFE702980168012040F258427A
:10190000C4F20202914200902DD0FFE702980168D4
:10191000012040F27042C4F202029142009022D0B3
:10192000FFE702980168012040F28842C4F20202F7
:101930009142009017D0FFE702980168012040F221
:10194000A042C4F20202914200900CD0FFE702983C
:1019500000684FF64831CBF6FD710844B0FA80F0CC
:1019600040090090FFE70098C00740B3FFE70298E6
:10197000007810384AF6AB21CAF6AA21A0FB011064
:1019800000090190019800F0070141F63040C0F6CF
:101990000100405C0299C8650198042807D3FFE75D
:1019A00002990868042262F30900886506E002993A
:1019B000086840F2FF3290438865FFE705E002992E
:1019C000086820F0FF008865FFE70298806D03B08B
:1019D000704700000000000084B003900398006886
:1019E000019003980168012045F20842C5F6020201
:1019F000914200904ED0FFE703980168012045F224
:101A00001C42C5F602029142009043D0FFE70398C2
:101A10000168012045F23042C5F602029142009071
:101A200038D0FFE703980168012045F24442C5F62B
:101A30000202914200902DD0FFE703980168012037
:101A400045F25842C5F602029142009022D0FFE7CB
:101A500003980168012045F26C42C5F602029142EA
:101A6000009017D0FFE703980168012045F28042FB
:101A7000C5F60202914200900CD0FFE7039800687F
:101A80004AF66C31CAF2FD710844B0FA80F04009A0
:101A90000090FFE70098C00710B3FFE703980078B5
:101AA00008384CF6CD41CCF6CC41A0FB0110000922
:101AB0000290029945F60000C5F6020000EB810095
:101AC00003990866039945F68000C5F6020048664A
:101AD000029800F01F01012088400399886635E0D4
:101AE0000398007810384AF6AB21CAF6AA21A0FB69
:101AF000011000090290019840F2B841C4F20201BD
:101B000088420CD8FFE7019840F21041C4F202016C
:101B1000884204D3FFE7029808300290FFE7029959
:101B200040F60000C4F2020000EB81000399086651
:101B3000039940F68000C4F202004866029800F063
:101B40001F010120884003998866FFE704B07047B1
:101B500083B002900298007901900198002800F06B
:101B60008A80FFE70198082800F28580FFE7029845
:101B70000168012045F20842C5F602029142009038
:101B80004ED0FFE702980168012045F21C42C5F6DD
:101B900002029142009043D0FFE7029801680120C1
:101BA00045F23042C5F602029142009038D0FFE77C
:101BB00002980168012045F24442C5F602029142B2
:101BC00000902DD0FFE702980168012045F25842AD
:101BD000C5F602029142009022D0FFE70298016808
:101BE000012045F26C42C5F602029142009017D0E6
:101BF000FFE702980168012045F28042C5F6020223
:101C0000914200900CD0FFE7029800684AF66C31D0
:101C1000CAF2FD710844B0FA80F040090090FFE775
:101C20000098C00780B1FFE7019945F6FC00C5F6B2
:101C3000020000EB81000299C866029945F6401047
:101C4000C5F6020008670FE0019940F6FC00C4F2F7
:101C5000020000EB81000299C866029940F640102C
:101C6000C4F202000867FFE70198411E0120884086
:101C700002994867FFE703B07047000000000000CA
:101C800085B0049000208DF80F000498806918BB7F
:101C9000FFE70498806A029003281BD80299DFE8C6
:101CA00001F0020D0218049890F82F00C00720B12F
:101CB000FFE701208DF80F00FFE70CE00498C06AF1
:101CC000B0F1C07F04D1FFE701208DF80F00FFE7DE
:101CD00001E000E0FFE747E004988069B0F5005FAD
:101CE00026D1FFE70498806A019003281ED8019945
:101CF000DFE801F00206021101208DF80F0016E066
:101D0000049890F82F00C00720B1FFE701208DF85C
:101D10000F00FFE70BE00498C06AB0F1C07F04D168
:101D2000FFE701208DF80F00FFE700E0FFE71AE072
:101D30000498806A0090032804D3FFE700980328E2
:101D400004D00EE001208DF80F000BE0049890F80D
:101D50002F00C00720B1FFE701208DF80F00FFE73B
:101D600000E0FFE7FFE7FFE79DF80F0005B07047D1
:101D700089B008900791069205930898806D0490A9
:101D80000898806D03900898016801201022C4F221
:101D900002029142029000F00381FFE70898016877
:101DA00001202822C4F202029142029000F0F88041
:101DB000FFE70898016801204022C4F20202914224
:101DC000029000F0ED80FFE708980168012058229A
:101DD000C4F202029142029000F0E280FFE708980C
:101DE000016801207022C4F202029142029000F0C8
:101DF000D780FFE70898016801208822C4F2020218
:101E00009142029000F0CC80FFE708980168012021
:101E1000A022C4F202029142029000F0C180FFE7CA
:101E2000089801680120B822C4F20202914202908F
:101E300000F0B680FFE708980168012040F21042E8
:101E4000C4F202029142029000F0AA80FFE70898D3
:101E50000168012040F22842C4F20202914202903D
:101E600000F09E80FFE708980168012040F24042A0
:101E7000C4F202029142029000F09280FFE70898BB
:101E80000168012040F25842C4F2020291420290DD
:101E900000F08680FFE708980168012040F2704258
:101EA000C4F20202914202907AD0FFE708980168DA
:101EB000012040F28842C4F20202914202906FD0A7
:101EC000FFE708980168012040F2A042C4F2020234
:101ED0009142029064D0FFE708980168012040F227
:101EE000B842C4F202029142029059D0FFE708982A
:101EF0000168012045F20842C5F6020291420290B3
:101F00004ED0FFE708980168012045F21C42C5F653
:101F100002029142029043D0FFE708980168012035
:101F200045F23042C5F602029142029038D0FFE7F6
:101F300008980168012045F24442C5F60202914228
:101F400002902DD0FFE708980168012045F2584221
:101F5000C5F602029142029022D0FFE7089801687C
:101F6000012045F26C42C5F602029142029017D060
:101F7000FFE708980168012045F28042C5F6020299
:101F8000914202900CD0FFE7089800684AF66C3145
:101F9000CAF2FD710844B0FA80F040090290FFE7F0
:101FA0000298C00770B1FFE70898416E806E4860E4
:101FB0000898C06E28B1FFE70898016F406F48602D
:101FC000FFE7FFE70898016801201022C4F202022F
:101FD0009142019000F0A380FFE70898016801207A
:101FE0002822C4F202029142019000F09880FFE79B
:101FF0000898016801204022C4F202029142019037
:1020000000F08D80FFE70898016801205822C4F293
:1020100002029142019000F08280FFE70898016877
:1020200001207022C4F202029142019077D0FFE7B2
:102030000898016801208822C4F2020291420190AE
:102040006DD0FFE7089801680120A022C4F20202C7
:102050009142019063D0FFE7089801680120B822FF
:10206000C4F202029142019059D0FFE7089801683A
:10207000012040F21042C4F20202914201904ED07F
:10208000FFE708980168012040F22842C4F20202EA
:102090009142019043D0FFE708980168012040F287
:1020A0004042C4F202029142019038D0FFE7089802
:1020B0000168012040F25842C4F2020291420190AC
:1020C0002DD0FFE708980168012040F27042C4F269
:1020D00002029142019022D0FFE708980168012096
:1020E00040F28842C4F202029142019017D0FFE709
:1020F00008980168012040F2A042C4F20202914215
:1021000001900CD0FFE7089800684FF64831CBF6F5
:10211000FD710844B0FA80F040090190FFE7019892
:10212000C00750B3FFE70898C06D00F01F013F20C3
:1021300088400499886008980168086820F4802025
:1021400008600598089909684860089880684028E0
:1021500009D1FFE7069808990968886007980899E7
:102160000968C86008E007980899096888600698B7
:1021700008990968C860FFE782E0089801680120B3
:1021800045F20842C5F60202914200904ED0FFE7A8
:1021900008980168012045F21C42C5F602029142EE
:1021A000009043D0FFE708980168012045F23042D3
:1021B000C5F602029142009038D0FFE70898016806
:1021C000012045F24442C5F60202914200902DD012
:1021D000FFE708980168012045F25842C5F602025F
:1021E0009142009022D0FFE708980168012045F253
:1021F0006C42C5F602029142009017D0FFE70898A2
:102200000168012045F28042C5F602029142009029
:102210000CD0FFE7089800684AF66C31CAF2FD71ED
:102220000844B0FA80F040090090FFE70098C0072A
:1022300020B3FFE70898C06D00F01F01012088401F
:10224000039948600598089909684860089880686B
:10225000402809D1FFE7069808990968886007981F
:1022600008990968C86008E00798089909688860B3
:10227000069808990968C860FFE700E0FFE7FFE7F4
:1022800009B0704700000000704700000000000027
:1022900081B0EFF3108072B60090FFE7FEE7000018
:1022A00080B586B005900491039200208DF80B0054
:1022B0008DF80A0045F6C431C2F201410191019A3C
:1022C000FF211172019A5172019AFE219172019AB5
:1022D0001221D172019A83211173019A2A2151731B
:1022E000019A06219173019A0B21D17305990988EE
:1022F000019A117405994978019A517404990988D1
:10230000019A917404994978019AD17403990988C2
:10231000019A117503994978019A5175019A0C2116
:10232000917505994988019AD1750599C978019ADD
:10233000117604994988019A51760499C978019ACD
:10234000917603994988019AD1760399C978019ABF
:1023500011778DF80A0002208DF80B00FFE79DF839
:102360000B00142811DCFFE701989DF80B100844BE
:10237000017A9DF80A0008448DF80A00FFE79DF8ED
:102380000B0001308DF80B00E9E79DF80A00C0430F
:102390008DF80A009DF80A0001994877019951F8D3
:1023A000080B162208F020F906B080BD00000000DE
:1023B00080B588B08DF81F00069105920493002027
:1023C0008DF80F008DF80E009DF81F000146019159
:1023D000012804D0FFE70198022806D00BE045F65B
:1023E0005C40C2F20140029006E045F65470C2F231
:1023F0000140029000E0FFE70299FF200872029975
:1024000048720299FE20887202992720C8720299A8
:102410008320087302992A20487302990620887342
:102420009DF81F0000EB800004380299C8730698DD
:1024300000880299087406984078029948740598B3
:10244000008802998874059840780299C8740498A5
:1024500000880299087504984078029948759DF89B
:102460001F0000EB800003380299887506984088A9
:102470000299C8750698C078029908760598408830
:10248000029948760598C078029988760498408821
:102490000299C8760498C078029908779DF81F00C1
:1024A00000EB8000023802994877069880880299EC
:1024B0008877069840790299C877059880880299AC
:1024C00081F8200005984079029981F8210004984C
:1024D0008088029981F8220004984079029981F855
:1024E00023009DF81F0000EB80000138029981F85D
:1024F00024000698C088029981F825000698C079C2
:10250000029981F826000598C088029981F8270071
:102510000598C079029981F828000498C08802992A
:1025200081F829000498C079029981F82A009DF861
:102530001F0000EB8000029981F82B0006980089AB
:10254000029981F82C000698407A029981F82D00B2
:1025500005980089029981F82E000598407A029921
:1025600081F82F0004980089029981F830000498BE
:10257000407A029981F8310000208DF80E00022087
:102580008DF80F00FFE79DF80F00292811DCFFE709
:1025900002989DF80F100844017A9DF80E00084437
:1025A0008DF80E00FFE79DF80F0001308DF80F0049
:1025B000E9E79DF80E00C0438DF80E009DF80E006F
:1025C000029981F83200029951F8080B2B2208F089
:1025D0000BF808B080BD000080B584B08DF80F0006
:1025E00000208DF80E008DF80D009DF80F000138C9
:1025F000014601910B282DD80199DFE801F006076B
:10260000080E0F1516171D1E2425FFE7FFE745F6D8
:10261000F440C2F2014002901DE0FFE745F68C5005
:10262000C2F20140029016E0FFE7FFE745F62460A2
:10263000C2F2014002900EE0FFE745F6BC60C2F234
:102640000140029007E0FFE745F6C430C2F20140C6
:10265000029000E0FFE70299FF2008720299487299
:102660009DF80F000299887202990420C87202999D
:1026700002200873029A38215173029A082191733B
:1026800000218DF80D108DF80E00FFE79DF80E006B
:10269000062811DCFFE702989DF80E100844017A25
:1026A0009DF80D0008448DF80D00FFE79DF80E0021
:1026B00001308DF80E00E9E79DF80D00C0438DF85C
:1026C0000D009DF80D000299C873029951F8080B8E
:1026D000082207F089FF04B080BD00000000000060
:1026E00080B58AB0089003F06FFB0490089828B971
:1026F000FFE701208DF8270000F0AABC089890F8A9
:10270000350002280ED0FFE7089980204865FFE7D2
:102710000899002081F83400FFE701208DF8270098
:1027200000F096BC0898016801201022C4F2020251
:102730009142039000F0A380FFE708980168012010
:102740002822C4F202029142039000F09880FFE731
:102750000898016801204022C4F2020291420390CD
:1027600000F08D80FFE70898016801205822C4F22C
:1027700002029142039000F08280FFE7089801680E
:1027800001207022C4F202029142039077D0FFE749
:102790000898016801208822C4F202029142039045
:1027A0006DD0FFE7089801680120A022C4F2020260
:1027B0009142039063D0FFE7089801680120B82296
:1027C000C4F202029142039059D0FFE708980168D1
:1027D000012040F21042C4F20202914203904ED016
:1027E000FFE708980168012040F22842C4F2020283
:1027F0009142039043D0FFE708980168012040F21E
:102800004042C4F202029142039038D0FFE7089898
:102810000168012040F25842C4F202029142039042
:102820002DD0FFE708980168012040F27042C4F201
:1028300002029142039022D0FFE70898016801202C
:1028400040F28842C4F202029142039017D0FFE79F
:1028500008980168012040F2A042C4F202029142AD
:1028600003900CD0FFE7089800684FF64831CBF68C
:10287000FD710844B0FA80F040090390FFE7039827
:10288000C00780B1FFE708980168086820F01E00C3
:10289000086008980168486920F08000486108983D
:1028A0000068059009E008980168086820F00E00AB
:1028B0000860089800680590FFE708980168012003
:1028C0001022C4F202029142029000F00381FFE75D
:1028D0000898016801202822C4F202029142029065
:1028E00000F0F880FFE70898016801204022C4F258
:1028F00002029142029000F0ED80FFE70898016823
:1029000001205822C4F202029142029000F0E280BB
:10291000FFE70898016801207022C4F20202914288
:10292000029000F0D780FFE7089801680120882214
:10293000C4F202029142029000F0CC80FFE70898B6
:1029400001680120A022C4F202029142029000F02C
:10295000C180FFE7089801680120B822C4F2020292
:102960009142029000F0B680FFE7089801680120CC
:1029700040F21042C4F202029142029000F0AA809A
:10298000FFE708980168012040F22842C4F20202E1
:102990009142029000F09E80FFE7089801680120B4
:1029A00040F24042C4F202029142029000F0928052
:1029B000FFE708980168012040F25842C4F2020281
:1029C0009142029000F08680FFE70898016801209C
:1029D00040F27042C4F20202914202907AD0FFE7C4
:1029E00008980168012040F28842C4F20202914234
:1029F00002906FD0FFE708980168012040F2A042E2
:102A0000C4F202029142029064D0FFE70898016884
:102A1000012040F2B842C4F202029142029059D021
:102A2000FFE708980168012045F20842C5F6020256
:102A3000914202904ED0FFE708980168012045F2CC
:102A40001C42C5F602029142029043D0FFE708986B
:102A50000168012045F23042C5F60202914202901F
:102A600038D0FFE708980168012045F24442C5F6D6
:102A70000202914202902DD0FFE7089801680120E0
:102A800045F25842C5F602029142029022D0FFE779
:102A900008980168012045F26C42C5F60202914295
:102AA000029017D0FFE708980168012045F28042A4
:102AB000C5F60202914202900CD0FFE70898006828
:102AC0004AF66C31CAF2FD710844B0FA80F0400950
:102AD0000290FFE70298C00738B1FFE70898016E3F
:102AE000086820F480700860FFE7089800681021EB
:102AF000C4F20201884200F08180FFE70898006874
:102B00002821C4F20201884278D0FFE708980068C3
:102B10004021C4F20201884270D0FFE708980068A3
:102B20005821C4F20201884268D0FFE70898006883
:102B30007021C4F20201884260D0FFE70898006863
:102B40008821C4F20201884258D0FFE70898006843
:102B5000A021C4F20201884250D0FFE70898006823
:102B6000B821C4F20201884248D0FFE70898006803
:102B700040F21041C4F2020188423FD0FFE70898BA
:102B8000006840F22841C4F20201884236D0FFE7D3
:102B90000898006840F24041C4F2020188422DD0FA
:102BA000FFE70898006840F25841C4F202018842E9
:102BB00024D0FFE70898006840F27041C4F2020197
:102BC00088421BD0FFE70898006840F28841C4F2B1
:102BD0000201884212D0FFE70898006840F2A04145
:102BE000C4F20201884209D0FFE70898006840F269
:102BF000B841C4F20201884207D1FFE70898016892
:102C0000086820F00100086006E00898016808687C
:102C100020F001000860FFE7FFE705980068C007A3
:102C2000C8B1FFE703F0D0F80499401A062811D381
:102C3000FFE70899202048650899032081F83500AE
:102C4000FFE70899002081F83400FFE701208DF8A4
:102C50002700FDE1E1E70898016801201022C4F295
:102C600002029142019000F0A380FFE708980168FA
:102C700001202822C4F202029142019000F09880C3
:102C8000FFE70898016801204022C4F20202914245
:102C9000019000F08D80FFE708980168012058221C
:102CA000C4F202029142019000F08280FFE708988E
:102CB000016801207022C4F202029142019077D093
:102CC000FFE70898016801208822C4F202029142BD
:102CD00001906DD0FFE7089801680120A022C4F29E
:102CE00002029142019063D0FFE708980168012039
:102CF000B822C4F202029142019059D0FFE708982D
:102D00000168012040F21042C4F202029142019097
:102D10004ED0FFE708980168012040F22842C4F233
:102D200002029142019043D0FFE708980168012018
:102D300040F24042C4F202029142019038D0FFE7D3
:102D400008980168012040F25842C4F20202914200
:102D500001902DD0FFE708980168012040F27042F1
:102D6000C4F202029142019022D0FFE70898016864
:102D7000012040F28842C4F202029142019017D031
:102D8000FFE708980168012040F2A042C4F2020265
:102D9000914201900CD0FFE7089800684FF6483147
:102DA000CBF6FD710844B0FA80F040090190FFE7CE
:102DB0000198C00760B1FFE70898806D07900898F8
:102DC000C06D00F01F013F208840079988600BE02C
:102DD0000898806D06900898C06D00F01F010120D2
:102DE000884006994860FFE7089801680120102292
:102DF000C4F202029142009000F00381FFE70898BC
:102E0000016801202822C4F202029142009000F0E1
:102E1000F880FFE70898016801204022C4F202020E
:102E20009142009000F0ED80FFE7089801680120D2
:102E30005822C4F202029142009000F0E280FFE7C3
:102E40000898016801207022C4F2020291420090A9
:102E500000F0D780FFE70898016801208822C4F2BB
:102E600002029142009000F0CC80FFE708980168D0
:102E70000120A022C4F202029142009000F0C18021
:102E8000FFE7089801680120B822C4F202029142CB
:102E9000009000F0B680FFE708980168012040F23A
:102EA0001042C4F202029142009000F0AA80FFE7B3
:102EB00008980168012040F22842C4F202029142BF
:102EC000009000F09E80FFE708980168012040F222
:102ED0004042C4F202029142009000F09280FFE76B
:102EE00008980168012040F25842C4F2020291425F
:102EF000009000F08680FFE708980168012040F20A
:102F00007042C4F20202914200907AD0FFE7089822
:102F10000168012040F28842C4F20202914200900E
:102F20006FD0FFE708980168012040F2A042C4F288
:102F300002029142009064D0FFE7089801680120E6
:102F400040F2B842C4F202029142009059D0FFE729
:102F500008980168012045F20842C5F60202914234
:102F600000904ED0FFE708980168012045F21C420E
:102F7000C5F602029142009043D0FFE7089801682D
:102F8000012045F23042C5F602029142009038D04D
:102F9000FFE708980168012045F24442C5F60202A5
:102FA000914200902DD0FFE708980168012045F27A
:102FB0005842C5F602029142009022D0FFE70898DD
:102FC0000168012045F26C42C5F602029142009070
:102FD00017D0FFE708980168012045F28042C5F646
:102FE0000202914200900CD0FFE7089800684AF670
:102FF0006C31CAF2FD710844B0FA80F040090090CB
:10300000FFE70098C007A0B1FFE70898416E806E07
:1030100048600898C06E58B1FFE70898C16E08680C
:1030200020F4807008600898016F406F4860FFE7E7
:10303000FFE70899012081F83500FFE70899002093
:1030400081F83400FFE7FFE700208DF82700FFE755
:103050009DF827000AB080BD80B586B00490049822
:1030600020B9FFE701208DF8170046E3049890F897
:103070003500022807D0FFE7049980204865012029
:103080008DF8170039E30498016801201022C4F27A
:1030900002029142029000F0A380FFE704980168C9
:1030A00001202822C4F202029142029000F098808E
:1030B000FFE70498016801204022C4F20202914215
:1030C000029000F08D80FFE70498016801205822EB
:1030D000C4F202029142029000F08280FFE704985D
:1030E000016801207022C4F202029142029077D05E
:1030F000FFE70498016801208822C4F2020291428D
:1031000002906DD0FFE7049801680120A022C4F26C
:1031100002029142029063D0FFE704980168012007
:10312000B822C4F202029142029059D0FFE70498FB
:103130000168012040F21042C4F202029142029062
:103140004ED0FFE704980168012040F22842C4F203
:1031500002029142029043D0FFE7049801680120E7
:1031600040F24042C4F202029142029038D0FFE79E
:1031700004980168012040F25842C4F202029142D0
:1031800002902DD0FFE704980168012040F27042C0
:10319000C4F202029142029022D0FFE70498016833
:1031A000012040F28842C4F202029142029017D0FC
:1031B000FFE704980168012040F2A042C4F2020235
:1031C000914202900CD0FFE7049800684FF6483116
:1031D000CBF6FD710844B0FA80F040090290FFE799
:1031E0000298C007002800F09D80FFE704990420A2
:1031F00081F83500049800681021C4F20201884269
:1032000000F08180FFE7049800682821C4F20201E1
:10321000884278D0FFE7049800684021C4F2020198
:10322000884270D0FFE7049800685821C4F2020178
:10323000884268D0FFE7049800687021C4F2020158
:10324000884260D0FFE7049800688821C4F2020138
:10325000884258D0FFE704980068A021C4F2020118
:10326000884250D0FFE704980068B821C4F20201F8
:10327000884248D0FFE70498006840F21041C4F249
:10328000020188423FD0FFE70498006840F22841DD
:10329000C4F20201884236D0FFE70498006840F289
:1032A0004041C4F2020188422DD0FFE70498006833
:1032B00040F25841C4F20201884224D0FFE704984A
:1032C000006840F27041C4F2020188421BD0FFE75F
:1032D0000498006840F28841C4F20201884212D08A
:1032E000FFE70498006840F2A041C4F2020188425E
:1032F00009D0FFE70498006840F2B841C4F2020127
:10330000884207D1FFE704980168086820F00100AF
:10331000086006E004980168086820F00100086071
:10332000FFE7E5E104980168086820F00E000860F6
:10333000049800681021C4F20201884200F08180E4
:10334000FFE7049800682821C4F20201884278D07F
:10335000FFE7049800684021C4F20201884270D05F
:10336000FFE7049800685821C4F20201884268D03F
:10337000FFE7049800687021C4F20201884260D01F
:10338000FFE7049800688821C4F20201884258D0FF
:10339000FFE704980068A021C4F20201884250D0DF
:1033A000FFE704980068B821C4F20201884248D0BF
:1033B000FFE70498006840F21041C4F2020188421D
:1033C0003FD0FFE70498006840F22841C4F20201B0
:1033D000884236D0FFE70498006840F24041C4F2CA
:1033E000020188422DD0FFE70498006840F258415E
:1033F000C4F20201884224D0FFE70498006840F23A
:103400007041C4F2020188421BD0FFE704980068B3
:1034100040F28841C4F20201884212D0FFE70498CA
:10342000006840F2A041C4F20201884209D0FFE7DF
:103430000498006840F2B841C4F20201884207D102
:10344000FFE704980168086820F00100086006E0C2
:1034500004980168086820F001000860FFE70498FC
:10346000016801201022C4F202029142019000F092
:103470000381FFE70498016801202822C4F20202B8
:103480009142019000F0F880FFE704980168012064
:103490004022C4F202029142019000F0ED80FFE769
:1034A0000498016801205822C4F20202914201905E
:1034B00000F0E280FFE70498016801207022C4F266
:1034C00002029142019000F0D780FFE70498016862
:1034D00001208822C4F202029142019000F0CC80C7
:1034E000FFE7049801680120A022C4F20202914281
:1034F000019000F0C180FFE7049801680120B82224
:10350000C4F202029142019000F0B680FFE70498F5
:103510000168012040F21042C4F20202914201907F
:1035200000F0AA80FFE704980168012040F22842D9
:10353000C4F202029142019000F09E80FFE70498DD
:103540000168012040F24042C4F20202914201901F
:1035500000F09280FFE704980168012040F2584291
:10356000C4F202029142019000F08680FFE70498C5
:103570000168012040F27042C4F2020291420190BF
:103580007AD0FFE704980168012040F28842C4F233
:103590000202914201906FD0FFE704980168012078
:1035A00040F2A042C4F202029142019064D0FFE7CF
:1035B00004980168012040F2B842C4F2020291422C
:1035C000019059D0FFE704980168012045F20842B4
:1035D000C5F60202914201904ED0FFE704980168BF
:1035E000012045F21C42C5F602029142019043D0EF
:1035F000FFE704980168012045F23042C5F6020257
:103600009142019038D0FFE704980168012045F20B
:103610004442C5F60202914201902DD0FFE7049882
:103620000168012045F25842C5F60202914201901C
:1036300022D0FFE704980168012045F26C42C5F6EC
:1036400002029142019017D0FFE70498016801201F
:1036500045F28042C5F60202914201900CD0FFE78C
:10366000049800684AF66C31CAF2FD710844B0FA59
:1036700080F040090190FFE70198C00728B3FFE7F9
:103680000498016E086820F4807008600498806DCA
:1036900003900498C06D00F01F0101208840039939
:1036A00048600498416E806E48600498C06E58B1BE
:1036B000FFE70498C16E086820F4807008600498E1
:1036C000016F406F4860FFE7FFE70499012081F830
:1036D0003500FFE70499002081F83400FFE70498E3
:1036E000006D20B1FFE70498016D8847FFE7FFE711
:1036F000FFE700208DF81700FFE79DF8170006B0E0
:1037000080BD00000000000081B000900098406D76
:1037100001B070470000000080B590B00F9000200D
:103720000B9047F2BC40C2F20040006848F2B5116D
:10373000C1F64E31A0FB0110800A0A900F98806DEF
:1037400009900F98806D0890099800680E9008986D
:1037500000680D900F98016801201022C4F2020247
:103760009142079000F0A380FFE70F9801680120C5
:103770002822C4F202029142079000F09880FFE7ED
:103780000F98016801204022C4F202029142079082
:1037900000F08D80FFE70F98016801205822C4F2E5
:1037A00002029142079000F08280FFE70F980168C3
:1037B00001207022C4F202029142079077D0FFE705
:1037C0000F98016801208822C4F2020291420790FA
:1037D0006DD0FFE70F9801680120A022C4F2020219
:1037E0009142079063D0FFE70F9801680120B8224B
:1037F000C4F202029142079059D0FFE70F98016886
:10380000012040F21042C4F20202914207904ED0D1
:10381000FFE70F980168012040F22842C4F202023B
:103820009142079043D0FFE70F980168012040F2D2
:103830004042C4F202029142079038D0FFE70F984D
:103840000168012040F25842C4F2020291420790FE
:103850002DD0FFE70F980168012040F27042C4F2BA
:1038600002029142079022D0FFE70F9801680120E1
:1038700040F28842C4F202029142079017D0FFE75B
:103880000F980168012040F2A042C4F20202914266
:1038900007900CD0FFE70F9800684FF64831CBF641
:1038A000FD710844B0FA80F040090790FFE70798DF
:1038B000C007002800F01385FFE70E980F99C96D27
:1038C00001F01F01C8400007002840F1B080FFE769
:1038D0000F9800681021C4F20201884200F0818034
:1038E000FFE70F9800682821C4F20201884278D0CF
:1038F000FFE70F9800684021C4F20201884270D0AF
:10390000FFE70F9800685821C4F20201884268D08E
:10391000FFE70F9800687021C4F20201884260D06E
:10392000FFE70F9800688821C4F20201884258D04E
:10393000FFE70F980068A021C4F20201884250D02E
:10394000FFE70F980068B821C4F20201884248D00E
:10395000FFE70F98006840F21041C4F2020188426C
:103960003FD0FFE70F98006840F22841C4F20201FF
:10397000884236D0FFE70F98006840F24041C4F219
:10398000020188422DD0FFE70F98006840F25841AD
:10399000C4F20201884224D0FFE70F98006840F289
:1039A0007041C4F2020188421BD0FFE70F98006803
:1039B00040F28841C4F20201884212D0FFE70F981A
:1039C000006840F2A041C4F20201884209D0FFE73A
:1039D0000F98006840F2B841C4F20201884207D152
:1039E000FFE70F980068006800F00400069006E00A
:1039F0000F980068006800F008000690FFE706983E
:103A0000A0B1FFE70F980168086820F00400086083
:103A10000F98C06D00F01F01082088400999886048
:103A20000F99486D40F001004865FFE7FFE70E98E9
:103A30000F99C96D01F01F01C840C007002800F0B0
:103A4000A980FFE70F9800681021C4F202018842A4
:103A500000F08180FFE70F9800682821C4F202017E
:103A6000884278D0FFE70F9800684021C4F2020135
:103A7000884270D0FFE70F9800685821C4F2020115
:103A8000884268D0FFE70F9800687021C4F20201F5
:103A9000884260D0FFE70F9800688821C4F20201D5
:103AA000884258D0FFE70F980068A021C4F20201B5
:103AB000884250D0FFE70F980068B821C4F2020195
:103AC000884248D0FFE70F98006840F21041C4F2E6
:103AD000020188423FD0FFE70F98006840F228417A
:103AE000C4F20201884236D0FFE70F98006840F226
:103AF0004041C4F2020188422DD0FFE70F980068D0
:103B000040F25841C4F20201884224D0FFE70F98E6
:103B1000006840F27041C4F2020188421BD0FFE706
:103B20000F98006840F28841C4F20201884212D026
:103B3000FFE70F98006840F2A041C4F202018842FA
:103B400009D0FFE70F98006840F2B841C4F20201C3
:103B5000884207D1FFE70F980068406900F08000B5
:103B6000059005E00F980068006800200590FFE7C9
:103B7000059870B1FFE70F98C06D00F01F0101209C
:103B80008840099988600F99486D40F002004865A7
:103B9000FFE7FFE70E980F99C96D01F01F01C840BC
:103BA0004007002840F1A980FFE70F980068102126
:103BB000C4F20201884200F08180FFE70F9800689C
:103BC0002821C4F20201884278D0FFE70F980068EC
:103BD0004021C4F20201884270D0FFE70F980068CC
:103BE0005821C4F20201884268D0FFE70F980068AC
:103BF0007021C4F20201884260D0FFE70F9800688C
:103C00008821C4F20201884258D0FFE70F9800686B
:103C1000A021C4F20201884250D0FFE70F9800684B
:103C2000B821C4F20201884248D0FFE70F9800682B
:103C300040F21041C4F2020188423FD0FFE70F98E2
:103C4000006840F22841C4F20201884236D0FFE702
:103C50000F98006840F24041C4F2020188422DD022
:103C6000FFE70F98006840F25841C4F20201884211
:103C700024D0FFE70F98006840F27041C4F20201BF
:103C800088421BD0FFE70F98006840F28841C4F2D9
:103C90000201884212D0FFE70F98006840F2A0416D
:103CA000C4F20201884209D0FFE70F98006840F291
:103CB000B841C4F20201884207D1FFE70F980068BB
:103CC000006800F00200049005E00F9800680068AA
:103CD00000200490FFE7049870B1FFE70F98C06DD3
:103CE00000F01F0104208840099988600F99486DF1
:103CF00040F004004865FFE7FFE70E980F99C96D93
:103D000001F01F01C840C006002840F1DE80FFE737
:103D10000F9800681021C4F20201884200F08180EF
:103D2000FFE70F9800682821C4F20201884278D08A
:103D3000FFE70F9800684021C4F20201884270D06A
:103D4000FFE70F9800685821C4F20201884268D04A
:103D5000FFE70F9800687021C4F20201884260D02A
:103D6000FFE70F9800688821C4F20201884258D00A
:103D7000FFE70F980068A021C4F20201884250D0EA
:103D8000FFE70F980068B821C4F20201884248D0CA
:103D9000FFE70F98006840F21041C4F20201884228
:103DA0003FD0FFE70F98006840F22841C4F20201BB
:103DB000884236D0FFE70F98006840F24041C4F2D5
:103DC000020188422DD0FFE70F98006840F2584169
:103DD000C4F20201884224D0FFE70F98006840F245
:103DE0007041C4F2020188421BD0FFE70F980068BF
:103DF00040F28841C4F20201884212D0FFE70F98D6
:103E0000006840F2A041C4F20201884209D0FFE7F5
:103E10000F98006840F2B841C4F20201884207D10D
:103E2000FFE70F980068006800F00800039006E0C4
:103E30000F980068006800F004000390FFE7039803
:103E4000002841D0FFE70F98C06D00F01F0110203F
:103E50008840099988600F9800680068400300282E
:103E60001AD5FFE70F98006800680003002809D4FE
:103E7000FFE70F98006C20B1FFE70F98016C8847AF
:103E8000FFE708E00F98806C20B1FFE70F98816C86
:103E90008847FFE7FFE716E00F9800680068C00555
:103EA000002807D4FFE70F980168086820F0080091
:103EB0000860FFE70F98006C20B1FFE70F98016CD6
:103EC0008847FFE7FFE7FFE7FFE70E980F99C96D07
:103ED00001F01F01C8408006002840F12681FFE75D
:103EE0000F9800681021C4F20201884200F081801E
:103EF000FFE70F9800682821C4F20201884278D0B9
:103F0000FFE70F9800684021C4F20201884270D098
:103F1000FFE70F9800685821C4F20201884268D078
:103F2000FFE70F9800687021C4F20201884260D058
:103F3000FFE70F9800688821C4F20201884258D038
:103F4000FFE70F980068A021C4F20201884250D018
:103F5000FFE70F980068B821C4F20201884248D0F8
:103F6000FFE70F98006840F21041C4F20201884256
:103F70003FD0FFE70F98006840F22841C4F20201E9
:103F8000884236D0FFE70F98006840F24041C4F203
:103F9000020188422DD0FFE70F98006840F2584197
:103FA000C4F20201884224D0FFE70F98006840F273
:103FB0007041C4F2020188421BD0FFE70F980068ED
:103FC00040F28841C4F20201884212D0FFE70F9804
:103FD000006840F2A041C4F20201884209D0FFE724
:103FE0000F98006840F2B841C4F20201884207D13C
:103FF000FFE70F980068006800F01000029006E0EC
:104000000F980068006800F002000290FFE7029835
:10401000002800F08980FFE70F98C06D00F01F01B5
:1040200020208840099988600F9890F8350004286E
:1040300037D1FFE70F980168086820F01600086084
:104040000F980168486920F0800048610F98006C63
:1040500020B9FFE70F98806C38B1FFE70F9801682F
:10406000086820F008000860FFE70F98C06D00F0B6
:104070001F013F208840099988600F99012081F82D
:104080003500FFE70F99002081F83400FFE70F9813
:10409000006D20B1FFE70F98016D8847FFE700F042
:1040A00019BC0F9800680068400300281AD5FFE784
:1040B0000F98006800680003002809D4FFE70F98F4
:1040C000406C20B1FFE70F98416C8847FFE708E09C
:1040D0000F98C06B20B1FFE70F98C16B8847FFE7CF
:1040E000FFE720E00F9800680068C005002811D4A1
:1040F000FFE70F980168086820F0100008600F992A
:10410000012081F83500FFE70F99002081F8340085
:10411000FFE7FFE70F98C06B20B1FFE70F98C16B77
:104120008847FFE7FFE7FFE7FFE70F98406D0028AC
:1041300000F0D480FFE70F98406DC007002800F022
:10414000C480FFE70F99042081F835000F980068BC
:104150001021C4F20201884200F08180FFE70F982D
:1041600000682821C4F20201884278D0FFE70F9846
:1041700000684021C4F20201884270D0FFE70F9826
:1041800000685821C4F20201884268D0FFE70F9806
:1041900000687021C4F20201884260D0FFE70F98E6
:1041A00000688821C4F20201884258D0FFE70F98C6
:1041B0000068A021C4F20201884250D0FFE70F98A6
:1041C0000068B821C4F20201884248D0FFE70F9886
:1041D000006840F21041C4F2020188423FD0FFE77C
:1041E0000F98006840F22841C4F20201884236D09C
:1041F000FFE70F98006840F24041C4F20201884294
:104200002DD0FFE70F98006840F25841C4F2020138
:10421000884224D0FFE70F98006840F27041C4F252
:10422000020188421BD0FFE70F98006840F28841E6
:10423000C4F20201884212D0FFE70F98006840F2F2
:10424000A041C4F20201884209D0FFE70F9800683C
:1042500040F2B841C4F20201884207D1FFE70F984B
:104260000168086820F00100086006E00F98016806
:10427000086820F001000860FFE7FFE70B980130B5
:104280000B900A99884201D9FFE707E0FFE70F98F2
:1042900000680068C0070028F0D1FFE70F980068A9
:1042A0000068C00728B1FFE70F99032081F83500A7
:1042B00004E00F99012081F83500FFE7FFE70F992F
:1042C000002081F83400FFE7FFE70F98C06C20B1B1
:1042D000FFE70F98C16C8847FFE7FFE7FAE20F9806
:1042E0000168012045F20842C5F6020291420190A0
:1042F0004ED0FFE70F980168012045F21C42C5F639
:1043000002029142019043D0FFE70F98016801201B
:1043100045F23042C5F602029142019038D0FFE7E3
:104320000F980168012045F24442C5F6020291420D
:1043300001902DD0FFE70F980168012045F2584207
:10434000C5F602029142019022D0FFE70F98016862
:10435000012045F26C42C5F602029142019017D04D
:10436000FFE70F980168012045F28042C5F602027E
:10437000914201900CD0FFE70F9800684AF66C312B
:10438000CAF2FD710844B0FA80F040090190FFE7DD
:104390000198C007002800F09B82FFE70F98006893
:1043A00000680C900D980F99C96D01F01F01C8406D
:1043B0004007002840F1D780FFE79DF83000400714
:1043C000002840F1D080FFE70F98C06D00F01F017A
:1043D00004208840089948609DF8310000060028B4
:1043E00018D5FFE79DF83200C00748B9FFE70F98DE
:1043F000806C20B1FFE70F98816C8847FFE708E0E9
:104400000F98006C20B1FFE70F98016C8847FFE719
:10441000FFE7A7E09DF830008006002800F19980B2
:10442000FFE70F9800681021C4F20201884200F0F3
:104430008180FFE70F9800682821C4F202018842BA
:1044400078D0FFE70F9800684021C4F2020188424B
:1044500070D0FFE70F9800685821C4F2020188422B
:1044600068D0FFE70F9800687021C4F2020188420B
:1044700060D0FFE70F9800688821C4F202018842EB
:1044800058D0FFE70F980068A021C4F202018842CB
:1044900050D0FFE70F980068B821C4F202018842AB
:1044A00048D0FFE70F98006840F21041C4F20201C3
:1044B00088423FD0FFE70F98006840F22841C4F2DD
:1044C0000201884236D0FFE70F98006840F2404171
:1044D000C4F2020188422DD0FFE70F98006840F235
:1044E0005841C4F20201884224D0FFE70F980068C7
:1044F00040F27041C4F2020188421BD0FFE70F98DE
:10450000006840F28841C4F20201884212D0FFE7FD
:104510000F98006840F2A041C4F20201884209D01D
:10452000FFE70F98006840F2B841C4F202018842E8
:1045300007D1FFE70F980168086820F008000860BD
:1045400006E00F980168086820F004000860FFE7A3
:10455000FFE70F98006C20B1FFE70F98016C8847C8
:10456000FFE7FFE7B3E10D980F99C96D01F01F0157
:10457000C8408007002840F1E180FFE79DF8300047
:104580008007002840F1DA80FFE70F98C06D00F047
:104590001F0102208840089948609DF831000006FC
:1045A000002818D5FFE79DF83200C00748B9FFE79B
:1045B0000F98406C20B1FFE70F98416C8847FFE7E8
:1045C00008E00F98C06B20B1FFE70F98C16B8847D8
:1045D000FFE7FFE7B1E09DF830008006002800F11A
:1045E000A380FFE70F9800681021C4F202018842FF
:1045F00000F08180FFE70F9800682821C4F20201D3
:10460000884278D0FFE70F9800684021C4F2020189
:10461000884270D0FFE70F9800685821C4F2020169
:10462000884268D0FFE70F9800687021C4F2020149
:10463000884260D0FFE70F9800688821C4F2020129
:10464000884258D0FFE70F980068A021C4F2020109
:10465000884250D0FFE70F980068B821C4F20201E9
:10466000884248D0FFE70F98006840F21041C4F23A
:10467000020188423FD0FFE70F98006840F22841CE
:10468000C4F20201884236D0FFE70F98006840F27A
:104690004041C4F2020188422DD0FFE70F98006824
:1046A00040F25841C4F20201884224D0FFE70F983B
:1046B000006840F27041C4F2020188421BD0FFE75B
:1046C0000F98006840F28841C4F20201884212D07B
:1046D000FFE70F98006840F2A041C4F2020188424F
:1046E00009D0FFE70F98006840F2B841C4F2020118
:1046F000884207D1FFE70F980168086820F014008E
:10470000086006E00F980168086820F00A00086059
:10471000FFE70F99012081F83500FFE70F9900208E
:1047200081F83400FFE7FFE70F98C06B20B1FFE787
:104730000F98C16B8847FFE7FFE7C7E00D980F9917
:10474000C96D01F01F01C8400007002840F1BC807E
:10475000FFE79DF830000007002840F1B580FFE733
:104760000F9800681021C4F20201884200F0818095
:10477000FFE70F9800682821C4F20201884278D030
:10478000FFE70F9800684021C4F20201884270D010
:10479000FFE70F9800685821C4F20201884268D0F0
:1047A000FFE70F9800687021C4F20201884260D0D0
:1047B000FFE70F9800688821C4F20201884258D0B0
:1047C000FFE70F980068A021C4F20201884250D090
:1047D000FFE70F980068B821C4F20201884248D070
:1047E000FFE70F98006840F21041C4F202018842CE
:1047F0003FD0FFE70F98006840F22841C4F2020161
:10480000884236D0FFE70F98006840F24041C4F27A
:10481000020188422DD0FFE70F98006840F258410E
:10482000C4F20201884224D0FFE70F98006840F2EA
:104830007041C4F2020188421BD0FFE70F98006864
:1048400040F28841C4F20201884212D0FFE70F987B
:10485000006840F2A041C4F20201884209D0FFE79B
:104860000F98006840F2B841C4F20201884207D1B3
:10487000FFE70F980168086820F01C00086006E058
:104880000F980168086820F00E000860FFE70F9895
:10489000C06D00F01F01012000FA01F1089A51607B
:1048A0000F9948650F9981F83500FFE70F990020AF
:1048B00081F83400FFE70F98C06C20B1FFE70F9834
:1048C000C16C8847FFE700E0FFE7FFE7FFE700E094
:1048D000FFE7FFE710B080BD10B58EB00C9001F07F
:1048E00073FA0A900C9828B9FFE701208DF8370079
:1048F00000F09FBC0C98016801201022C4F2020253
:104900009142079000F0A380FFE70C980168012016
:104910002822C4F202029142079000F09880FFE73B
:104920000C98016801204022C4F2020291420790D3
:1049300000F08D80FFE70C98016801205822C4F236
:1049400002029142079000F08280FFE70C98016814
:1049500001207022C4F202029142079077D0FFE753
:104960000C98016801208822C4F20202914207904B
:104970006DD0FFE70C9801680120A022C4F202026A
:104980009142079063D0FFE70C9801680120B8229C
:10499000C4F202029142079059D0FFE70C980168D7
:1049A000012040F21042C4F20202914207904ED020
:1049B000FFE70C980168012040F22842C4F202028D
:1049C0009142079043D0FFE70C980168012040F224
:1049D0004042C4F202029142079038D0FFE70C989F
:1049E0000168012040F25842C4F20202914207904D
:1049F0002DD0FFE70C980168012040F27042C4F20C
:104A000002029142079022D0FFE70C980168012032
:104A100040F28842C4F202029142079017D0FFE7A9
:104A20000C980168012040F2A042C4F202029142B7
:104A300007900CD0FFE70C9800684FF64831CBF692
:104A4000FD710844B0FA80F040090790FFE707982D
:104A5000C007002800F07981FFE70C98406A08B190
:104A6000FFE7FFE70C99022081F83500FFE70C997A
:104A7000002081F83400FFE70C9800681021C4F290
:104A80000201884200F08180FFE70C98006828212D
:104A9000C4F20201884278D0FFE70C9800684021F8
:104AA000C4F20201884270D0FFE70C9800685821D8
:104AB000C4F20201884268D0FFE70C9800687021B8
:104AC000C4F20201884260D0FFE70C980068882198
:104AD000C4F20201884258D0FFE70C980068A02178
:104AE000C4F20201884250D0FFE70C980068B82158
:104AF000C4F20201884248D0FFE70C98006840F2F7
:104B00001041C4F2020188423FD0FFE70C980068D0
:104B100040F22841C4F20201884236D0FFE70C98E7
:104B2000006840F24041C4F2020188422DD0FFE704
:104B30000C98006840F25841C4F20201884224D027
:104B4000FFE70C98006840F27041C4F2020188420D
:104B50001BD0FFE70C98006840F28841C4F20201C4
:104B6000884212D0FFE70C98006840F2A041C4F2DE
:104B70000201884209D0FFE70C98006840F2B84172
:104B8000C4F20201884207D1FFE70C980168086867
:104B900020F00100086006E00C980168086820F029
:104BA00001000860FFE7FFE70C9800680068C00795
:104BB00098B1FFE701F008F90A99401A06280BD3CB
:104BC000FFE70C99202048650C99032081F83500F7
:104BD00001208DF837002CE3E6E70C9800680068A8
:104BE0000B900B9848F23F01CFF6106108400B90F4
:104BF0000C998868D1F80CC00B694A6940EA0C002E
:104C0000184310438A691043CA691043096A014373
:104C10000B9808430B900C98406A042808D1FFE7D2
:104C20000C99C86A096B01430B9808430B90FFE786
:104C300041F20000C5F6004000684FF6FF7188435E
:104C4000B0F1005F40D3FFE70C984068292807D3F4
:104C5000FFE70C98416801202F2906902AD3FFE72F
:104C60000C9840683F2807D3FFE70C984168012063
:104C7000432906901ED3FFE70C984068472807D3C6
:104C8000FFE70C98416801204929069012D3FFE7FD
:104C90000C98416800204F29059008D3FFE70C9835
:104CA00041680020532938BF01200590FFE705988F
:104CB0000690FFE70698C00728B1FFE70B9840F47D
:104CC00080100B90FFE7FFE70B980C9909680860CC
:104CD0000C98006840690B900B9820F007000B902F
:104CE0000C98416A0B9808430B900C98406A042872
:104CF0001AD1FFE70C98816A0B9808430B900C9827
:104D0000C06A80B1FFE70C98FCF7BAFF50B1FFE72B
:104D10000C99402048650C99012081F835008DF8E8
:104D2000370086E2FFE7FFE70B980C9909684861B6
:104D30000C98FCF769FD09900C98C06D00F01F01FC
:104D40003F2088400999886026E10C98016801207D
:104D500045F20842C5F60202914204904ED0FFE7A8
:104D60000C980168012045F21C42C5F602029142EE
:104D7000049043D0FFE70C980168012045F23042CF
:104D8000C5F602029142049038D0FFE70C98016802
:104D9000012045F24442C5F60202914204902DD012
:104DA000FFE70C980168012045F25842C5F602025F
:104DB0009142049022D0FFE70C980168012045F24F
:104DC0006C42C5F602029142049017D0FFE70C989E
:104DD0000168012045F28042C5F60202914204902A
:104DE0000CD0FFE70C9800684AF66C31CAF2FD71EE
:104DF0000844B0FA80F040090490FFE70498C00727
:104E0000002800F0BD80FFE70C980168012045F202
:104E10000842C5F60202914203904ED0FFE70C987B
:104E20000168012045F21C42C5F60202914203903E
:104E300043D0FFE70C980168012045F23042C5F6E7
:104E400002029142039038D0FFE70C9801680120DC
:104E500045F24442C5F60202914203902DD0FFE78D
:104E60000C980168012045F25842C5F602029142B1
:104E7000039022D0FFE70C980168012045F26C42B4
:104E8000C5F602029142039017D0FFE70C98016823
:104E9000012045F28042C5F60202914203900CD0F7
:104EA000FFE70C9800684AF66C31CAF2FD710844BD
:104EB000B0FA80F040090390FFE70398C00708B1FB
:104EC000FFE7FFE70C99022081F83500FFE70C9916
:104ED000002081F83400FFE70C98006800680B9010
:104EE0000B986FF310100B900C988068402803D13A
:104EF000FFE71020029008E00C9880688038B0FA34
:104F000080F0400980030290FFE702980C99CA687C
:104F10000B69D1F814C0D1F818E0CC694EEA040E40
:104F20004CEA0E0C43EA0C031A4340EAD200096A29
:104F300040EA11110B9808430B900B980C990968E3
:104F400008600C9908684AF6F832CAF2FD721044FB
:104F50004CF6CD42CCF6CC42A0FB02026FF003002F
:104F600000EA9200C8650C98FCF74EFC08900C987B
:104F7000C06D00F01F0101208840089948600AE0D8
:104F80000C99402048650C99032081F835000120D8
:104F90008DF837004DE1FFE70C98016801201022E1
:104FA000C4F202029142019000F00381FFE70C98E5
:104FB000016801202822C4F202029142019000F00F
:104FC000F880FFE70C98016801204022C4F2020239
:104FD0009142019000F0ED80FFE70C9801680120FC
:104FE0005822C4F202029142019000F0E280FFE7F1
:104FF0000C98016801207022C4F2020291420190D3
:1050000000F0D780FFE70C98016801208822C4F2E5
:1050100002029142019000F0CC80FFE70C980168F9
:105020000120A022C4F202029142019000F0C1804E
:10503000FFE70C9801680120B822C4F202029142F5
:10504000019000F0B680FFE70C980168012040F263
:105050001042C4F202029142019000F0AA80FFE7E0
:105060000C980168012040F22842C4F202029142E9
:10507000019000F09E80FFE70C980168012040F24B
:105080004042C4F202029142019000F09280FFE798
:105090000C980168012040F25842C4F20202914289
:1050A000019000F08680FFE70C980168012040F233
:1050B0007042C4F20202914201907AD0FFE70C984C
:1050C0000168012040F28842C4F20202914201903C
:1050D0006FD0FFE70C980168012040F2A042C4F2B3
:1050E00002029142019064D0FFE70C980168012010
:1050F00040F2B842C4F202029142019059D0FFE757
:105100000C980168012045F20842C5F6020291425E
:1051100001904ED0FFE70C980168012045F21C4237
:10512000C5F602029142019043D0FFE70C98016856
:10513000012045F23042C5F602029142019038D07A
:10514000FFE70C980168012045F24442C5F60202CF
:10515000914201902DD0FFE70C980168012045F2A3
:105160005842C5F602029142019022D0FFE70C9806
:105170000168012045F26C42C5F60202914201909D
:1051800017D0FFE70C980168012045F28042C5F670
:105190000202914201900CD0FFE70C9800684AF699
:1051A0006C31CAF2FD710844B0FA80F040090190F8
:1051B000FFE70198C00790B3FFE70C98FCF70CFCE1
:1051C0000C988068802804D1FFE70C990020486083
:1051D000FFE70C990879096E08600C98416E806EA3
:1051E00048600C98406888B1FFE70C984068082830
:1051F0000CD8FFE70C98FCF7ABFC0C98C16E0020B4
:1052000008600C98016F406F486007E00C9900201F
:10521000C8660C9908670C994867FFE7FFE70C9987
:10522000002048650C9A012182F835108DF837006E
:10523000FFE79DF837000EB010BD00000000000031
:1052400080B588B0069005910492039300208DF8F4
:105250000B00069820B9FFE701208DF81F006CE3D2
:10526000FFE7069890F83400012804D1FFE70220F8
:105270008DF81F0061E30699012081F83400FFE7F3
:10528000FFE7069890F83500012840F04383FFE7D8
:105290000699022081F83500069900204865069895
:1052A00000681021C4F20201884200F08180FFE70B
:1052B000069800682821C4F20201884278D0FFE7EE
:1052C000069800684021C4F20201884270D0FFE7CE
:1052D000069800685821C4F20201884268D0FFE7AE
:1052E000069800687021C4F20201884260D0FFE78E
:1052F000069800688821C4F20201884258D0FFE76E
:1053000006980068A021C4F20201884250D0FFE74D
:1053100006980068B821C4F20201884248D0FFE72D
:105320000698006840F21041C4F2020188423FD062
:10533000FFE70698006840F22841C4F20201884263
:1053400036D0FFE70698006840F24041C4F20201FF
:1053500088422DD0FFE70698006840F25841C4F219
:105360000201884224D0FFE70698006840F27041AD
:10537000C4F2020188421BD0FFE70698006840F2A1
:105380008841C4F20201884212D0FFE70698006803
:1053900040F2A041C4F20201884209D0FFE706981A
:1053A000006840F2B841C4F20201884207D1FFE729
:1053B00006980168086820F00100086006E0069879
:1053C0000168086820F001000860FFE70698059969
:1053D000049A039BFCF7CCFC06980168012010227C
:1053E000C4F202029142019000F0A380FFE7069808
:1053F000016801202822C4F202029142019000F0CB
:105400009880FFE70698016801204022C4F202025A
:105410009142019000F08D80FFE70698016801201D
:105420005822C4F202029142019000F08280FFE70C
:105430000698016801207022C4F202029142019094
:1054400077D0FFE70698016801208822C4F20202A3
:10545000914201906DD0FFE7069801680120A022DB
:10546000C4F202029142019063D0FFE706980168FE
:105470000120B822C4F202029142019059D0FFE704
:1054800006980168012040F21042C4F202029142E3
:1054900001904ED0FFE706980168012040F22842B3
:1054A000C4F202029142019043D0FFE706980168DE
:1054B000012040F24042C4F202029142019038D0F1
:1054C000FFE706980168012040F25842C4F2020248
:1054D000914201902DD0FFE706980168012040F22B
:1054E0007042C4F202029142019022D0FFE7069876
:1054F0000168012040F28842C4F202029142019008
:1055000017D0FFE706980168012040F2A042C4F2DC
:105510000202914201900CD0FFE7069800684FF616
:105520004831CBF6FD710844B0FA80F04009019093
:10553000FFE70198C007A8B1FFE706980068006878
:105540000B2161F344000699096808600698006C15
:1055500038B1FFE706980168086840F00800086065
:10556000FFE714E0069800680068052161F3430036
:105570000699096808600698006C38B1FFE706983C
:105580000168086840F004000860FFE7FFE706983C
:10559000016801201022C4F202029142009000F042
:1055A0000381FFE70698016801202822C4F2020265
:1055B0009142009000F0F880FFE706980168012012
:1055C0004022C4F202029142009000F0ED80FFE719
:1055D0000698016801205822C4F20202914200900C
:1055E00000F0E280FFE70698016801207022C4F213
:1055F00002029142009000F0D780FFE70698016810
:1056000001208822C4F202029142009000F0CC8076
:10561000FFE7069801680120A022C4F2020291422D
:10562000009000F0C180FFE7069801680120B822D1
:10563000C4F202029142009000F0B680FFE70698A3
:105640000168012040F21042C4F20202914200902F
:1056500000F0AA80FFE706980168012040F2284286
:10566000C4F202029142009000F09E80FFE706988B
:105670000168012040F24042C4F2020291420090CF
:1056800000F09280FFE706980168012040F258423E
:10569000C4F202029142009000F08680FFE7069873
:1056A0000168012040F27042C4F20202914200906F
:1056B0007AD0FFE706980168012040F28842C4F2E0
:1056C0000202914200906FD0FFE706980168012026
:1056D00040F2A042C4F202029142009064D0FFE77F
:1056E00006980168012040F2B842C4F202029142D9
:1056F000009059D0FFE706980168012045F2084262
:10570000C5F60202914200904ED0FFE7069801686C
:10571000012045F21C42C5F602029142009043D09E
:10572000FFE706980168012045F23042C5F6020203
:105730009142009038D0FFE706980168012045F2B9
:105740004442C5F60202914200902DD0FFE7069830
:105750000168012045F25842C5F6020291420090CC
:1057600022D0FFE706980168012045F26C42C5F699
:1057700002029142009017D0FFE7069801680120CD
:1057800045F28042C5F60202914200900CD0FFE73C
:10579000069800684AF66C31CAF2FD710844B0FA06
:1057A00080F040090090FFE70098C007D0B1FFE704
:1057B0000698006E0068C003002807D5FFE706982A
:1057C000016E086840F480700860FFE70698C06EBC
:1057D00038B1FFE70698C16E086840F48070086031
:1057E000FFE7FFE7069800681021C4F20201884233
:1057F00000F08180FFE7069800682821C4F20201CA
:10580000884278D0FFE7069800684021C4F2020180
:10581000884270D0FFE7069800685821C4F2020160
:10582000884268D0FFE7069800687021C4F2020140
:10583000884260D0FFE7069800688821C4F2020120
:10584000884258D0FFE706980068A021C4F2020100
:10585000884250D0FFE706980068B821C4F20201E0
:10586000884248D0FFE70698006840F21041C4F231
:10587000020188423FD0FFE70698006840F22841C5
:10588000C4F20201884236D0FFE70698006840F271
:105890004041C4F2020188422DD0FFE7069800681B
:1058A00040F25841C4F20201884224D0FFE7069832
:1058B000006840F27041C4F2020188421BD0FFE749
:1058C0000698006840F28841C4F20201884212D072
:1058D000FFE70698006840F2A041C4F20201884246
:1058E00009D0FFE70698006840F2B841C4F202010F
:1058F000884207D1FFE706980168086840F0010078
:10590000086006E006980168086840F00100086039
:10591000FFE70DE006994FF400604865FFE7069940
:10592000002081F83400FFE701208DF80B00FFE72D
:105930009DF80B008DF81F00FFE79DF81F0008B0D1
:1059400080BD00000000000080B584B0039000F02E
:105950003BFA0290039801900198013048B1FFE7AB
:1059600045F6B010C2F20140017801980844019058
:10597000FFE7FFE700F028FA0299401A01998842F0
:1059800001D2FFE7F6E704B080BD00000000000090
:1059900090B00F900E9100200D908020C5F6000071
:1059A0000A90FFE70E9800680D99C840002800F0A3
:1059B000CF81FFE70E9800680D9A012191400840C1
:1059C0000C900C98002800F0BF81FFE70E9840680B
:1059D00000F00300012807D0FFE70E98406800F0B0
:1059E000030002282FD1FFE70F9880680B900D98D5
:1059F0004100032000FA01F10B9888430B900E98A8
:105A0000C0680D99490000FA01F10B9808430B900A
:105A10000B980F9988600F9840680B900D990120A2
:105A200000FA01F10B9888430B900E984068C0F380
:105A300000100D9900FA01F10B9808430B900B9898
:105A40000F994860FFE70E98406800F003000328B4
:105A500018D0FFE70F98C0680B900D984100032005
:105A600000FA01F10B9888430B900E9880680D990D
:105A7000490000FA01F10B9808430B900B980F991D
:105A8000C860FFE70E98406800F00300022826D1A6
:105A9000FFE70F980D996FF0030202EA51010844E5
:105AA000006A0B900D9800F0070081000F2000FAAB
:105AB00001F10B9888430B900E9800690D9901F045
:105AC0000701890000FA01F10B9808430B900B982D
:105AD0000F990D9B02EA530211440862FFE70F98E9
