:020000040800F2
:100000007095012441040008A16C0008A567000850
:100010009D6C00084D0C00087D8000080000000069
:100020000000000000000000000000008103000844
:100030005D12000800000000DD03000805700008E4
:100040005B0400085B0400085B0400085B04000814
:100050005B0400085B0400085B0400085B04000804
:100060005B0400085B0400085B040008510C0008F6
:10007000610C0008710C0008810C0008910C00084C
:10008000A10C0008B10C00085B0400085B04000828
:100090005B0400085B0400085B0400085B040008C4
:1000A0005B0400085B0400085B0400085B040008B4
:1000B0005B0400085B040008797200085B04000818
:1000C0005B0400085B0400085B0400085B04000894
:1000D0005B04000841800008558000086980000822
:1000E0005B0400085B040008000000005B040008DB
:1000F0005B0400085B0400085B040008C10C0008F6
:100100005B0400085B0400085B0400085B04000853
:1001100079740008897400088D7200085B04000877
:10012000D10C0008E10C00085B0400085B04000827
:100130005B0400085B0400085B0400085B04000823
:1001400000000000000000000000000000000000AF
:100150005B0400085B0400085B0400085B04000803
:100160005B0400085B0400085B0400085B040008F3
:100170005B0400085B0400085B040008000000004A
:100180005B0400085B0400085B0400085B040008D3
:100190005B0400085B0400085B0400085B040008C3
:1001A0005B0400085B0400085B0400085B040008B3
:1001B0005B0400085B0400085B0400085B040008A3
:1001C0005B0400085B0400085B0400085B04000893
:1001D0005B0400085B0400085B0400085B04000883
:1001E0005B0400085B0400085B0400085B04000873
:1001F0005B0400085B0400085B0400085B04000863
:100200005B0400085B0400085B0400085B04000852
:100210005B0400085B040008697200085B040008C6
:100220005B0400085B0400085B0400080000000099
:100230005B0400085B040008000000005B04000889
:100240005B0400085B0400085B0400085B04000812
:100250005B0400085B0400085B0400085B04000802
:100260005B0400085B0400085B0400085B040008F2
:100270005B0400085B0400085B0400080000000049
:100280005B0400085B0400085B0400080000000039
:10029000000000005B04000800F002F800F061F8C4
:1002A0000AA090E8000C82448344AAF10107DA45D1
:1002B00001D100F056F8AFF2090EBAE80F0013F0C2
:1002C000010F18BFFB1A43F001031847E89900001B
:1002D000089A00000A444FF0000C10F8013B13F09C
:1002E000070408BF10F8014B1D1108BF10F8015B8F
:1002F000641E05D010F8016B641E01F8016BF9D182
:1003000013F0080F1EBF10F8014BAD1C0C1B09D1D8
:100310006D1E58BF01F801CBFAD505E014F8016B4A
:1003200001F8016B6D1EF9D59142D6D370470000DC
:100330000023002400250026103A28BF78C1FBD8EE
:10034000520728BF30C148BF0B607047642900F0D6
:100350004F81002070471FB509F012FC1FBD10B57A
:1003600010BD00F069FA1146FFF7F5FF08F080FBB9
:1003700000F087FA03B4FFF7F2FF03BC08F068FB54
:100380002C4B19680868B0E8F04F80F30988BFF378
:100390006F8F4FF0000080F311887047000000005D
:1003A00008480068006880F308884FF0000080F378
:1003B000148862B661B6BFF34F8FBFF36F8F00DF53
:1003C00000BF00BF08ED00E0DFF80C00016841F459
:1003D00070010160704700BF88ED00E0EFF3098015
:1003E000BFF36F8F134B1A681EF0100F08BF20ED7C
:1003F000108A20E9F04F106009B44FF0500080F3EC
:100400001188BFF34F8FBFF36F8F09F009F94FF0D9
:10041000000080F3118809BC19680868B0E8F04F43
:100420001EF0100F08BFB0EC108A80F30988BFF3EC
:100430006F8F70472C000024EFF305807047000099
:100440000948804709480047FEE7FEE7FEE7FEE768
:10045000FEE7FEE7FEE7FEE7FEE7FEE704480549A4
:10046000054A064B704700006D71000899020008AC
:10047000708F0124709501247091012470910124E2
:10048000704753EA020C00F069802DE9F04B4FF001
:100490000006002B1FBFB3FA83F503FA05F424FA14
:1004A00005F65E4012BF1643B2FA82F502FA05F471
:1004B000C5F120051EBF22FA05FC44EA0C042035D4
:1004C00056EA044C4FEA144418BF641C4FF000086D
:1004D0004FF00009904271EB030C39D3002919BF8A
:1004E000B1FA81F701FA07F6B0FA80F700FA07F6D9
:1004F000C7F120071EBF20FA07FC46EA0C0620378A
:10050000B6FBF4FCA7EB0507103F07F01F0BCBF180
:1005100020060CFA0BFB2CFA06F644BFB346002665
:10052000202FA4BF5E464FF0000B5BEA060C08BF0D
:100530004FF0010B19EB0B09ABFB027C48EB0608F3
:10054000C01B06FB02CC0BFB03CC71EB0C01C1E71B
:100550000B46024641464846BDE8F08B13B54FF0C6
:1005600000004FF00001AFF30080BDE81C40704771
:100570000FB4044910B503AA029800F02BF910BC7F
:100580005DF814FBB00000242DE9F0410E4604464E
:10059000002020622046E168884730B3252805D036
:1005A000D4E901219047206A401CF2E7E168204627
:1005B00000278847050018D0A5F14100192802D866
:1005C00020354FF400673246294620462760FFF762
:1005D000BDFE40B1012804D0F61D26F007060836FE
:1005E000D8E7361DD6E72846DAE7206ABDE8F0816D
:1005F0002DE9F0410646002410687529314616A5FC
:1006000010D0AFF30080002802DA404213A507E0C3
:1006100031688A0701D512A502E0490704D511A562
:10062000012401E0AFF3008000210A2206F1240733
:1006300009E0B0FBF2FCB0FBF2F302FB1C0030302F
:1006400078541846491C0028F3D123462A463046E0
:10065000BDE8F04100F065B8000000002D0000008A
:100660002B0000002000000010B5203AC0F00B80E5
:10067000B1E81850203AA0E81850B1E81850A0E8A6
:100680001850BFF4F5AF5FEA027C24BFB1E8185000
:10069000A0E8185044BF18C918C0BDE810405FEA70
:1006A000827C24BF51F8043B40F8043B08BF7047EC
:1006B000D20728BF31F8023B48BF11F8012B28BFF1
:1006C00020F8023B48BF00F8012B70474FF00002B2
:1006D00000B5134694469646203922BFA0E80C5038
:1006E000A0E80C50B1F12001BFF4F7AF090728BF13
:1006F000A0E80C5048BF0CC05DF804EB890028BF8F
:1007000040F8042B08BF704748BF20F8022B11F0B7
:10071000804F18BF00F8012B704770477047704733
:1007200070472DE9F0470D4699469246044600F180
:1007300024080168880604D5E06921F010012160D1
:1007400000E00120A84201DD471B00E00027A1696D
:100750007A1902EB0900081AA0612078C00602D4B9
:100760002046AFF30080002608E0D4E901211AF802
:1007700006009047206A401C761C20624E45F4DB40
:100780002078C0060AD52046AFF3008006E0D4E901
:10079000012130209047206A401C2062381EA7F1BA
:1007A0000107F4DC07E0D4E9012118F805009047BF
:1007B000206A401C2062281EA5F10105F3DC2046BA
:1007C000AFF300802078000602D50220BDE8F08754
:1007D0000120FBE7074B70B50D467B4400F011F894
:1007E0000446284600F020F810B14FF0FF3070BDED
:1007F000204670BD7782000001694A1C02610878BA
:10080000704700B58FB0CDE9013100210591054950
:100810007944CDE9031011466846FFF7B5FE0FB0E5
:1008200000BD0000E5FFFFFF007B00F08000704787
:1008300000487047108F01247546FFF7F9FFAE4658
:1008400005006946534620F00700854618B020B5DC
:10085000FFF704FEBDE820404FF000064FF0000710
:100860004FF000084FF0000B21F00701AC46ACE858
:10087000C009ACE8C009ACE8C009ACE8C0098D46C5
:10088000704710B50446AFF300802046BDE8104025
:10089000FFF770BD10B5834883490978405C002894
:1008A0007ED182488049097850F8210000887E492D
:1008B00009788842F4D17D487B49097850F82100B5
:1008C00090F8C40C012824D179480078A0B90120FF
:1008D0000DE0784901EB00118A887449724B1B784E
:1008E00051F8231001F68C4121F81020401C0C28EF
:1008F000EFDD01206E4908706C4A6B4B1B7852F893
:100900002310694B1B7852F82320B2F8860C07F0AD
:10091000B7FB01206AE06549634A127851F822105A
:10092000091D654A126801EB421131F91010634A42
:100930001278891A624A32F9102091420ADB604922
:1009400031F810105D4A1278114409B25C4A22F85D
:1009500010101DE05549544A127851F82210091D13
:10096000554A126801EB421131F91010534A1278BE
:100970001144534A32F91020914209DC504931F8B0
:1009800010104E4A1278891A09B24D4A22F81010F6
:100990004649454A127851F82210091D464A00E09E
:1009A0007EE0126801EB421131F91010434A1278CF
:1009B000891A434A32F91020914216DA3B493A4AE1
:1009C000127851F82210091D3B4A126801EB4211BE
:1009D00031F91010394A12781144394A32F910208D
:1009E000914202DD0121374A1154401C0C2892DD4E
:1009F000012052E03349095C01B950E00C284BD189
:100A00002A49294A127851F82210B1F8861C491E49
:100A1000294A126891420DDD27490968491C264A76
:100A20001160012103E00022264B5A54491C0C2975
:100A3000F9DD31E01D491C4A127851F82210B1F855
:100A4000861C491E1C4A1268914225D10122174971
:100A5000154B1B7851F823100988124B5A5400216A
:100A6000154A1160124A1170012103E00022154B52
:100A70005A54491C0C29F9DD0B49097801290BD17D
:100A800000220A49084B1B7851F823100988054BAE
:100A90005A540121084A1160401C0C28AADD00BFED
:100AA00010BD0000988E0124209A00246CE70024D9
:100AB0002A9A002400E60024249A0024229A002482
:100AC00010E70024CA8E012470B5002425E02146D9
:100AD00015A0FFF74DFD1DA0FFF74AFD1CA0FFF775
:100AE00047FD002508E01F4800EB441030F91510C1
:100AF0001DA0FFF73DFD6D1C0D2DF4DB194800EB2B
:100B00004410B0F91A101AA0FFF732FD19A0FFF730
:100B10002FFD1FA0FFF72CFD641C232CD7DB1E48E4
:100B2000FFF726FD70BD0000092E616374696F6ECA
:100B3000735B25645D203D2028536572766F4163A9
:100B400074696F6E53746570297B00000D0A000094
:100B50002E736572766F416E676C6573203D207BE6
:100B6000000000002028012425642C200000000043
:100B7000256420007D2C0D0A092E73746570447560
:100B8000726174696F6E203D20320D0A0000000012
:100B90007D2C0D0A00000000649C000818481949CB
:100BA000086019484860194888601948C8601948A1
:100BB000086119484861194888611948C86119488D
:100BC000086219484862194888621948C862194879
:100BD000086319484863194888631948C863194865
:100BE000086400200649088081F8840C9FED160AED
:100BF00001F5406080ED220A2320A1F8860C7047A1
:100C00001C2801246CE7002490800024182700246D
:100C1000385A0024C8730024FCF40024C4010124C1
:100C20008C0E0124541B0124588D0024880D0024AF
:100C3000501A0024C0000024704D002400670024D6
:100C4000A8400024E033002400409C4500BFFEE79C
:100C500010B5024801F066F810BD0000CCA10024D8
:100C600010B5024801F05EF810BD000044A2002457
:100C700010B5024801F056F810BD0000BCA20024D7
:100C800010B5024801F04EF810BD000034A3002456
:100C900010B5024801F046F810BD0000ACA30024D6
:100CA00010B5024801F03EF810BD000024A4002455
:100CB00010B5024801F036F810BD0000EC9F00248A
:100CC00010B5024801F02EF810BD000064A0002409
:100CD00010B5024801F026F810BD0000DCA0002489
:100CE00010B5024801F01EF810BD000054A1002408
:100CF0000146374A0868904249D0354A1832086898
:100D0000904244D0324A3032086890423FD0304A54
:100D10004832086890423AD02D4A603208689042C2
:100D200035D02B4A78320868904230D0284A903229
:100D3000086890422BD0264AA8320868904226D0F4
:100D4000244A0868904222D0224A18320868904209
:100D50001DD0204A30320868904218D01D4A4832CF
:100D60000868904213D01B4A6032086890420ED047
:100D7000184A78320868904209D0164A90320868BA
:100D8000904204D0134AA8320868904201D1012051
:100D900000E00020B0B10A78103A1823B2FBF3F05B
:100DA00000F007020C4B9A5CCA65032805D90A6853
:100DB0006FF30902121D8A6503E00A686FF30902E6
:100DC0008A6503E0086820F0FF008865886D704739
:100DD0001000024010040240FC9B000810B502689D
:100DE0002B4C0368A34222D0294C14340368A3423D
:100DF0001DD0274C28340368A34218D0244C3C341F
:100E00000368A34213D0224C50340368A3420ED08F
:100E10001F4C64340368A34209D01D4C7834036826
:100E2000A34204D01A4C8C340368A34201D101239D
:100E300000E000238BB10378083B1424B3FBF4F1EA
:100E4000144B03EB81030366124B8033436601F0BE
:100E50001F040123A340836618E00378103B182485
:100E6000B3FBF4F10C4B9A4204D80B4BA83B9A42CB
:100E700000D30831094B03EB81030366074B803332
:100E8000436601F01F040123A340836610BD0000E8
:100E90000854025800580258B804024000080240A2
:100EA0000179A9B3082940D8204B02689A4222D080
:100EB0001E4B143302689A421DD01C4B2833026823
:100EC0009A4218D0194B3C3302689A4213D0174B00
:100ED000503302689A420ED0144B643302689A422F
:100EE00009D0124B783302689A4204D00F4B8C33EE
:100EF00002689A4201D1012200E000224AB14A1E52
:100F00000B4B03EB8202C266094A4032026708E0DB
:100F10000BE04A1E074B03EB8202C266054A4032D1
:100F200002674A1E012393404367704708540258E2
:100F30000059025800090240014600208A69D2B9CE
:100F40008A6A32B1012A0DD0022A03D0032A10D1B5
:100F50000EE000BFCA6A02F08072B2F1807F00D159
:100F6000012007E0CA6AB2F1C07F00D1012001E090
:100F700000E000BF36E08A69B2F5005F1BD18A6AE3
:100F800032B1012A07D0022A03D0032A11D10AE084
:100F900000BF01200EE0CA6A02F08072B2F1807FC9
:100FA00000D1012006E0CA6AB2F1C07F00D1012061
:100FB00000E000BF16E08A6A32B1012A05D0022A99
:100FC00004D0032A0CD103E000BF00BF012008E0D9
:100FD000CA6A02F08072B2F1807F00D1012000E085
:100FE00000BF00BF70470000F0B5856D846D984F5D
:100FF0000668BE4270D0964F18370668BE426BD066
:10100000934F30370668BE4266D0914F4837066826
:10101000BE4261D08E4F60370668BE425CD08C4FB6
:1010200078370668BE4257D0894F90370668BE426F
:1010300052D0874FA8370668BE424DD0854F06680C
:10104000BE4249D0834F18370668BE4244D0814F14
:1010500030370668BE423FD07E4F48370668BE42F2
:101060003AD07C4F60370668BE4235D0794F78372A
:101070000668BE4230D0774F90370668BE422BD00C
:10108000744FA8370668BE4226D0734F0668BE422A
:1010900022D0714F14370668BE421DD06E4F2837DC
:1010A0000668BE4218D06C4F3C370668BE4213D06B
:1010B000694F50370668BE420ED0674F64370668E6
:1010C000BE4209D0644F78370668BE4204D0624FF2
:1010D0008C370668BE4201D1012600E000263EB1F1
:1010E000D0E919767E60C66E16B1D0E91C767E60B6
:1010F000574F0668BE4249D0554F18370668BE4262
:1011000044D0534F30370668BE423FD0504F483727
:101110000668BE423AD04E4F60370668BE4235D0B0
:101120004B4F78370668BE4230D0494F903706683B
:10113000BE422BD0464FA8370668BE4226D0454F48
:101140000668BE4222D0434F18370668BE421DD003
:10115000404F30370668BE4218D03E4F48370668C9
:10116000BE4213D03B4F60370668BE420ED0394FA7
:1011700078370668BE4209D0364F90370668BE42BF
:1011800004D0344FA8370668BE4201D1012600E0E2
:101190000026DEB190F85C6006F01F073F26BE40D7
:1011A000AE600668366826F4802607683E600668EA
:1011B00073608668402E04D10668B2600668F160EC
:1011C00044E00668B1600668F2603FE0224F0668BE
:1011D000BE4222D0204F14370668BE421DD01E4F9B
:1011E00028370668BE4218D01B4F3C370668BE42FF
:1011F00013D0194F50370668BE420ED0164F6437D1
:101200000668BE4209D0144F78370668BE4204D043
:10121000114F8C370668BE4201D1012600E000263E
:10122000A6B190F85C6006F01F070126BE4066601C
:10123000066873608668402E04D10668B26006684E
:10124000F16003E00668B1600668F260F0BD00007E
:10125000100002401004024008540258704772B651
:1012600000BFFEE72DE9F04780460D4616461F46B3
:101270004FF0000AD146B8F1010F03D0B8F1020FC8
:1012800004D101E0594C02E0594C00E000BF00BF1E
:10129000FF202072FF216172FE21A1722721E172DD
:1012A000832121732A2161730621A17308EB880031
:1012B000001FE073297821742888010A617431784D
:1012C000A1743088010AE174397821753888010ADF
:1012D000617508EB8800C01EA075A978E175688863
:1012E000010A2176B17861767088010AA176B97811
:1012F000E1767888010A217708EB8800801E607704
:101300002979A177A888010AE17731792020015550
:10131000B088C0F3072121200155397922200155D9
:10132000B888C0F307212320015508EB8800401E30
:10133000C1B224200155A97925200155E888C0F3C0
:10134000072126200155B17927200155F088010A8F
:1013500084F82810B97984F82910F888010A84F8EB
:101360002A1008EB880084F82B00297A84F82C10C6
:101370002889010A84F82D10317A84F82E103089DA
:10138000010A84F82F10397A84F830103889010A5C
:1013900084F831104FF000094FF0020A0AE004F11E
:1013A000080010F80A00484400F0FF090AF10100A3
:1013B00000F0FF0ABAF1290FF1DD48464FEAE97162
:1013C00009EB11610912A9EB012101F0FF096FEA94
:1013D000090000F0FF0984F832902B2204F1080183
:1013E000206805F077F9BDE8F0870000D0E400241C
:1013F00038E400242DE9F0410646002700250D2E93
:1014000019D2DFE806F0180708090B0C0E0F1012AE
:101410001315160000BF00BF1E4C0DE000BF1E4C90
:101420000AE000BF00BF1D4C06E000BF1C4C03E0FB
:1014300000BF1C4C00E000BF00BFFF202072FF2156
:101440006172A6720421E172022121733821617355
:101450000821A1730025022706E004F10800C05D01
:101460002844C5B2781CC7B2062FF6DD2846E91716
:1014700005EB11610912A5EB0121CDB2E843C5B21C
:10148000E573082204F10801206805F023F9BDE89E
:10149000F0810000D8E1002470E2002408E3002479
:1014A000A0E3002468E500242DE9F041044601F0A2
:1014B0005BFF804614B90120BDE8F08194F8350047
:1014C000022808D08020606500BF002084F8340026
:1014D00000BF0120F0E7FE492068884249D0FC495E
:1014E00018312068884244D0F94930312068884258
:1014F0003FD0F7494831206888423AD0F4496031FA
:101500002068884235D0F24978312068884230D04E
:10151000EF499031206888422BD0ED49A8312068EE
:10152000884226D0EB492068884222D0E949183108
:10153000206888421DD0E74930312068884218D0A1
:10154000E44948312068884213D0E249603120687C
:1015500088420ED0DF4978312068884209D0DD49C1
:1015600090312068884204D0DA49A8312068884246
:1015700001D1012000E0002068B12068006820F05F
:101580001E00216808602068406920F08000216802
:101590004861256806E02068006820F00E00216898
:1015A00008602568CA492068884270D0C849183147
:1015B000206888426BD0C64930312068884266D0A6
:1015C000C34948312068884261D0C14960312068F0
:1015D00088425CD0BE4978312068884257D0BC49E7
:1015E00090312068884252D0B949A8312068884299
:1015F0004DD0B8492068884249D0B6491831206892
:10160000884244D0B3493031206888423FD0B14944
:101610004831206888423AD0AE496031206888421B
:1016200035D0AC4978312068884230D0A949903112
:10163000206888422BD0A749A8312068884226D04C
:10164000A5492068884222D0A349143120688842E5
:101650001DD0A14928312068884218D09E493C31CC
:101660002068884213D09C495031206888420ED0AF
:10167000994964312068884209D0974978312068B7
:10168000884204D094498C312068884201D10120DD
:1016900000E0002028B1206E006820F48070216EE8
:1016A00008608B492068884249D0894918312068F0
:1016B000884244D086493031206888423FD08449EE
:1016C0004831206888423AD0814960312068884298
:1016D00035D07F4978312068884230D07C499031BC
:1016E000206888422BD07A49A8312068884226D0C9
:1016F00078492068884222D076491831206888428B
:101700001DD0744930312068884218D07149483161
:101710002068884213D06F496031206888420ED01B
:101720006C4978312068884209D06A499031206834
:10173000884204D06749A8312068884206D12068D1
:10174000006820F001002168086005E0206800685A
:1017500020F001002168086011E001F005FEA0EB17
:10176000080005280BD920206065032084F8350087
:1017700000BF002084F8340000BF01209CE62868E8
:1017800000F001000028E8D151492068884249D082
:101790004F4918312068884244D04D493031206883
:1017A00088423FD04A494831206888423AD0484967
:1017B00060312068884235D04549783120688842B8
:1017C00030D043499031206888422BD04049A8311D
:1017D0002068884226D03F492068884222D03D496F
:1017E0001831206888421DD03A493031206888423B
:1017F00018D0384948312068884213D035496031C3
:10180000206888420ED0334978312068884209D058
:10181000304990312068884204D02E49A831206890
:10182000884201D1012000E0002040B1A66D94F86B
:101830005C0000F01F013F208840B06007E0A76D0A
:1018400094F85C0000F01F01012088407860204976
:101850002068884276D01E4918312068884271D0AD
:101860001B493031206888426CD0194948312068C2
:10187000884267D0164960312068884262D0144996
:101880007831206888425DD01149903120688842C3
:1018900058D00F49A8312068884253D00D4920689C
:1018A00088424FD00B491831206888424AD00949F4
:1018B00030312068884245D0064948312068884246
:1018C00040D004496031206888423BD0014905E09E
:1018D0001000024010040240085402587831206879
:1018E00088422FD02549206888422BD023491831BF
:1018F0002068884226D022492068884222D0204988
:101900001431206888421DD01D4928312068884242
:1019100018D01B493C312068884213D018495031F7
:10192000206888420ED0164964312068884209D068
:10193000134978312068884204D011498C312068DD
:10194000884201D1012000E0002068B1D4E91910DB
:101950004860E06E40B1E06E006820F48070E16E97
:101960000860D4E91C104860012084F8350000BFED
:10197000002084F8340000BF00BF9DE5A0040240B1
:101980000854025870B504460CB9012070BD94F893
:101990003500022803D0802060650120F6E7DC498D
:1019A0002068884249D0DA4918312068884244D0FA
:1019B000D7493031206888423FD0D5494831206826
:1019C00088423AD0D24960312068884235D0D04927
:1019D00078312068884230D0CD49903120688842E3
:1019E0002BD0CB49A8312068884226D0C94920682D
:1019F000884222D0C7491831206888421DD0C54985
:101A000030312068884218D0C24948312068884265
:101A100013D0C0496031206888420ED0BD4978316A
:101A20002068884209D0BB4990312068884204D0A0
:101A3000B849A8312068884201D1012000E0002087
:101A4000F0B3042084F83500B149206888424BD0B7
:101A5000AF4918312068884246D0AD4930312068FE
:101A6000884241D0AA494831206888423CD0A849E0
:101A700060312068884237D0A54978312068884293
:101A800032D0A3499031206888422DD0A049A83196
:101A90002068884228D09F492068884224D09D49E8
:101AA0001831206888421FD09A4930312068884216
:101AB0001AD0984948312068884215D0954900E0ED
:101AC00020E06031206888420ED092497831206849
:101AD000884209D08F4990312068884204D08D49CE
:101AE000A8312068884206D12068006820F00100F3
:101AF0002168086009E12068006820F00100216881
:101B0000086002E12068006820F00E00216808608B
:101B10007F492068884249D07D4918312068884231
:101B200044D07B493031206888423FD078494831E1
:101B3000206888423AD0764960312068884235D0A2
:101B4000734978312068884230D0714990312068DB
:101B500088422BD06E49A8312068884226D06D4932
:101B60002068884222D06B491831206888421DD0F5
:101B7000684930312068884218D066494831206869
:101B8000884213D063496031206888420ED0614991
:101B900078312068884209D05E49903120688842B7
:101BA00004D05C49A8312068884206D120680068CA
:101BB00020F001002168086005E02068006820F03E
:101BC00001002168086052492068884270D050495D
:101BD0001831206888426BD04D49303120688842E6
:101BE00066D04B4948312068884261D0484960310D
:101BF000206888425CD0464978312068884257D0B6
:101C0000434990312068884252D04149A831206828
:101C100088424DD03F492068884249D03D4918311B
:101C20002068884244D03B493031206888423FD008
:101C300038494831206888423AD0364960312068B6
:101C4000884235D0334978312068884230D03149D4
:101C50009031206888422BD02E49A83120688842D4
:101C600026D02D492068884222D02B491431206883
:101C700088421DD0284928312068884218D026493A
:101C80003C312068884213D0234950312068884273
:101C90000ED0214964312068884209D01E4978312C
:101CA0002068884204D01C498C312068884201D1C8
:101CB000012000E00020D8B1206E006820F4807080
:101CC000216E0860A56D94F85C0000F01F010120F2
:101CD00088406860D4E919104860E06E40B1E06E59
:101CE000006820F48070E16E0860D4E91C10486040
:101CF000012084F8350000BF002084F8340000BFC4
:101D0000206D10B12046216D884700203EE600007E
:101D10001000024010040240085402580146486D69
:101D2000704700002DE9F84F044600200090FE485F
:101D300000684FF41651B0FBF1FAA66DD4F8588044
:101D40003768D8F80090F9492068884249D0F749A7
:101D500018312068884244D0F449303120688842E4
:101D60003FD0F2494831206888423AD0EF4960318B
:101D70002068884235D0ED4978312068884230D0DB
:101D8000EA499031206888422BD0E849A831206880
:101D9000884226D0E6492068884222D0E44918319A
:101DA000206888421DD0E24930312068884218D02E
:101DB000DF4948312068884213D0DD49603120680E
:101DC00088420ED0DA4978312068884209D0D84953
:101DD00090312068884204D0D549A83120688842D3
:101DE00001D1012000E0002000287DD094F85C00A3
:101DF00000F01F01082088403840002868D0CB49F7
:101E00002068884249D0C94918312068884244D0A6
:101E1000C6493031206888423FD0C44948312068E3
:101E200088423AD0C14960312068884235D0BF49E4
:101E300078312068884230D0BC499031206888428F
:101E40002BD0BA49A8312068884226D0B8492068EA
:101E5000884222D0B6491831206888421DD0B44942
:101E600030312068884218D0B14948312068884212
:101E700013D0AF496031206888420ED0AC49783128
:101E80002068884209D0AA4990312068884204D04D
:101E9000A749A8312068884204D12068006800F072
:101EA000040003E02068006800F0080080B12068AA
:101EB000006820F004002168086094F85C0000F0DD
:101EC0001F0108208840B060606D40F0010060652F
:101ED00094F85C0000F01F01012088403840E8B30E
:101EE00092492068884200E0B7E24BD08F49183110
:101EF0002068884246D08D4930312068884241D0E0
:101F00008A494831206888423CD08849603120683D
:101F1000884237D0854978312068884232D0834959
:101F20009031206888422DD08049A83120688842AD
:101F300028D07F492068884224D07D491831206804
:101F400088421FD07A493031206888421AD07849B7
:101F500048312068884215D0754900E026E060319C
:101F6000206888420ED0724978312068884209D0B2
:101F70006F4990312068884204D06D49A8312068AB
:101F8000884204D12068406900F0800002E02068A7
:101F90000068002050B194F85C0000F01F0101209F
:101FA0008840B060606D40F00200606594F85C00AD
:101FB00000F01F01042088403840E8B35B492068E6
:101FC00088424BD0594918312068884246D0574939
:101FD00030312068884241D05449483120688842D5
:101FE0003CD0524960312068884237D04F4978311F
:101FF0002068884232D04D499031206888422DD0E7
:102000004A49A8312068884228D049492068884236
:1020100024D047491831206888421FD044493031C4
:10202000206888421AD0424948312068884215D039
:102030003F496031206800E024E088420ED03C49EE
:1020400078312068884209D0394990312068884227
:1020500004D03749A8312068884204D1206800683C
:1020600000F0020002E020680068002050B194F8FF
:102070005C0000F01F0104208840B060606D40F0FB
:102080000400606594F85C0000F01F011020884097
:102090003840E8B325492068884251D02349183197
:1020A000206888424CD0214930312068884247D08E
:1020B0001E4948312068884242D01C49603120685E
:1020C00088423DD0194978312068884238D0174974
:1020D00090312068884233D01449A8312068884262
:1020E0002ED01349206888422AD01149183120681F
:1020F000884225D00E4930312068884220D00C49D2
:102100004831206888421BD009496031206800E0CE
:102110004DE0884214D006497831206888420FD0BB
:1021200003499031206805E024000024100002409B
:1021300010040240884203D0FE492068884204D13E
:102140002068006800F0080003E02068006800F0E4
:10215000040060B394F85C0000F01F011020884078
:10216000B0602068006800F4802080B120680068BA
:1021700000F4002028B9206CC8B12046216C8847A3
:1021800015E0A06C98B12046A16C88470FE020684C
:10219000006800F4807028B92068006820F008000A
:1021A00021680860206C10B12046216C884794F8A3
:1021B0005C0000F01F0120208840384000287DD0BE
:1021C000DD492068884249D0DB49183120688842BF
:1021D00044D0D9493031206888423FD0D64948316F
:1021E000206888423AD0D44960312068884235D08E
:1021F000D14978312068884230D0CF499031206869
:1022000088422BD0CC49A8312068884226D0C949C1
:10221000A8392068884221D0C64990392068884270
:102220001CD0C44978392068884217D0C149603928
:102230002068884212D0BF494839206888420DD0B2
:10224000BC4930392068884208D0BA49183920681A
:10225000884203D0B7492068884204D120680068CA
:1022600000F0100003E02068006800F0020028B3CE
:1022700094F85C0000F01F0120208840B06094F8C2
:10228000350004282DD12068006820F01600216850
:1022900008602068406920F0800021684861206C57
:1022A00008B9A06C28B12068006820F008002168F7
:1022B000086094F85C0000F01F0100E03FE03F2060
:1022C0008840B060012084F8350000BF002084F809
:1022D000340000BF206D10B12046216D8847BDE855
:1022E000F88F2068006800F4802080B120680068C2
:1022F00000F4002028B9606C08B32046616C884760
:102300001DE0E06BD8B12046E16B884717E02068FC
:10231000006800F4807068B92068006820F0100040
:1023200021680860012084F8350000BF002084F88F
:10233000340000BFE06B10B12046E16B8847606D50
:1023400000287AD0606D00F00100E8B3042084F822
:1023500035007949206888424BD077491831206888
:10236000884246D0744930312068884241D0724951
:102370004831206888423CD06F49603120688842EB
:1023800037D06D4978312068884232D06A4990311F
:10239000206888422DD06849A8312068884228D01A
:1023A0006449A8392068884223D06249903920685E
:1023B00088421ED05F4978392068884219D05D492B
:1023C00060392068884200E040E012D0594948391D
:1023D000206888420DD0574930392068884208D09B
:1023E000544918392068884203D0524920688842ED
:1023F00006D12068006820F001002168086005E02F
:102400002068006820F001002168086000BF009883
:10241000401C0090504500D905E02068006800F09D
:1024200001000028F3D100BF2068006800F001001F
:1024300020B1032084F8350003E00DE0012084F88A
:10244000350000BF002084F8340000BFE06C002895
:1024500002D02046E16C8847D9E13849206888429B
:1024600022D036491431206888421DD033492831A2
:102470002068884218D031493C312068884213D006
:102480002E495031206888420ED02C496431206892
:10249000884209D0294978312068884204D02749E8
:1024A0008C312068884201D1012000E00020002802
:1024B000D2D02068056894F85C0000F01F01042069
:1024C000884000EA0900D8B305F00400C0B394F8CE
:1024D0005C0000F01F0104208840C8F8040005F4E7
:1024E000004080B105F4803030B9A06C0028B3D032
:1024F0002046A16C88478AE1206C0028ACD0204699
:10250000216C884783E105F02000E8BB0A49206878
:10251000884253D008491831206888424ED0064975
:1025200030312068884249D00349483120688842C8
:1025300044D006E0B804024010000240085402589B
:102540004FE0B44960312068884237D0B1497831D2
:102550002068884232D0AF499031206888422DD01F
:10256000AC49A8312068884228D0AB49206888420D
:1025700024D0A9491831206888421FD0A64930319B
:10258000206888421AD000E025E0A349483120683D
:10259000884213D0A0496031206888420ED09E49FD
:1025A00078312068884209D09B4990312068884260
:1025B00004D09949A8312068884206D12068006873
:1025C00020F008002168086005E02068006820F01D
:1025D000040021680860206C10B32046216C8847F5
:1025E00015E194F85C0000F01F010220884000EA29
:1025F0000900E8B305F00200D0B394F85C0000F0E5
:102600001F0102208840C8F8040005F4004070B1A2
:1026100005F4803028B9606C10B12046616C8847A1
:10262000F5E0E06BF0B32046E16B8847EFE005F0A2
:102630002000C0BB7749206888424ED075491831C8
:102640002068884249D0734930312068884244D09C
:1026500070494831206888423FD06E496031206817
:1026600088423AD06B4978312068884235D000E002
:102670004EE068499031206888422ED06549A831E3
:102680002068884229D064492068884225D0624960
:1026900018312068884220D05F4930312068884254
:1026A0001BD001E06EE02DE05B4948312068884294
:1026B00013D059496031206888420ED0564978318C
:1026C0002068884209D0544990312068884204D05B
:1026D0005149A8312068884206D12068006820F05E
:1026E00014002168086005E02068006820F00A00F6
:1026F00021680860012084F8350000BF002084F8BC
:10270000340000BFE06BE8B32046E16B88477EE011
:1027100094F85C0000F01F010820884000EA0900DE
:1027200080B305F0080068B33A49206888424BD06E
:10273000384918312068884246D0364930312068FF
:10274000884241D033494831206888423CD03149E1
:1027500060312068884237D02E497831206888421D
:1027600032D02C499031206888422DD02949A83197
:102770002068884228D028492068884224D02649E9
:10278000183100E043E0206888421DD022493031F2
:102790002068884218D0204948312068884213D0E8
:1027A0001D496031206888420ED01B49783120686D
:1027B000884209D0184990312068884204D01649CF
:1027C000A8312068884206D12068006820F01C00EB
:1027D0002168086005E02068006820F00E0021688C
:1027E000086094F85C0000F01F0101208840C8F8E0
:1027F00004000120606584F8350000BF002084F8E3
:10280000340000BFE06C10B12046E16C884700BF87
:1028100065E5000010000240100402402DE9F0417F
:10282000044600F0A1FD804614B90120BDE8F08106
:10283000FE492068884249D0FC4918312068884206
:1028400044D0FA493031206888423FD0F7494831B6
:10285000206888423AD0F54960312068884235D0F6
:10286000F24978312068884230D0F04990312068B0
:1028700088422BD0ED49A8312068884226D0EC4907
:102880002068884222D0EA491831206888421DD049
:10289000E74930312068884218D0E549483120683E
:1028A000884213D0E2496031206888420ED0E04966
:1028B00078312068884209D0DD499031206888420B
:1028C00004D0DB49A8312068884201D1012000E012
:1028D0000020002873D0606A00B100BF022084F895
:1028E000350000BF002084F8340000BFCF492068C5
:1028F000884249D0CD4918312068884244D0CB491C
:102900003031206888423FD0C84948312068884229
:102910003AD0C64960312068884235D0C349783101
:102920002068884230D0C1499031206888422BD03D
:10293000BE49A8312068884226D0BD492068884217
:1029400022D0BB491831206888421DD0B8493031A7
:102950002068884218D0B64948312068884213D090
:10296000B3496031206888420ED0B149783120687F
:10297000884209D0AE4990312068884204D0AC49E1
:10298000A8312068884206D12068006820F0010044
:102990002168086005E02068006820F001002168D7
:1029A00008600DE000F0E0FCA0EB0800052807D966
:1029B00020206065032084F83500012036E76AE0B6
:1029C0002068006800F001000028EBD1206805684D
:1029D00098480540D4E90201084321690843616928
:1029E0000843A1690843E1690843216A0843054394
:1029F000606A042803D1D4E90B01084305438E48DB
:102A000000686FF30F00B0F1005F1DD360682928E4
:102A100002D360682E2811D960683F2802D360680D
:102A200042280BD96068472802D36068482805D936
:102A300060684F2804D36068522801D8012000E064
:102A4000002008B145F480152068056020684569BC
:102A500025F00705606A0543606A04280DD1A06A65
:102A60000543E06A48B12046FEF766FA28B14020E7
:102A70006065012084F83500D8E62068456120466D
:102A8000FEF736F9064694F85C0000F01F013F207F
:102A90008840B0609EE069492068884222D067493A
:102AA0001431206888421DD064492831206888424A
:102AB00018D062493C312068884213D05F495031B8
:102AC000206888420ED05D4964312068884209D070
:102AD0005A4978312068884204D058498C3120689E
:102AE000884201D1012000E00020E0B35349206872
:102AF000884222D051491431206888421DD04F4964
:102B000028312068884218D04C493C3120688842DE
:102B100013D04A495031206888420ED04749643169
:102B20002068884209D0454978312068884204D01D
:102B300042498C312068884201D1012000E0002008
:102B400000B100BF022084F8350000BF002084F8E7
:102B5000340000BF2068056839480540A068402857
:102B600002D1102106E02EE0A068802801D1C10129
:102B700000E00021E06841EAD001206941EAD0018B
:102B8000606941EAD001A06941EAD001E06941EA07
:102B9000D001206A41EA10100543206805602749EA
:102BA0002068401A1421B0FBF1F08000E065204657
:102BB000FEF79EF8074694F85C0000F01F01012024
:102BC0008840786006E040206065032084F8350086
:102BD00001202BE61549206888427FD0134918311F
:102BE000206888427AD0114930312068884275D0F7
:102BF0000E4948312068884270D00C496031206805
:102C000088426BD0094978312068884266D00749EC
:102C100090312068884261D00449A83120688842F8
:102C20005CD003492068884258D00BE01000024075
:102C3000100402403F8010FE0010005C085402584F
:102C40000F00FEFF3B4918312068884246D03949C1
:102C500030312068884241D0364948312068884266
:102C60003CD0344960312068884237D031497831CE
:102C70002068884232D02F499031206888422DD078
:102C80002C49A8312068884228D02B4920688842E6
:102C900024D029491431206888421FD02649283180
:102CA000206888421AD024493C312068884215D0D7
:102CB000214950312068884210D01F496431206872
:102CC00088420BD01C4978312068884206D01A49C6
:102CD0008C312068884200E000E001D1012000E052
:102CE000002000B32046FEF779F8A068802801D1C3
:102CF000002060602079216E0860D4E919104860D6
:102D0000606860B16068082809D82046FEF7C8F8F6
:102D10000020E16E0860D4E91C10486003E0002048
:102D2000E0662067606700206065012084F8350058
:102D300000207BE510040240085402582DE9F041C0
:102D400004460D4616461F464FF0000814B90120F0
:102D5000BDE8F08100BF94F83400012801D10220C1
:102D6000F6E7012084F8340000BF94F8350001280C
:102D70007ED1022084F8350000206065E449206897
:102D8000884249D0E24918312068884244D0E0495D
:102D90003031206888423FD0DD4948312068884280
:102DA0003AD0DB4960312068884235D0D849783143
:102DB0002068884230D0D6499031206888422BD094
:102DC000D349A8312068884226D0D2492068884259
:102DD00022D0D0491831206888421DD0CD493031E9
:102DE0002068884218D0CB4948312068884213D0E7
:102DF000C8496031206888420ED0C64978312068C1
:102E0000884209D0C34990312068884204D0C14922
:102E1000A8312068884206D12068006820F00100AF
:102E20002168086005E02068006820F00100216842
:102E300008603B46324629462046FEF7D5F8B4499D
:102E4000206888424BD0B24918312068884246D069
:102E5000AF4930312068884241D0AD4948312068BF
:102E600088423CD0AA4960312068884237D000E0CF
:102E700042E1A74978312068884230D0A449903196
:102E8000206888422BD0A249A8312068884226D0E9
:102E9000A0492068884222D09E4918312068884283
:102EA0001DD09C4930312068884218D0994948315A
:102EB0002068884213D097496031206888420ED03C
:102EC000944978312068884209D09249903120682D
:102ED000884204D08F49A8312068884201D101205E
:102EE00000E0002080B12068006820F01E0040F063
:102EF000160021680860206CB0B12068006840F0BE
:102F00000800216808600FE02068006820F00E00CB
:102F100040F00A0021680860206C28B12068006831
:102F200040F004002168086079492068884270D028
:102F300077491831206888426BD075493031206854
:102F4000884266D0724948312068884261D0704911
:102F50006031206888425CD06D49783120688842B1
:102F600057D06B4990312068884252D06849A831C7
:102F7000206888424DD067492068884249D0654919
:102F800018312068884244D0624930312068884234
:102F90003FD060494831206888423AD05D4960316D
:102FA0002068884235D05B4978312068884230D02B
:102FB00058499031206888422BD05649A831206862
:102FC000884226D054492068884222D05249143180
:102FD000206888421DD0504928312068884218D086
:102FE0004D493C312068884213D04B49503120680C
:102FF00088420ED0484964312068884209D0464949
:1030000078312068884204D043498C312068884256
:1030100001D1012000E0002090B1206E006800F492
:10302000803028B1206E006840F48070216E086006
:10303000E06E28B1E06E006840F48070E16E0860D8
:1030400033492068884249D0314918312068884284
:1030500044D02F493031206888423FD02C49483134
:10306000206888423AD02A4960312068884235D0A9
:10307000274978312068884230D02549903120682E
:1030800088422BD02249A8312068884226D0214985
:103090002068884222D01F491831206888421DD0FC
:1030A0001C4930312068884218D01A4948312068BC
:1030B000884213D017496031206888420ED01549E4
:1030C00078312068884209D01249903120688842BE
:1030D00004D01049A8312068884206D120680068D1
:1030E00040F001002168086010E02068006840F0AE
:1030F00001002168086009E04FF40060606500BFCE
:10310000002084F8340000BF4FF0010840461FE65D
:1031100010000240100402400854025870B50446E2
:1031200000F022F906462546681C10B104480078D4
:10313000054400BF00F018F9801BA842FAD370BD07
:1031400020000024F8B502460B4600216F4DD7E061
:1031500001278F401E6806EA0704002C72D01E79F2
:1031600006F00306012E04D01E7906F00306022E97
:1031700013D190684F000326BE40B0434F00DE6875
:10318000BE4030439060506801268E40B0431E79A7
:10319000C6F300168E40304350601E7906F00306D9
:1031A000032E09D0D0684F000326BE40B0434F0025
:1031B0009E68BE403043D0601E7906F00306022EA2
:1031C00013D1CF0802F1200656F827004E07F70E5C
:1031D0000F26BE40B0434F07FF0E1E69BE4030436E
:1031E000CF0802F1200646F8270010684F0003269A
:1031F000BE40B0431E7906F003064F00BE40304388
:1032000010605E6806F44036002E78D000BF404E55
:10321000366846F002063E4F3E603E46366806F08F
:103220000206009600BF00BF3A4E8F0856F82700EE
:103230008E07370F0F26BE40B043374EB24202D141
:1032400000262EE05BE0354EB24201D1012628E097
:10325000334EB24201D1022623E0324EB24201D1B6
:1032600003261EE0304EB24201D1042619E02F4E53
:10327000B24201D1052614E02D4EB24201D10626FC
:103280000FE02C4EB24201D107260AE02A4EB2428C
:1032900001D1082605E0294EB24201D1092600E0FD
:1032A0000A268F073F0FBE4030431A4E8F0846F85C
:1032B00027004FF0B0463068A0435E6806F48016E1
:1032C00006B120434FF0B04630607068A0435E689E
:1032D00006F4001606B120434FF0B04670606868EF
:1032E000A0435E6806F4003606B120436860286893
:1032F000A0435E6806F4803606B120432860491C6E
:103300001E68CE40002E7FF423AFF8BD8000005829
:10331000F4440258080400580000025800040258FF
:1033200000080258000C02580010025800140258FD
:1033300000180258001C02580020025800240258AD
:10334000024613690B400BB1012000E000207047DA
:103350000AB1816101E00B04836170470148006894
:10336000000C70470010005C0148006870470000C6
:103370001800002410B504460CB9012010BDD4F883
:10338000840028B9002084F88000204602F08EFED8
:103390002420C4F884002068006820F0010021681F
:1033A0000860204604F09CFA012800D1E6E7A06AF4
:1033B00010B1204604F09CF82068406820F490404A
:1033C000216848602068806820F0220021688860B9
:1033D0002068806840F008002168886020680068E4
:1033E00040F0010021680860204604F0FDF8C5E7C0
:1033F0000348006803490978084401490860704798
:10340000180000242000002410B5032000F0E0F88C
:1034100001F026FB10490968C1F303210F4A515CF2
:1034200001F01F0120FA01F40B48006800F00F00C2
:103430001146085C00F01F0024FA00F008490860FB
:10344000084804600F2000F00FF808B1012010BDFB
:1034500000F054F80020FAE7184402582C9C0008A9
:10346000280000242400002470B58AB00446102CE3
:103470000AD200222146762000F06CF8762000F077
:1034800055F81948046002E001200AB070BD00BF81
:103490001648006840F48020144908600846006817
:1034A00000F48020009000BF00BF01A902A801F035
:1034B00057FA01F0C3FA45000D48B5FBF0F0461E7F
:1034C0000C480D49086040F2E7310B48C160466086
:1034D00000210161816002F043F818B9064802F04A
:1034E000B5F8D2E70120D0E71C000024F0440258D0
:1034F00040420F00004801409CA4002408B500BFD2
:103500000948006840F00200074908600846006862
:1035100000F00200009000BF00BF00220F21901EAB
:1035200000F018F808BD0000F444025801460846AF
:1035300000280DDB00BF00BF00F01F0301229A40EE
:1035400043099B0003F1E023C3F8002100BF00BF43
:1035500000BF70472DE9F05F80460D46164605F026
:103560005BFA074639462A46334601F00700C0F1A8
:10357000070ABAF1040F02D94FF0040A01E0C0F1C2
:10358000070AD14600F1040ABAF1070F02D24FF040
:10359000000A01E0A0F1030AD4464FF0010A0AFA3A
:1035A00009FAAAF1010A0AEA020A0AFA0CFA4FF029
:1035B000010B0BFA0CFBABF1010B0BEA030B4AEA14
:1035C0000B042146404605F02FFABDE8F09F0000AD
:1035D00000BF00F00702064B19684FF6FF031940C1
:1035E000044B0B4343EA0221014B196000BF7047B3
:1035F0000CED00E00000FA0570B5044615480068BF
:10360000C0F3800048B91348006800F00700A042EA
:1036100001D0012070BD0020FCE70E48006820F0BA
:10362000070020430B490860FFF79EFE054607E0B0
:10363000FFF79AFE401BB0F57A7F01D90120E9E738
:10364000044808380068C0F340300028F0D000205B
:10365000E0E700000C48025810B501F0B7F9054941
:103660000968C1F30211044A515C01F01F01C8400E
:1036700010BD0000204402582C9C000870B5014683
:10368000844D2D6805F00303824D2D68C5F3053088
:10369000804D2D1D2D68C5F300147E4D14352D6809
:1036A000C5F3CC0515FB04F501EE105AB8EE411A2E
:1036B000F0EE410A00286FD023B1012B4ED0022B2F
:1036C0006BD16BE0734D283D2D68C5F340153DB3BC
:1036D000704D283D2D68C5F3C1066F4D25FA06F2E1
:1036E00001EE102AF8EE411A01EE100AB8EE411A66
:1036F00081EE812A9FED691AC0EE811A654D103561
:103700002D68C5F3080501EE105AB8EE411A31EEE6
:10371000811AF7EE001A31EE211A22EE010A1CE09E
:1037200001EE100AB8EE411ADFED5D1A81EE812A32
:103730009FED5A1AC0EE811A564D10352D68C5F30B
:10374000080501EE105AB8EE411A31EE811AF7EE73
:10375000001A31EE211A22EE010A5BE001EE100A96
:10376000B8EE411ADFED4F1A81EE812A9FED4B1A18
:10377000C0EE811A474D10352D68C5F3080501EEDE
:10378000105AB8EE411A31EE811AF7EE001A31EEF6
:10379000211A22EE010A3DE077E01DE001EE100A59
:1037A000B8EE411A9FED402AC2EE011A9FED3B1A76
:1037B00080EE812A374D10352D68C5F3080501EEDE
:1037C000105AB8EE411A32EE011AB7EE002A31EE65
:1037D000021A21EE810A1DE001EE100AB8EE411A2C
:1037E000DFED301A81EE812A9FED2C1AC0EE811A8E
:1037F000284D10352D68C5F3080501EE105AB8EEB6
:10380000411A31EE811AF7EE001A31EE211A22EE3A
:10381000010A00BF00BF1F4D10352D68C5F34625B6
:1038200001EE105AB8EE411AF7EE001A31EE211AE5
:10383000C0EE011ABCEEE11A81ED001A154D1035EB
:103840002D68C5F3064501EE105AB8EE411AF7EEA1
:10385000001A31EE211AC0EE011ABCEEE11A81ED18
:10386000011A0C4D10352D68C5F3066501EE105A8E
:10387000B8EE411AF7EE001A31EE211AC0EE011A25
:10388000BCEEE11A81ED021A03E000250D604D60E7
:103890008D6070BD284402580090D003000000469F
:1038A0000024744C0024744A20BCBE4B70B5014601
:1038B000844D2D6805F00303824D2D68C5F3055036
:1038C000804D2D1D2D68C5F300247E4D1C352D68BF
:1038D000C5F3CC0515FB04F501EE105AB8EE411AFC
:1038E000F0EE410A00286FD023B1012B4ED0022BFD
:1038F0006BD16BE0734D283D2D68C5F340153DB38A
:10390000704D283D2D68C5F3C1066F4D25FA06F2AE
:1039100001EE102AF8EE411A01EE100AB8EE411A33
:1039200081EE812A9FED691AC0EE811A654D183526
:103930002D68C5F3080501EE105AB8EE411A31EEB4
:10394000811AF7EE001A31EE211A22EE010A1CE06C
:1039500001EE100AB8EE411ADFED5D1A81EE812A00
:103960009FED5A1AC0EE811A564D18352D68C5F3D1
:10397000080501EE105AB8EE411A31EE811AF7EE41
:10398000001A31EE211A22EE010A5BE001EE100A64
:10399000B8EE411ADFED4F1A81EE812A9FED4B1AE6
:1039A000C0EE811A474D18352D68C5F3080501EEA4
:1039B000105AB8EE411A31EE811AF7EE001A31EEC4
:1039C000211A22EE010A3DE077E01DE001EE100A27
:1039D000B8EE411A9FED402AC2EE011A9FED3B1A44
:1039E00080EE812A374D18352D68C5F3080501EEA4
:1039F000105AB8EE411A32EE011AB7EE002A31EE33
:103A0000021A21EE810A1DE001EE100AB8EE411AF9
:103A1000DFED301A81EE812A9FED2C1AC0EE811A5B
:103A2000284D18352D68C5F3080501EE105AB8EE7B
:103A3000411A31EE811AF7EE001A31EE211A22EE08
:103A4000010A00BF00BF1F4D18352D68C5F346257C
:103A500001EE105AB8EE411AF7EE001A31EE211AB3
:103A6000C0EE011ABCEEE11A81ED001A154D1835B1
:103A70002D68C5F3064501EE105AB8EE411AF7EE6F
:103A8000001A31EE211AC0EE011ABCEEE11A81EDE6
:103A9000011A0C4D18352D68C5F3066501EE105A54
:103AA000B8EE411AF7EE001A31EE211AC0EE011AF3
:103AB000BCEEE11A81ED021A03E000250D604D60B5
:103AC0008D6070BD284402580090D003000000466D
:103AD0000024744C0024744A20BCBE4B2DE9F041F4
:103AE00004460025A846206800F00060B0F1006F91
:103AF00030D1606E48B1B0F5801F0DD0B0F5001F19
:103B000010D0B0F5401F15D113E0F948006840F41B
:103B10000030F74908600FE00221201D03F0C2F8D1
:103B2000054609E0022104F1240003F06DF9054681
:103B300002E001E0012500BF00BF55B9EC48243088
:103B4000006820F44010616E0843E94924310860A0
:103B500000E0A846208800F48070B0F5807F2DD169
:103B6000606D05281AD2DFE800F0030A101718006C
:103B7000DF48006840F40030DD49086010E00021B3
:103B8000201D03F08FF805460AE0002104F124000F
:103B900003F03AF9054603E002E001E0012500BF29
:103BA00000BF55B9D2482430006820F00700616D8D
:103BB0000843CF492431086000E0A846208800F47B
:103BC0000070B0F5007F33D1A06D802817D003DCE2
:103BD00040B140281CD10CE0C02817D0B0F5807F40
:103BE00016D114E0C248006840F40030C0490860B3
:103BF00010E00021201D03F055F805460AE00021E1
:103C000004F1240003F000F9054603E002E001E0BE
:103C1000012500BF00BF55B9B5482430006820F425
:103C2000E070A16D0843B2492431086000E0A84665
:103C3000208800F48060B0F5806F38D1D4F8A400FB
:103C4000B0F5800F19D004DC50B1B0F5001F1DD1C4
:103C50000DE0B0F5C00F17D0B0F5000F16D114E08D
:103C6000A348006840F40030A149086010E000213A
:103C7000201D03F017F805460AE0002104F1240096
:103C800003F0C2F8054603E002E001E0012500BFB1
:103C900000BF5DB996482C30006820F46000D4F86D
:103CA000A410084392492C31086000E0A8462088FF
:103CB00000F40060B0F5006F38D1D4F8A800B0F17E
:103CC000007F19D004DC50B1B0F1807F1DD10DE030
:103CD000B0F1407F17D0B0F1806F16D114E0844866
:103CE000006840F400308249086010E00021201D87
:103CF00002F0D8FF05460AE0002104F1240003F099
:103D000083F8054603E002E001E0012500BF00BFA3
:103D10005DB977482C30006820F0E060D4F8A81036
:103D2000084373492C31086000E0A846206800F081
:103D30000070B0F1007F27D1A06CA0B1102804D092
:103D4000202809D030280FD10CE06948006840F4E1
:103D500000306749086009E00221201D02F0A2FF3F
:103D6000054603E002E001E0012500BF00BF55B9B0
:103D70005F482030006820F03000A16C08435C49A7
:103D80002031086000E0A846208800F48050B0F59B
:103D9000805F36D1E06DB0F5005F19D004DC50B122
:103DA000B0F5805F1DD10DE0B0F5405F17D0B0F5E4
:103DB000804F16D114E04E48006840F400304C4962
:103DC000086010E00021201D02F06CFF05460AE0AB
:103DD000002104F1240003F017F8054603E002E097
:103DE00001E0012500BF00BF55B9414824300068FB
:103DF00020F4E040E16D08433D492431086000E0D3
:103E0000A846208800F40050B0F5005F34D1206E41
:103E1000B0F5403F1DD007DC68B1B0F5803F0BD056
:103E2000B0F5003F18D10DE0B0F5802F12D0B0F5FD
:103E3000A02F11D10FE011E00121201D02F032FF6F
:103E400005460BE0012104F1240002F0DDFF0546E8
:103E500004E003E002E001E0012500BF00BF55B926
:103E600023482430006820F4E020216E08432049D4
:103E70002431086000E0A846208800F48040B0F5B6
:103E8000804F38D1D4F8AC00B0F1405F1DD007DCD2
:103E900068B1B0F1805F0BD0B0F1005F18D10DE0D8
:103EA000B0F1804F12D0B0F1A04F11D10FE011E06E
:103EB0000121201D02F0F6FE05460BE0012104F170
:103EC000240002F0A1FF054604E003E002E001E067
:103ED000012500BF00BF6DB905482C30006820F0F7
:103EE000E040D4F8AC10084301492C31086002E0EE
:103EF0002C440258A846208800F40040B0F5004F3A
:103F000026D1E06E98B1B0F1805F03D0B0F1005FD0
:103F10000ED106E0F948006840F40030F749086027
:103F200008E00121201D02F0BDFE054602E001E08F
:103F3000012500BF00BF55B9F0482430006820F0CB
:103F40004050E16E0843ED492431086000E0A84686
:103F5000206800F08070B0F1807F27D1606CA0B144
:103F6000012804D0022809D003280FD10CE0E3482F
:103F7000006840F40030E149086009E00221201D9A
:103F800002F090FE054603E002E001E0012500BFDB
:103F900000BF55B9D9482030006820F00300616C9B
:103FA0000843D6492031086000E0A846206800F4A4
:103FB0008000B0F5800F7DD1D148006840F480705A
:103FC000CF490860FFF7D0F9064606E0FFF7CCF9C5
:103FD000801B642801D9032505E0C948006800F466
:103FE00080700028F2D000BF85BBC4484430006810
:103FF00000F44070B4F8B01001F44071884213D05E
:10400000BE484430006820F44077BC484430006823
:1040100040F48030B949443108600846006820F413
:104020008030086008460760D4F8B000B0F5807FA3
:1040300015D1FFF799F9064609E0FFF795F9801BBE
:1040400041F28831884202D9032507E038E0AB48C5
:1040500044300068C0F340000028EED000BF55BBDC
:1040600000BFB4F8B00000F44070B0F5407F0ED14E
:10407000A2481C38006820F47C51A24AD4F8B00051
:10408000104041EA10109D491C39086007E09B4828
:104090001C38006820F47C5098491C390860974807
:1040A00044300068B4F8B010C1F30B0108439349E1
:1040B000443101E005E001E0086002E0A84600E0CC
:1040C000A846207800F0010068B3A06F182819D026
:1040D00005DC48B1082808D0102816D10BE02028AC
:1040E00011D0282811D10FE011E00121201D02F08C
:1040F000D9FD05460BE0012104F1240002F084FE05
:10410000054604E003E002E001E0012500BF00BF36
:1041100055B97A482830006820F03800A16F08436C
:1041200076492831086000E0A846207800F00200B7
:10413000022828D1606F062815D2DFE800F00304BA
:104140000A11121311E00121201D02F0ABFD0546FA
:104150000BE0012104F1240002F056FE054604E0C4
:1041600003E002E001E0012500BF00BF55B963484C
:104170002830006820F00700616F08435F4928314C
:10418000086000E0A846207800F0040004282AD146
:10419000D4F89000062815D2DFE800F003040A11D5
:1041A000121311E00121201D02F07CFD05460BE0F9
:1041B000012104F1240002F027FE054604E003E09B
:1041C00002E001E0012500BF00BF5DB94B482C3083
:1041D000006820F00700D4F89010084347492C31BC
:1041E000086000E0A846207800F02000202836D1A2
:1041F000D4F88C00B0F1405F1DD007DC68B1B0F19D
:10420000805F0BD0B0F1005F18D10DE0B0F1804FAE
:1042100012D0B0F1A04F11D10FE011E00021201D0C
:1042200002F040FD05460BE0022104F1240002F0FB
:10423000EBFD054604E003E002E001E0012500BFDC
:1042400000BF5DB92D482830006820F0E040D4F868
:104250008C10084329492831086000E0A8462078DE
:1042600000F04000402836D1D4F89800B0F5406FF7
:104270001DD007DC68B1B0F5806F0BD0B0F5006FD2
:1042800018D10DE0B0F5805F12D0B0F5A05F11D16C
:104290000FE011E00021201D02F004FD05460BE0B7
:1042A000022104F1240002F0AFFD054604E003E022
:1042B00002E001E0012500BF00BF5DB90F482C30CE
:1042C000006820F4E050D4F8981008430B492C31D2
:1042D000086000E0A846207800F0800080283AD1ED
:1042E000D4F89C00B0F5C04F23D00DDC98B1B0F5E8
:1042F000005F11D0B0F5804F1ED113E02C4402585E
:1043000000480258FFFCFF0FB0F5004F12D0B0F587
:10431000204F11D10FE011E00021201D02F0C2FC5E
:1043200005460BE0022104F1240002F06DFD054674
:1043300004E003E002E001E0012500BF00BF4DB949
:10434000BE48006820F46040D4F89C100843BB4984
:10435000086000E0A846207800F00800082817D17F
:10436000D4F88000B0F5805F07D1022104F1240069
:1043700002F04AFD08B14FF00108B048001F006884
:1043800020F44050D4F880100843AC49091F08605D
:10439000207800F01000102815D1D4F89400B0F562
:1043A000807F07D1022104F1240002F02DFD08B125
:1043B0004FF00108A148006820F44070D4F8941030
:1043C00008439E490860206800F40020B0F5002FE3
:1043D00026D1D4F8A00030B1B0F5803F09D0B0F5B7
:1043E000003F0ED10CE00021201D02F05BFC0546D1
:1043F00009E0022104F1240002F006FD054602E076
:1044000001E0012500BF00BF4DB98C48006820F4D1
:104410004030D4F8A01008438849086000E0A8465E
:10442000206800F48020B0F5802F2DD1D4F88400CE
:10443000B0F5801F06D0B0F5001F0CD0B0F5401FBE
:1044400011D10FE07D482C38006840F400307B49E2
:104450002C39086009E0012104F1240002F0D4FCA9
:10446000054602E001E0012500BF00BF5DB97348C9
:10447000001F006820F44010D4F8841008436F49EE
:10448000091F086000E0A846206800F48030B0F5FD
:10449000803F24D1E06C18B1B0F5803F0FD108E027
:1044A00066482C38006840F4003064492C390860B4
:1044B00007E00221201D02F0F5FB054601E0012581
:1044C00000BF00BF55B95D480C38006820F480304B
:1044D000E16C084359490C39086000E0A84620689F
:1044E00000F00050B0F1005F07D1022104F1240078
:1044F00002F08AFC08B14FF00108206800F4003097
:10450000B0F5003F27D1E06FA0B1B0F5807F06D0B5
:10451000B0F5007F0CD0B0F5407F0CD109E04748E2
:104520002C38006840F4003044492C39086004E01D
:1045300003E002E001E0012500BF00BF55B93F489C
:10454000001F006820F44070E16F08433B49091FD9
:10455000086000E0A846206800F48010B0F5801FD5
:1045600009D136480838006820F00040216F084320
:10457000324908390860206800F08050B0F1805F4F
:104580000AD12E484838006820F48040D4F8B4108E
:1045900008432A4948390860206800F40010B0F543
:1045A000001F09D125480838006820F08070A16EEE
:1045B0000843224908390860206800F08040B0F1C3
:1045C000804F11D100BF1D484838006820F40040DA
:1045D0001A494839086008460068D4F8B8100843FA
:1045E00016494839086000BF206800F00040B0F16B
:1045F000004F09D111480C38006820F04050216D5F
:1046000008430E490C390860206800F40000B0F53A
:10461000000F0AD10948001F006820F44000D4F8B8
:10462000881008430549091F0860B8F1000F02D13E
:104630000020BDE8F0810120FBE70000584402584B
:104640002DE9F04104460D4614B90120BDE8F08182
:10465000BD48006800F00F00A8420ED2BA480068BA
:1046600020F00F002843B84908600846006800F0B1
:104670000F00A84201D00120E8E7207800F00400F4
:1046800004280ED1B1492069096801F070018842FF
:1046900007D9AE48006820F0700021690843AB4993
:1046A0000860207800F00800082811D1A749091DEA
:1046B0006069096801F07001884209D9A348001DAA
:1046C000006820F0700061690843A049091D086076
:1046D000207800F01000102811D19C49091DA06914
:1046E000096801F4E061884209D99848001D006812
:1046F00020F4E060A16908439449091D086020780E
:1047000000F02000202811D190490831E0690968A3
:1047100001F07001884209D98C480830006820F007
:104720007000E1690843894908310860207800F089
:10473000020002280ED18549E068096801F00F01E6
:10474000884207D98148006820F00F00E1680843DB
:104750007E490860207800F00100002850D07B4896
:10476000006820F47060A1680843784908606068B8
:10477000022807D1754818380068C0F34040F8B9DE
:10478000012063E76068032807D170481838006883
:10479000C0F34060A0B9012058E76068012807D144
:1047A0006A4818380068C0F3002048B901204DE776
:1047B000664818380068C0F3800008B9012045E752
:1047C00062480838006820F00700616808435F49C4
:1047D00008390860FEF7C8FD064608E0FEF7C4FD8C
:1047E000801B41F28831884201D903202EE75748C7
:1047F0000838006800F038006168B0EBC10FEDD1F7
:10480000207800F0020002280ED15049E0680968C3
:1048100001F00F01884207D24C48006820F00F00D9
:10482000E1680843494908604748006800F00F0004
:10483000A8420ED94448006820F00F00284342499E
:1048400008600846006800F00F00A84201D001206F
:10485000FCE6207800F0040004280ED13B492069D2
:10486000096801F07001884207D23848006820F0DA
:1048700070002169084335490860207800F008007D
:10488000082811D13149091D6069096801F07001DA
:10489000884209D22D48001D006820F0700061692F
:1048A00008432A49091D0860207800F010001028EC
:1048B00011D12649091DA069096801F4E061884207
:1048C00009D22248001D006820F4E060A169084375
:1048D0001E49091D0860207800F02000202811D111
:1048E0001A490831E069096801F07001884209D26B
:1048F00016480830006820F07000E1690843134949
:104900000831086000F0ACF810490968C1F30321D0
:104910000F4A515C01F01F0120FA01F70B480068B3
:1049200000F00F001146085C00F01F0027FA00F0AD
:10493000084908600848076008480068FEF794FDC9
:104940008046404682E6000000200052184402588B
:104950002C9C000828000024240000241C000024B3
:104960003F220260174A126802F007024260154AAD
:104970000832126802F470628260124A08321268C9
:1049800002F00F02C2600F4A0832126802F0700291
:1049900002610C4A0C32126802F070024261094A4C
:1049A0000C32126802F4E0628261064A1032126828
:1049B00002F07002C261044A126802F00F020A603B
:1049C00070470000104402580020005210B500F05B
:1049D00047F80D490968C1F303210C4A515C01F005
:1049E0001F0120FA01F40848006800F00F0011468A
:1049F000085C00F01F0024FA00F005490860054833
:104A000004600846006810BD184402582C9C000839
:104A1000280000242400002400B5FFF7D7FF054933
:104A20000968C1F30211044A515C01F01F01C8403A
:104A300000BD00001C4402582C9C000800B5FFF784
:104A4000C5FF05490968C1F30221044A515C01F020
:104A50001F01C84000BD00001C4402582C9C0008E7
:104A6000F0B5824E366806F0380636B1082E15D0FD
:104A7000102E15D0182E7DD114E07C4E103E3668D5
:104A8000C6F3401646B1794E103E3668C6F3C107EC
:104A9000774E26FA07F000E07548E5E07548E3E058
:104AA0007548E1E0714E1836366806F003046F4E23
:104AB00018363668C6F305116C4E1C36366806F09B
:104AC00001056A4E24363668C6F3CC0616FB05F699
:104AD00001EE106AB8EE410A002971D024B1012C10
:104AE00050D0022C6DD16DE0604E103E3668C6F39A
:104AF00040163EB35D4E103E3668C6F3C1075C4EAD
:104B000026FA07F301EE103AF8EE411A01EE101AF8
:104B1000B8EE411A81EE812A9FED581AC0EE011AB3
:104B2000524E20363668C6F3080601EE106AB8EE1B
:104B3000411A31EE811AF7EE001A31EE211A62EEB7
:104B4000010A1EE001EE101AB8EE411ADFED4C1A10
:104B500081EE812A9FED491AC0EE011A434E20369C
:104B60003668C6F3080601EE106AB8EE411A31EE57
:104B7000811A00E076E0F7EE001A31EE211A62EEBB
:104B8000010A5BE001EE101AB8EE411A9FED3D2AD2
:104B9000C2EE011A9FED391A80EE012A334E2036FB
:104BA0003668C6F3080601EE106AB8EE411A32EE16
:104BB000011AB7EE002A31EE021A61EE810A3DE0D9
:104BC0004EE01DE001EE101AB8EE411ADFED2E1A8C
:104BD00081EE812A9FED291AC0EE011A234E20365C
:104BE0003668C6F3080601EE106AB8EE411A31EED7
:104BF000811AF7EE001A31EE211A62EE010A1DE069
:104C000001EE101AB8EE411A9FED1E2AC2EE011AEB
:104C10009FED1A1A80EE012A144E20363668C6F32C
:104C2000080601EE106AB8EE411A32EE011AB7EE2C
:104C3000002A31EE021A61EE810A00BF00BF0B4E5E
:104C400020363668C6F34626721C01EE102AB8EEEE
:104C5000411AC0EE811ABCEEE11A11EE100A00E012
:104C6000002001E0034800BF00BFF0BD104402581F
:104C70000090D00300093D0040787D01000000460F
:104C80000024744C0024744A20BCBE4B2DE9F0472C
:104C9000044614B90120BDE8F087207800F0010037
:104CA000002870D0FA48006800F03808F84818303A
:104CB000D0F80090B8F1100F06D0B8F1180F0FD14E
:104CC00009F0030002280BD1F14810380068C0F346
:104CD000404000286AD06068002867D10120DAE7E8
:104CE00000BF6068B0F5803F08D1E948103800681F
:104CF00040F48030E649103908602EE0606868B9F9
:104D0000E3481038006820F48030E1491039086029
:104D10000846006820F4802008601EE06068B0F556
:104D2000A02F0DD1DA481038006840F48020D8490F
:104D3000103908600846006840F4803008600CE0D4
:104D4000D3481038006820F48030D1491039086009
:104D50000846006820F48020086000BF606898B1B1
:104D6000FEF702FB054606E0FEF7FEFA401B64284C
:104D700001D903208FE7C64810380068C0F34040CF
:104D80000028F1D012E012E0FEF7EEFA054606E048
:104D9000FEF7EAFA401B642801D903207BE7BC48F0
:104DA00010380068C0F340400028F1D100BF2078DF
:104DB00000F00200022874D1B548006800F03808FD
:104DC000B3481830D0F80090B8F1000F05D0B8F112
:104DD000180F56D109F00300D0BBAD481038006859
:104DE000C0F3800018B1E06808B9012053E7A84873
:104DF0001038006820F01900E1680843A449103910
:104E00000860FEF7B1FA054606E0FEF7ADFA401B72
:104E1000022801D903203EE79D4810380068C0F3FE
:104E200080000028F1D000BFFEF798FA41F203019C
:104E300088421AD8206940280BD195480C38006860
:104E400020F47C3040F4003091490C39086017E0C0
:104E500017E08F480C38006820F47C30216940EA64
:104E600001308B490C3908600AE089480C38006829
:104E700020F0FE40217C40EA016085490C39086041
:104E800066E0E06888B382481038006820F01900B6
:104E9000E16808437E4910390860FEF765FA054667
:104EA00007E056E0FEF760FA401B022801D9032014
:104EB000F1E6774810380068C0F380000028F1D090
:104EC00000BFFEF74BFA41F2030188421AD820696D
:104ED00040280BD16E480C38006820F47C3040F438
:104EE00000306B490C39086017E017E068480C384F
:104EF000006820F47C30216940EA013064490C39B3
:104F000008600AE062480C38006820F0FE40217C0E
:104F100040EA01605E490C39086019E05C481038CD
:104F2000006820F001005A4910390860FEF71CFAA9
:104F3000054606E0FEF718FA401B022801D90320B7
:104F4000A9E6534810380068C0F380000028F1D16A
:104F500000BF207800F0100010287CD14C48006879
:104F600000F038084A481830D0F80090B8F1080F1F
:104F700006D0B8F1180F3DD109F00300012839D14E
:104F8000434810380068C0F3002020B1E069802851
:104F900001D001207FE600BFFEF7E0F941F20301F6
:104FA00088421AD8206A20280AD139480C3800686B
:104FB00020F0F84040F0804035490C39086018E096
:104FC00033480C38006820F0F84094F8201040EA8C
:104FD00081602F490C3908600BE02D48001F0068E4
:104FE00020F07C5094F8201040EA01602849091F05
:104FF000086066E0E06978B325481038006840F042
:105000008000234910390860FEF7AEF9054606E036
:10501000FEF7AAF9401B022801D903203BE61C48F1
:1050200010380068C0F300200028F1D000BFFEF760
:1050300095F941F2030188421CD8206A20280CD13E
:1050400013480C38006820F0F84040F080401049C8
:105050000C3908601AE035E01CE00D480C38006897
:1050600020F0F84094F8201040EA816008490C399B
:1050700008600BE00648001F006820F07C5094F8A0
:10508000201040EA01600249091F086019E0000091
:1050900010440258FA48006820F08000F84908607F
:1050A000FEF762F9054606E0FEF75EF9401B0228AE
:1050B00001D90320EFE5F2480068C0F30020002882
:1050C000F2D100BF207800F00800082836D16069CE
:1050D000D0B1EB487430006840F00100E849743109
:1050E0000860FEF741F9054606E0FEF73DF9401B72
:1050F000022801D90320CEE5E14874300068C0F3EE
:1051000040000028F1D019E0DD487430006820F03C
:105110000100DB4974310860FEF726F9054606E018
:10512000FEF722F9401B022801D90320B3E5D44839
:1051300074300068C0F340000028F1D1207800F0FE
:105140002000202830D1A069B8B1CD48006840F4D3
:105150008050CB490860FEF707F9054606E0FEF7E8
:1051600003F9401B022801D9032094E5C4480068D4
:10517000C0F340300028F2D016E0C148006820F4A7
:105180008050BF490860FEF7EFF8054606E0FEF7DD
:10519000EBF8401B022801D903207CE5B8480068E1
:1051A000C0F340300028F2D1207800F00400042839
:1051B0007DD1B448006840F48070B2490860FEF7C1
:1051C000D3F8054606E0FEF7CFF8401B642801D966
:1051D000032060E5AB48006800F480700028F2D03E
:1051E00000BFA068012808D1A5487030006840F0D1
:1051F0000100A349703108602DE0A06868B9A0489B
:105200007030006820F001009D4970310860084648
:10521000006820F0040008601DE0A06805280DD19A
:1052200097487030006840F004009549703108607C
:105230000846006840F0010008600CE090487030BB
:10524000006820F001008E4970310860084600684F
:1052500020F00400086000BFA068A0B1FEF784F849
:10526000054608E0FEF780F8401B41F2883188428D
:1052700001D903200FE5824870300068C0F3400078
:105280000028EFD013E0FEF76FF8054608E0FEF7C0
:105290006BF8401B41F28831884201D90320FAE4BF
:1052A000774870300068C0F340000028EFD1606A92
:1052B00000287DD072481030006800F038001828AF
:1052C00077D0606A022875D16D48006820F0807040
:1052D0006B490860FEF748F8054606E0FEF744F81B
:1052E000401B022801D90320D5E465480068C0F3BB
:1052F00040600028F2D100BFD4E90A1041EA001052
:105300005F492831096840F2F332914308435C4910
:1053100028310860208E401EC0F30800616B491ED2
:105320004FF47E4202EA41210843218F491ED201F7
:1053300002EA014108433C21095D491E120202EACA
:10534000016108434E493031086000BF081F006802
:1053500020F00100091F08604948343000684FF60A
:10536000F8718843A16C40EAC100454934310860B6
:1053700043482C30006820F00C00216C0843404961
:105380002C3108600846006820F00200616C084378
:105390003B492C3108600846006840F480300860C2
:1053A0000846006840F4003008600846006802E0E3
:1053B0006AE038E01FE040F480200860084600689A
:1053C00040F0010008602E48006840F080702C49D1
:1053D0000860FDF7C9FF054606E0FDF7C5FF401B65
:1053E000022801D9032056E425480068C0F3406034
:1053F0000028F2D048E02248006820F08070204960
:105400000860FDF7B1FF054606E0FDF7ADFF401B64
:10541000022801D903203EE419480068C0F3406027
:105420000028F2D130E016482830076814483030A0
:105430000668606A012821D007F00301A06A814252
:105440001CD1C7F30511E06A884217D1C6F30801E1
:10545000206B401E814211D1606B401EC6F3462175
:1054600088420BD1A06B401EC6F30641884205D18D
:10547000E06B401EC6F30661884205D001200AE4B5
:105480000044025800480258002004E47047704766
:105490007047000030B502460B4600BF92F83C0052
:1054A000012801D1022030BD012082F83C0000BF5C
:1054B000022082F83D001068416810688468214D20
:1054C0001068A84203D0204D1068A84203D121F4EF
:1054D00070015868014321F0700118680143106899
:1054E0004160184D1068A8421BD01068B0F1804F81
:1054F00017D0164D1068A84213D0154D1068A84259
:105500000FD0144D1068A8420BD00F4D1068A84260
:1055100007D0114D1068A84203D0104D1068A84262
:1055200005D124F080049868044310688460012049
:1055300082F83D0000BF002082F83C0000BF00BFA1
:10554000B1E70000000001400004014000040040F9
:1055500000080040000C00400018004000400140DE
:1055600010B504460CB9012010BD94F83D0028B9CF
:10557000002084F83C00204600F02AF8022084F83D
:105580003D00211D206801F08BFE012084F84800B9
:1055900000BF84F83E0001213F2001554020015505
:1055A00041200155422001554320015500BF00BF55
:1055B000012084F84400452001554620015547202C
:1055C000015500BF012084F83D000020CCE7000019
:1055D00038B504461A492068884216D100BF1948D8
:1055E000006840F00400174908600846006800F0B1
:1055F0000400009000BF00BF002205211E20FDF71F
:10560000A9FF1E20FDF792FF19E00F49206888428C
:1056100015D100BF0B48006840F010000949086030
:105620000846006800F01000009000BF00BF002294
:1056300005213620FDF78EFF3620FDF777FF38BDB8
:1056400000080040E844025800100040014691F86C
:105650003D00012801D001207047022081F83D0063
:105660000868C06840F001000B68D8601C4B0868EF
:1056700098421BD00868B0F1804F17D0194B0868CA
:10568000984213D0184B086898420FD0174B0868FF
:1056900098420BD0164B0868984207D0154B086803
:1056A000984203D0144B0868984210D1086880686B
:1056B000124B00EA0302062A0FD0B2F5803F0CD04D
:1056C0000868006840F001000B68186005E0086891
:1056D000006840F001000B6818600020BCE7000083
:1056E000000001400004004000080040000C0040A1
:1056F0000004014000180040004001400700010084
:105700002DE9F04104460D46002700BF94F83C0007
:10571000012802D10220BDE8F081012084F83C007C
:1057200000BF022084F83D0020688668404806409B
:1057300026F47F46206886602868702826D00CDC16
:1057400000F00F01002966D10011072863D2DFE8BD
:1057500000F0555657584B374100B0F1101F52D04A
:1057600009DCB0F5805F10D0B0F5005F1BD0B0F55C
:10577000801F50D146E0A0F580102038002843D08B
:10578000102842D0202846D140E046E0D5E9021357
:105790006A68206801F0EAFD2068866846F07706AE
:1057A0002068866039E0D5E902136A68206801F054
:1057B000DDFD2068806840F48040216888602CE02E
:1057C000EA686968206801F0E9FD5021206801F06D
:1057D000D9FD22E0EA686968206801F0F2FD6021E5
:1057E000206801F0CFFD18E0EA686968206801F0E0
:1057F000D5FD4021206801F0C5FD0EE000BF00BFCF
:1058000000BF00BF00BF00BF00BF00BF2968206805
:1058100001F0B8FD01E0012700BF00BF012084F8BE
:105820003D0000BF002084F83C0000BF384672E70E
:1058300088FFCEFF704710B5044620680069C0F3AA
:105840004000D8B12068C068C0F34000B0B16FF02C
:10585000020021680861012020772068806900F03B
:10586000030018B12046FFF7E5FF05E0204600F0F1
:10587000BEF8204600F0BCF80020207720680069C0
:10588000C0F38000D8B12068C068C0F38000B0B118
:105890006FF0040021680861022020772068806989
:1058A00000F4407018B12046FFF7C4FF05E0204621
:1058B00000F09DF8204600F09BF80020207720683B
:1058C0000069C0F3C000D8B12068C068C0F3C00050
:1058D000B0B16FF0080021680861042020772068CB
:1058E000C06900F0030018B12046FFF7A3FF05E0F0
:1058F000204600F07CF8204600F07AF8002020775F
:1059000020680069C0F30010D8B12068C068C0F3F7
:105910000010B0B16FF010002168086108202077F6
:105920002068C06900F4407018B12046FFF782FF7C
:1059300005E0204600F05BF8204600F059F8002012
:1059400020772068006900F0010058B12068C06825
:1059500000F0010030B16FF00100216808612046BD
:1059600000F048F820680069C0F3C01058B1206802
:10597000C068C0F3C01030B16FF0800021680861CA
:105980002046FFF784FD20680069C0F3002058B16D
:105990002068C068C0F3C01030B16FF48070216817
:1059A00008612046FFF772FD20680069C0F380108F
:1059B00058B12068C068C0F3801030B16FF040006B
:1059C00021680861204600F021F820680069C0F3D2
:1059D000401058B12068C068C0F3401030B16FF07B
:1059E0002000216808612046FFF752FD10BD704776
:1059F0007047000010B5044603492068884201D171
:105A0000FDF7F6FC10BD000000480140704701465C
:105A100000BF91F88000012801D1022070470120C9
:105A200081F8800000BF2420C1F884000868026863
:105A30000868006820F001000B68186022F000522E
:105A400000204866086802602020C1F8840000BF7A
:105A5000002081F8800000BF00BFDFE7704770477B
:105A600070B504460D4600BF94F88000012801D1AE
:105A7000022070BD012084F8800000BF2420C4F8FB
:105A80008400206806682068006820F00100216812
:105A900008602068806820F0606028432168886082
:105AA000204601F0F9FC206806602020C4F884003C
:105AB00000BF002084F8800000BF00BFD9E770B5A8
:105AC00004460D4600BF94F88000012801D1022051
:105AD00070BD012084F8800000BF2420C4F8840039
